:020000040800F2
:10000000F87A0420C1010008B14F00088D1D0008D6
:10001000AD4F0008611400081D6F000800000000CB
:10002000000000000000000000000000E55600088D
:10003000D515000800000000DD4F0008D55B000862
:10004000DB010008DB010008DB010008DB01000820
:10005000DB010008DB010008D715000809160008BD
:10006000131600081D16000827160008DB010008FB
:10007000DB010008DB010008DB010008DB010008F0
:10008000DB010008DB010008DB010008B5140008F3
:1000900065140008DB010008DB01000831160008C8
:1000A000DB010008DB010008DB010008DB010008C0
:1000B000B55D0008DB010008695E0008DB0100088F
:1000C000DB010008DB010008DB010008DB010008A0
:1000D000DB010008DB010008DB010008DB01000890
:1000E000E1150008DB010008DB010008DB01000866
:1000F000DB010008DB010008DB0100080D1500082A
:10010000DB010008DB010008DB010008DB0100085F
:10011000DB0100084D5F0008DB010008DB0100087F
:10012000DB010008DB010008DB010008DB0100083F
:10013000DB010008DB010008DB010008DB0100082F
:10014000B9140008DB010008DB010008DB0100082E
:10015000DB010008DB010008DB010008DB0100080F
:10016000DB010008DB010008DB010008DB010008FF
:10017000DB010008DB010008DB01000800000000D3
:10018000DB010008DB010008DB010008DB010008DF
:10019000DB010008DB010008DB01000800000000B3
:1001A000DB010008DB010008DB010008DFF80CD0F0
:1001B00000F018FF0048004731D80008F87A042002
:1001C0000648804706480047FEE7FEE7FEE7FEE7F1
:1001D000FEE7FEE7FEE7FEE7FEE7FEE7ED5C000870
:1001E000AD01000840EA01039B0703D009E008C9FC
:1001F000121F08C0042AFAD203E011F8013B00F8EC
:10020000013B521EF9D27047D2B201E000F8012B37
:10021000491EFBD270470022F6E710B513460A4686
:1002200004461946FFF7F0FF204610BD421E12F8A3
:10023000013F002BFBD111F8013B02F8013B002BE1
:10024000F9D1704730B505462A460B4612F8010B26
:1002500013F8014B08B1A042F8D01CB1002802D01D
:100260006D1CF1E7284630BD10B5044604E00B785C
:1002700000F8013B03B1491C521EF8D2204610BDC4
:10028000CAB2401E10F8011F8A4202D00029F9D1DB
:1002900000207047421C10F8011B0029FBD1801A76
:1002A000704730B505460020034600E05B1C9342D2
:1002B00005D2EC5CC85C201A01D1002CF6D130BD0F
:1002C00070B50F4D00B92868002412E00A4602E01C
:1002D0009E4203D0521C1378002BF9D1DAB222438C
:1002E00005D02BB124B1002100F8011B04E0044625
:1002F000401C0678002EE9D12860204670BD000021
:10030000FC0A00200246C9B200E0401C0378002B22
:10031000FBD102E003788B4203D0401E9042F9D219
:10032000002070470FB400B58DB010A909900B9054
:1003300000914FF0FF300A9000200C900548069085
:10034000054807906A4609A80F9900F08DFC0DB08A
:100350005DF814FB850C0008A30C00082DE9FF4F85
:10036000087883B09946FF2805D0491C2D2804D071
:100370000024002008E000200BE00124F9E700EB56
:10038000800003EB4000491C0B78FF2BF7D104B130
:10039000404200230293147819461D462D2C01D0AB
:1003A0002B2C04D1521C2D2C13D000240294AA46CD
:1003B0001478FF2C0FD00A25A3FB057801FB0581DB
:1003C0004FF0000C03FB0C11521CE3194AEB010126
:1003D000EEE70124EAE7814453EA010002D019F56F
:1003E000C87F06DA03980021C0E9001107B0BDE814
:1003F000F08F0025AE4E2F46DFF8B882184600F089
:10040000CCFDCDE90001B9F1000002DAC9F1000428
:1004100000E004460023A74A1AEB030B42EB045A00
:1004200012E0E00707D02A4633463846414600F03E
:1004300006FA074688462A4633461046194600F013
:10044000FEF905460E466410002CEAD1DDE90001F4
:10045000B9F1000F5A46534606DA00F062FA3A46FE
:10046000434600F05EFA05E000F0E9F93A464346FB
:1004700000F0E5F9029A0AB181F00041039AC2E95D
:100480000001B3E72DE9FF4F1F468DB0D7E90146C4
:100490004FF0FF382E2045464FF000090B90B96908
:1004A0006D1C0E988847396A824688470028F6D125
:1004B000BAF1FF3F0AD024F4D064002E11DDBAF166
:1004C0002B0F08D0BAF12D0F0BD102E0404611B02E
:1004D0008DE744F48064B9696D1C0E9888478246A4
:1004E000761E6946600501D52D2000E02B208DF891
:1004F000000001F1010B0DF1200809E0B9696D1C44
:100500000E98884782460F9844F40074761E056062
:10051000002E02DDBAF1300FF0D00B998A453ED1A2
:1005200044F0800406E00F99681CA9F1010944F425
:1005300000740860B9696D1C761E0E988847824663
:100540003028F0D02BE00B998A4505D1200603D442
:1005500044F08004761E18E0504608F0CFFB08B344
:100560000DF11301761E44F400748B4508D2AAF1F4
:1005700030000BF8010B200607D5A9F1010003E0BC
:10058000200602D409F101008146A00502D50F9989
:10059000681C0860B9696D1C0E9888478246002E59
:1005A000D1DC53E0002E51DDBAF1650F02D0BAF173
:1005B000450F4BD1A00549D5B9696D1C24F4407491
:1005C000761E0E9888478246002E0CDD2B2804D01C
:1005D000BAF12D0F07D144F48074B9696D1C0E98DF
:1005E00088478246761EE00501D52D2100E02B21AB
:1005F00008F8011BCDF82C8021E00DF12901761EB1
:1006000044F4007488450CD2AAF1300010F0FF00C9
:1006100088F8000002D10B99884509D908F1010832
:1006200006E0E00501D5244801E042F20F70814662
:10063000B9696D1C0E98884782460F980560002E98
:1006400004DD504608F05AFB0028D6D1F9690E980F
:100650008847FF208BF8000088F8000000200690F3
:1006600007904B466A4608A906A8FFF777FEA00543
:1006700002D46FF001002AE714F0240F0AD0E0073B
:1006800014D1DDE906123868031D3B600068C0E93B
:1006900000120BE0DDE9060100F04CFA0146E0072C
:1006A00004D13868021D3A600068016028460EE7F0
:1006B000000014400000F03FF1D8FFFF70B506467F
:1006C00006F080FC046805460A220021304600F04E
:1006D00047FB2C6070BD70B5064606F073FC0468DD
:1006E00005460A220021304600F03AFB2C6070BD1E
:1006F0002DE9FE4F804681EA0300C00F0C460090B2
:1007000021F0004123F00045B8EB0200A94105D2D9
:100710004046214690461C460B46024623F00040C8
:10072000104347D0270DC7F30A00C3F30A510290C4
:10073000401A019040286BDAC3F3130040F4801B89
:100740000098924620B10023D2EB030A63EB0B0B17
:1007500001985946C0F14002504600F04EFA064654
:100760000D4650465946019A00F066FA10EB080013
:100770006141002487EA115284EAE7731A4340D0AA
:10078000009A62B3019A012A4FEA075215DC001B56
:1007900061EB02014FF0004202EA0752CDE900424C
:1007A000001C41F5801132462B4600F057FB03B088
:1007B000BDE8F08F40462146F9E7001B61EB0201DE
:1007C000001C41F5801300185B412018A2F50017AA
:1007D00047EB030140EAD570B6196D4111E06D0891
:1007E0004FEA360645EAC0754FEA0752001B61EB37
:1007F0000201001C41F5801149084FEA3000001940
:10080000514132462B4603B0BDE8F04F00F017BB14
:100810000098012240000023D0EB020263EBE0735A
:10082000009821464FEAE074B8EB000061EB040148
:10083000E9E783F000435BE781F0004158E72DE9E9
:10084000FE4F81EA030404F0004421F000410094CB
:100850004FF0000B23F0004350EA01045ED052EA4F
:1008600003045BD0C3F30A54C1F30A552C44A4F229
:10087000F3340194A0FB0254C1F3130141F480113D
:10088000C3F3130343F4801301FB024400FB034E44
:10089000840A970A44EA815447EA8357A4FB07680D
:1008A00002958D0A05FB07854FEA932C04FB0C5437
:1008B0002705029D4FEA065847EA1637B5EB0805AB
:1008C0006EEB070C870E920E47EA811742EA8312FD
:1008D000A7FB0201B6EB0B0164EB00042B0D43EA0E
:1008E0000C335E1844EB1C50DA465146E7FB02011C
:1008F000C5F313044FEA0B3343EA14534FEA0432AF
:10090000019C43EA0603A4F10C040294009CCDE987
:1009100000B400F0A3FA03B0BDE8F08F0020014658
:10092000F9E72DE9F04D81EA030404F0004B21F0D2
:10093000004514464FF0000A23F0004150EA05023A
:1009400020D054EA01021DD0C5F30A570246C5F370
:100950001303C1F31300C1F30A5640F4801543F4A6
:100960008013A7EB0608101BD64608F2FD3873EB80
:10097000050002D308F1010801E092185B41B8F1CB
:10098000000F03DA00200146BDE8F08D00204FF48F
:100990008011064684460EE0171B73EB050705D34E
:1009A000121B63EB050306434CEA010C49084FEAAE
:1009B000300092185B4150EA0107EDD152EA030082
:1009C00012D082EA040083EA0501084305D0101B17
:1009D000AB4106D20122002306E000224FF0004383
:1009E00002E06FF0010253101AEB06004CEB0851C5
:1009F00010EB0A0041EB0B01BDE8F04D00F01FBA0F
:100A00000EB5C10F80EAE0700844CA07002140F229
:100A100033438DE80E000A460B4600F01FFA03B080
:100A200000BD0EB540F2334102910021CDE9001125
:100A30000A460B4600F012FA03B000BD70B5C1F3D0
:100A40000A5201F000450024C1F3130140F2FF33C4
:100A500041F480119A4201DA002070BD40F2334324
:100A60009A42A2F2334203DC524200F0D5F800E091
:100A700090402C43F1D0404270BDC1F30A5210B5F2
:100A8000C1F3130140F2FF3341F480119A4201DABD
:100A9000002010BD40F233439A42A2F2334203DCFD
:100AA000524200F0B9F810BD904010BD00F0004275
:100AB00030F000400AD0C10D01F56071C0F316009E
:100AC00042EA0151C2084007114370470020014625
:100AD0007047000030B5041E71F1000404DB4FF0D4
:100AE0000044404264EB0101141E73F1000405DB75
:100AF0001C464FF00043524263EB04038B4208BF95
:100B0000824230BD30B5041E71F1000404DB4FF0A9
:100B10000044404264EB0101141E73F1000405DB44
:100B20001C464FF00043524263EB0403994208BF56
:100B3000904230BD01F0004330B421F0004150EA52
:100B4000010206D00A0DA2F56072C1F31301002A5A
:100B500002DC30BC00207047440F44EAC104C100ED
:100B6000E01830BC00EBC25000F032B930B50B4693
:100B7000014600202022012409E021FA02F59D42CD
:100B800005D303FA02F5491B04FA02F52844151EA1
:100B9000A2F10102F1DC30BD2DE9F05F0546002035
:100BA00092469B4688460646814640241BE02846DE
:100BB00041464746224600F02FF853465A46C01A8F
:100BC000914110D311461846224600F016F82D1A0E
:100BD00067EB01084F4622460120002100F00DF886
:100BE00017EB00094E41201EA4F10104DFDC48464A
:100BF00031462A464346BDE8F09F202A04DB203ACE
:100C000000FA02F1002070479140C2F1200320FA5F
:100C100003F3194390407047202A04DB203A21FA5D
:100C200002F00021704721FA02F3D040C2F1200205
:100C30009140084319467047202A06DBCB17203A1B
:100C400041FA02F043EAE07306E041FA02F3D040D1
:100C5000C2F12002914008431946704702681144CE
:100C60001378016018467047D16004495161044906
:100C7000116200211161114600F0D4B95D0C000829
:100C800011100008426842B1016811F8013B23B11C
:100C9000521EC0E90012184670470121C160881E2B
:100CA000704742685AB1C368016843B983688B4290
:100CB00005D0491E521CC0E90012002070474FF0B9
:100CC000FF3070470FB4002300B589B00CA9009124
:100CD0000B996FF00042CB601E4B06931E4B07939F
:100CE0000423CDE901321D4A089202466B460020DA
:100CF000FFF7C8FB09B05DF814FB70B586B0064677
:100D00004FF0FF300091CDE90101002015460C465F
:100D100004903246694604A8FFF7D4FF02460498BF
:100D2000211825B108B1084600E020462860049843
:100D300000280DD0002A02DD0098884208D0081B48
:100D40000094CDE901043246694604A8FFF7BAFFD2
:100D500006B070BD850C0008A30C00081110000837
:100D60002DE9F04791460F4680460446002614F8C8
:100D7000015B2DB100F048F90068405DC007F6D175
:100D80002B2D02D02D2D18D0641E4A463946204600
:100D900000F0DEFA27B13968A14201D1C7F800801E
:100DA00071054FF002040BD54042002803DD06F028
:100DB00009F90460A007BDE8F08746F48066E4E71F
:100DC0000028F8DA06F0FEF804606FF00040F2E761
:100DD0000029A8BF7047401C490008BF20F001004F
:100DE000704710B4B0FA80FC00FA0CF050EA01042D
:100DF00004BF10BC704749B1CCF1200421FA04F4BF
:100E000011FA0CF118BF012121430843A3EB0C0197
:100E1000CB1D4FEA00614FEA102042BF002010BCFA
:100E2000704700EBC35010440029A4BF10BC7047AA
:100E3000401C490008BF20F0010010BC704710B5ED
:100E4000141E73F1000408DA401C41F100019218ED
:100E50005B411A4301D120F0010010BD2DE9F04D96
:100E600092469B4611B1B1FA81F202E0B0FA80F2EB
:100E700020329046FFF7C1FE04460F4640EA0A00C2
:100E800041EA0B0153465A46084313D0114653EA30
:100E9000010019D0C8F140025046FFF7BDFE0546DB
:100EA0000E46504659464246FFF7A7FE084305D076
:100EB000012004E020463946BDE8F08D00200543BE
:100EC00046EAE0762C4337430A986305E40AA0EB30
:100ED00008000022FD0A44EA47540A3002D50020E7
:100EE0000146E9E7010510196941DDE908450019E6
:100EF0006941BDE8F04DA2E72DE9F04D00231A4607
:100F00001B1A8A4103DB00200146BDE8F08DC1F3C6
:100F10000A52C1F3130141F480154FF0000BD107C1
:100F200002D100186D41521E0027044640F2FF1105
:100F3000384601EB620A3E468046024600204FF4E6
:100F40008011FFF769FEC2197141BB1846EB010021
:100F5000B4EB030C75EB000C04D3E41A65EB00054D
:100F600017460E46241908F101006D4180463428C9
:100F7000E3DDF91946EB0600091BA84103D24FF047
:100F8000FF32134601E0002213461BEB070046EB3D
:100F90000A51BDE8F04DFFF752BF0EB540F23342A3
:100FA00002920022CDE900221346FFF757FF03B05B
:100FB00000BDC1F30A52C1F3130140F2FF3341F403
:100FC00080119A4202DA00200146704740F2334312
:100FD0009A42A2F2334202DC5242FFF71DBEFFF7F3
:100FE0000CBE0000064C074D06E0E06840F001032F
:100FF00094E8070098471034AC42F6D3FFF7DAF8CC
:10100000B0200108D020010800487047841E010864
:1010100010B50446FFF7F8FF0068005D00F001001E
:1010200010BD00002DE9F34F8BB04FF0000801F127
:101030000C000C464FF0010B46460DF1080A0190DA
:101040006269012101989047051E2DD0252D2CD0D5
:10105000216A8847C0B16269012101989047216ADD
:1010600088470028F7D1411E62690198904700E047
:10107000761CA1690B988847216A88470028F7D118
:10108000E1690B988847DBE7A1690B988847074619
:10109000A84201D1761CD3E7E1690B9888477F1CF1
:1010A00002D1B8F1000F6FD046E1002762693D46DA
:1010B0003946019890472A2804D162690121019894
:1010C00090470125DFF884926269012101989047D9
:1010D000A0F130010A290AD24F45E5DC07EB870170
:1010E00000EB4107303FDFD445F01005ECE7E9069F
:1010F00001D46FF000476C280AD04C2814D068281F
:1011000015D06A280DD074281CD07A281AD01DE07A
:1011100062690121019890476C2802D045F00405CE
:1011200014E045F002050DE045F020050AE0626993
:10113000012101989047682802D045F0080505E094
:1011400045F400656269012101989047C4E901579F
:1011500065283DD019DC58287AD00CDC452837D0DA
:1011600004DC252826D0412831D131E046282FD073
:1011700047282CD12CE05B2877D0612828D0632821
:101180007CD0642823D15AE0D0E06F2848D008DC16
:1011900066281DD067281BD0692821D06E2816D15B
:1011A00027E0702845D0732868D0752847D0782864
:1011B0000DD14DE0A1690B988847054625283FF4DD
:1011C00069AFE1690B9888476D1C3FF46AAFB3E0E3
:1011D00023466A466FF001000B99FFF753F99EE032
:1011E00045F040006060A80723464FF0000236D467
:1011F0003EE0E8077FF447AF2068011D21600068EA
:10120000290501D506701BE7290701D5068017E7D8
:10121000A90703D5F117C0E9006111E706600FE7E0
:1012200045F040006060A80723464FF0080216D43E
:101230001EE040F60E0125EA0100606016E045F070
:1012400040006060A80723464FF00A0207D40FE071
:1012500045F040006060A80708D5234610226FF0D3
:1012600001000B99AFF3008059E007E023461022FC
:101270006FF001000B99AFF3008050E04FF00009D0
:101280004F464B46632802D05B2806D040E0E80674
:1012900001D40120A06001273AE062690121019890
:1012A00090475E2805D14FF00109626949460198CF
:1012B0009047216939B900210A46534643F8212055
:1012C000491C0829FADBB0B3216969B9C11700EBE1
:1012D000D16253110AEB830122F01F02821A01200E
:1012E0000B68904003430B606269012101989047AD
:1012F0005D28E8D1B9F1000F09D00020514651F81E
:101300002020D24341F82020401C0828F7DB02AB04
:10131000224600976FF001000B99AFF30080002880
:101320000CDA401C08D1BBF1000F05D04FF0FF30A4
:101330000DB0BDE8F08FFFE74046F9E7E90701D1BE
:1013400008F1010806444FF0000B79E6CCCCCC0C38
:101350002DE9F05F82460078002715468B460AF19A
:101360000104B946302801D09DB113E014F8010BF7
:101370000127782803D0582801D045B10AE00DB1E3
:10138000102D07D10027102514F8010B02E00825C5
:1013900000E00A250026B0460EE005FB080005FB2C
:1013A00006F1012701EB10461FFA80F8B6F5803FE1
:1013B00000D3B94614F8010B294600F018F80028AC
:1013C000EBDABBF1000F05D00FB1641E00E054460C
:1013D000CBF80040B9F1000F06D005F0F3FD022173
:1013E0000160C81EBDE8F09F48EA0640FAE73A28C7
:1013F00000D2303820F02002412A01D3A2F1370078
:10140000884201D34FF0FF30704770B58C1810F848
:10141000015B15F0070301D110F8013B2A1106D139
:1014200010F8012B03E010F8016B01F8016B5B1E53
:10143000F9D12B0705D40023521E0DD401F8013B2E
:10144000FAE710F8013BCB1A921C03E013F8015B9A
:1014500001F8015B521EF9D5A142D8D3002070BD1E
:1014600000BFFEE700B58DB04CF2C201104808F095
:1014700061FA01281AD14CF2C2010D4808F052FA63
:1014800008AA00210A4808F08FFA03A801900C98D6
:10149000009008A80FC808F0D1F9DDE90601CDE9F0
:1014A0000001002003A90EC908F0EEF90DB000BD3F
:1014B000006400407047000000B58DB04CF2C201DE
:1014C000104808F037FA01281AD14CF2C2010E4830
:1014D00008F028FA08AA00210A4808F065FA03A8CB
:1014E00001900C98009008A80FC808F0A7F9DDE952
:1014F0000601CDE90001012003A90EC908F0C4F9D5
:101500000DB000BD006800400064004010B5214CE3
:1015100020220721204808F054FE002838D020223D
:1015200007211D4808F02EFE07211B4808F0F0FC9B
:1015300040F2063119480FF0C9FBA078002802DDFF
:10154000A078401EA07060780A2801DB002060703F
:10155000A07800281CDD6378E01CC25C184603EB11
:10156000C00303EB001304F10D0000EB83010C48F2
:10157000FEF738FE6178E01C425C0721064808F05F
:10158000E6FF6078401C60700721034808F0D0FC3B
:1015900010BD00000C2900200060024000500040F7
:1015A000A826002030B503460C4600219818B0F557
:1015B000004F01D9002030BD002107E034F8115060
:1015C0005818400000F1C8400580491C9142F5D3ED
:1015D0000120F0E7704710B5002000F047F810BD7B
:1015E00010B50A2000F042F80B2000F03FF80C2064
:1015F00000F03CF80D2000F039F80E2000F036F82D
:101600000F2000F033F810BD10B5012000F02EF8C7
:1016100010BD10B5022000F029F810BD10B5032050
:1016200000F024F810BD10B5042000F01FF810BD24
:1016300010B5052000F01AF8062000F017F8072072
:1016400000F014F8082000F011F8092000F00EF85E
:1016500010BD08B5024612B94FF0C04001E04FF08E
:10166000C8400090009830F8110008BD70B50446DD
:10167000012101FA04F009F0D3F9A0B125460A4886
:1016800000EB0510406840B1074A02EB0512906874
:10169000054A02EB05125168884700BF012101FA93
:1016A00004F009F0B7F970BD1404002070B50446C9
:1016B0000D46194800780A282AD2DFE800F02905EB
:1016C000090D1115191D212520460AF059FF20E0AA
:1016D00020460AF0BBFD1CE020460BF095F818E010
:1016E00020460BF0FDF814E020460AF04DFE10E015
:1016F00020460AF011FB0CE020460AF00FFC08E03F
:1017000020460BF019F804E020460AF05FF900E0EB
:1017100000BF00BF70BD000005040020024600208D
:101720001378232B01D1012003E01378242B00D15F
:101730000220704710B504460622214659A0FEF744
:10174000B0FD58B10622214658A0FEF7AAFD28B1E7
:101750000622214657A0FEF7A4FD48B95748007855
:1017600040F001005549087001205549087096E085
:101770000622214653A0FEF794FD88B10622214699
:1017800052A0FEF78EFD58B10622214651A0FEF769
:1017900088FD28B10622214650A0FEF782FD18B927
:1017A0000220474908707AE0062221464DA0FEF744
:1017B00078FD58B1062221464CA0FEF772FD28B1F3
:1017C000062221464BA0FEF76CFD18B903203C49C8
:1017D000087064E00622214648A0FEF762FD58B179
:1017E0000622214647A0FEF75CFD28B106222146CD
:1017F00046A0FEF756FD48B93048007840F0020098
:101800002E49087004202E49087048E0092221461C
:1018100040A0FEF746FD48B92848007840F0040093
:101820002649087005202649087038E0092221461B
:101830003BA0FEF736FD18B90620214908702EE0BE
:101840000922214639A0FEF72CFD18B907201C49B2
:10185000087024E00622214637A0FEF722FD58B189
:101860000622214636A0FEF71CFD28B1062221469D
:1018700035A0FEF716FD18B90820114908700EE0D2
:101880000722214632A0FEF70CFD40B90B48007834
:1018900040F0080009490870092009490870084803
:1018A000007810BD24474E524D430000244750524B
:1018B0004D43000024474C524D4300000C040020CF
:1018C0000504002024474E47474100002447504765
:1018D0004741000024474C47474100002442444709
:1018E0004741000024474E565447000024475056B5
:1018F0005447000024474C565447000024474E5A92
:10190000444100002447505A4441000024474C5AA7
:10191000444100002348454144494E4741000000EE
:101920002342455354504F53410000002342455336
:101930005456454C4100000024474E54524100008B
:10194000244750545241000024474C545241000057
:10195000234147524943410002469FED090B82ED66
:10196000000B9FED070B82ED020B9FED050B82ED47
:10197000040B9FED050A82ED060A00207047000067
:1019800000000000000000000000000070B50446E8
:101990000D462E468C208059206096ED240A84ED59
:1019A000010A96ED1D0A84ED020A96ED1E0A84EDE9
:1019B000030A96ED1F0A84ED040A96ED1B0A84EDD6
:1019C000050A96ED190A84ED060A96ED1C0A84EDC7
:1019D000070A96ED250A84ED080A96ED260A84ED9D
:1019E000090A96ED270A84ED0A0A96ED200A84ED8D
:1019F0000B0A5C20805D2063A0208059A06396EDD7
:101A0000160A10EE101A0846FFF750F8C4E9100144
:101A1000012084F8480096ED2B0A10EE101A0846B3
:101A2000FFF744F8C4E9140196ED2A0A10EE101AE3
:101A30000846FFF73BF8C4E9160196ED2C0A10EEB4
:101A4000101A0846FFF732F8C4E9180196ED2E0B7C
:101A500084ED1E0B96ED300B84ED200B96ED320BD2
:101A600084ED1E0B96ED340B84ED200B96ED360BBA
:101A700084ED220B0120C4F89000002070BD00000E
:101A800010B502460B4692ED020B82ED140B92ED5F
:101A9000040B82ED160B92ED060B82ED180B92ED06
:101AA000080B82ED1A0B92ED0A0B82ED1C0B92EDE6
:101AB0000C0B82ED1E0B93ED080B82ED020B93EDE8
:101AC0000A0B82ED040B93ED0C0B82ED060B93EDEC
:101AD000020B82ED080B93ED040B82ED0A0B93EDE4
:101AE000060B82ED0C0B0120014C2070002010BD74
:101AF000502E00202DE9FF5F2DED020B2DED048B04
:101B000092B083460C461546B0EE408AF0EE608AED
:101B100077A304224FF47C7179A00BF025FB94EDA0
:101B2000050A10EE101A0846FEF7C0FF41EC190B2B
:101B30009FED7B0B53EC102BFEF781FECDE90C01E2
:101B400094ED060A10EE101A0846FEF7AFFF41ECBE
:101B5000190B9FED730B53EC102BFEF770FECDE9C4
:101B60000E0194ED070A10EE101A0846FEF79EFFCC
:101B7000CDE9100194ED080A10EE101A0846FEF7A0
:101B800095FFCDE9060194ED090A10EE101A0846FA
:101B9000FEF78CFFCDE9080194ED0A0A10EE101A49
:101BA0000846FEF783FFCDE90A015F48D0F86409D3
:101BB000022802D10F27072601E00F27062631460B
:101BC00038460FF023F98146314638460FF01EF9AA
:101BD0008246012130460FF019F98046B9F1000F15
:101BE00005D0BAF1000F02D0B8F1000F16D14FA303
:101BF000012240F2064142A00BF0B6FA484609F035
:101C0000A9FC504609F0A6FC404609F0A3FC0020C0
:101C100012B0BDEC048B06B0BDE8F09F94ED020A53
:101C200010EE101A0846FEF741FF41EC190BB0EE1A
:101C3000481AF0EE681ACDE90289CDE90076B0EED7
:101C4000490AF0EE690A0CAA06A958461B9B02F045
:101C50000BFF3AA3042240F20D4129A00BF084FAB5
:101C60003B464A4605F170014046CDE9006803F065
:101C700043F9012801D00020CAE736A3042240F22C
:101C800015411FA00BF070FA5246314605F53E6033
:101C900003F09EF833A305F53E623146384603F063
:101CA00033FC05F5416005F1700143464A46CDE934
:101CB00000A7CDE902610490014605F1700002F031
:101CC000D7FB012801D00020A2E72BA3042240F279
:101CD00029410BA00BF048FA484609F03BFC50465E
:101CE00009F038FC404609F035FC012090E700007F
:101CF000476E7373496E73467573696F6E000000AB
:101D00002E2E5C2E2E5C7372635C616C676F726941
:101D100074686D5C496E6176696E732E63000000B5
:101D2000399D52A246DF913F904B0020486B2C52C8
:101D30006B2C5A6B206661696C00000061667465EB
:101D400072204C6576657261726D54696D65436F82
:101D5000727200006166746572204D656173526530
:101D600073700000476E7373496E73467573696FC5
:101D70006E2D526B000000006166746572204B6628
:101D80004D656173557064617465000000BFFEE7C6
:101D90009FED220B80ED080B80ED060B80ED040B10
:101DA00080ED000B80ED020B9FED1E0B80ED240BF0
:101DB000002130E09FED190B00F1980202EBC10207
:101DC00082ED000B00F1B00202EBC10282ED000BCC
:101DD00000F1600202EBC10282ED000B00F178021B
:101DE00002EBC10282ED000B00F1300202EBC102F6
:101DF00082ED000B00F1480202EBC10282ED000B04
:101E0000022907D19FED070B00F1980202EBC102F6
:101E100082ED000B491C0329CCDB70470000000059
:101E20000000000069B696FD868F234010B502467B
:101E3000002010E000210BE09FED080BC0EB001329
:101E40005C1802F5FE6303EBC40383ED000B491C31
:101E50000F29F1DB401C0628ECDB10BD0000000060
:101E60000000000010B50246002002F1700303EBF1
:101E7000C10383ED000B00BF36E0814204D1B0EE18
:101E8000413AF0EE613A01E09FED193BC1EB0113DD
:101E90001C1802F5416303EBC40383ED003BC0EB68
:101EA00000135C1802F5416303EBC40383ED003BB0
:101EB000814204D1B0EE423AF0EE623A01E09FED89
:101EC0000C3BC1EB01131C1802F1E80303EBC40344
:101ED00083ED003BC0EB00135C1802F1E80303EB59
:101EE000C40383ED003B401C0F28C6DB10BD00007F
:101EF000000000000000000010B520210848FEF797
:101F00008AF99FED080B064880ED000B9FED070B4B
:101F100080ED020B9FED070B80ED040B10BD000060
:101F2000F8540020AF25E4839ECDDABF45D8F0F405
:101F30004A59C6BFF2D24D621058B9BF10B54FF41E
:101F4000EA511048FEF767F90E4890ED360B80ED28
:101F5000480B90ED380B80ED4A0B90ED3A0B80ED7D
:101F60004C0B90ED3C0B80ED4E0B90ED3E0B80ED5D
:101F7000500B90ED400B80ED520B02200149087090
:101F800010BD0000502E002010B540F66811044826
:101F9000FEF741F94FF0FF300149C1F8640910BD67
:101FA000904B002070B52DED048B05460E4614466F
:101FB0009FED170BB0EE408AF0EE608A1DE006EB55
:101FC000C40090ED002BB0EE420AF0EE620A05EB81
:101FD000C40090ED002BB0EE421AF0EE621A53EC02
:101FE000102B51EC110BFEF72AFC41EC190B53ECB2
:101FF000182BFEF77DFB41EC180B601E041EDEDA89
:10200000B0EE480AF0EE680ABDEC048B70BD00002B
:1020100000000000000000002DE9F0472DED048BCA
:1020200086B00446B0EE408AF0EE608A88461646D6
:102030009A46129F89A30422C5218AA00BF094F826
:1020400084ED008B94ED000B84ED020B96ED080AF5
:1020500010EE101A0846FEF729FDC4E9180196EDA6
:10206000090A10EE101A0846FEF720FDC4E91A010D
:1020700096ED0A0A10EE101A0846FEF717FDC4E99D
:102080001C0196ED050A10EE101A0846FEF70EFD2B
:1020900041EC190B9FED7B0B53EC102BFEF7CFFBA4
:1020A000C4E91E0196ED060A10EE101A0846FEF766
:1020B000FDFC41EC190B9FED730B53EC102BFEF75D
:1020C000BEFB04F17802C2E9020196ED070A10EEA8
:1020D000101A0846FEF7EAFC04F17802C2E904018E
:1020E000002538E008EBC50090ED000B04F110006E
:1020F00000EBC50080ED000B032D2BDA9FED630B89
:1021000004F5A87000EBC50080ED000B04F59C7091
:1021100000EBC50080ED000B04F5907000EBC500EE
:1021200080ED000B04F5847000EBC50080ED000B22
:1021300004F1F00000EBC50080ED000B04F1D800C5
:1021400000EBC50080ED000B04F1C00000EBC50002
:1021500080ED000B6D1C042DC4DB002514E04FF056
:1021600000090DE09FED490B05EB450000EB09016F
:1021700004F5B47000EBC10080ED000B09F101091A
:10218000B9F1030FEEDB6D1C032DE8DB07F108004E
:10219000FFF7FEFD04F1780204F1600107F1080089
:1021A00004F04CF897ED0C1BB0EE410AF0EE610A1A
:1021B00053EC102B9FED371B51EC110BFEF7B1FBCD
:1021C00004F5B472C2E9020197ED081BB0EE410AB2
:1021D000F0EE610A53EC102B9FED2E1B51EC110B0E
:1021E000FEF79FFB04F5B472C2E906019FED290BCF
:1021F00084ED6A0B94ED220B8DED040B94ED200B16
:102200008DED020B94ED1E0B8DED000B23A304222C
:10221000DF2114A00AF0A8FF04F17800534602461B
:1022200004F5B4710090404602F0DCFB94ED220B03
:102230008DED040B94ED200B8DED020B94ED1E0B38
:102240008DED000B20A30422E12106A00AF08CFFF3
:1022500006B0BDEC048BBDE8F0870000496E734901
:102260006E6974002E2E5C2E2E5C7372635C616C42
:10227000676F726974686D5C496E6176696E732E02
:1022800063000000399D52A246DF913F000000002C
:1022900000000000000000000000F03F6265666F73
:1022A0007265204C65766572202C696E732D3E70C8
:1022B0006F733D5B252E37662C20252E37662C2527
:1022C0002E37665D000000006166746572204C6503
:1022D000766572202C696E732D3E706F733D5B25A1
:1022E0002E37662C20252E37662C252E37665D006E
:1022F000F0B52DED068BF9B007460C46164694ED69
:10230000020B8DED760BF8A3042240F29B11F9A08D
:102310000AF02AFF70A976AA07F108009FEDFD1BBD
:102320009FEDFE0B0123CDE9012100901A46032108
:10233000FCA00BF043FB6AA976AA07F120009FEDF1
:10234000F51B9FEDF90B0123CDE9012100901A4601
:102350000321F4A00BF032FB9DED760B51EC100B3A
:1023600081F0004141EC180B64A8B0EE480AF0EE91
:10237000680A0123032204F1C001009070A80BF049
:1023800049FC9DED760B51EC100B81F0004141ECC6
:10239000180B5EA8B0EE480AF0EE680A012303228B
:1023A00004F1D80100906AA80BF034FC9FEDE00B1B
:1023B00053EC102B9DED760B51EC100BFEF7B1FAA0
:1023C00041EC180B58A8B0EE480AF0EE680A012359
:1023D000032204F1F001009004F160000BF01AFCFC
:1023E0004CA958AA04F5B4709FEDCA1B9FEDD20BFF
:1023F0000323CDE90121009001221946C9A00BF069
:10240000DDFA9FEDCB0B53EC102B9DED760B51ECD1
:10241000100BFEF786FA41EC180B52A8B0EE480AF2
:10242000F0EE680A012303224CA9009004F1780021
:102430000BF0F0FB52AA58A906F1080003F0FEFECB
:1024400000252AE064A800EBC50090ED001BB0EE6B
:10245000410AF0EE610A9DED761B53EC112B51EC15
:10246000100BFEF75EFA3AAA02EBC50203C25EA8A1
:1024700000EBC50090ED001BB0EE410AF0EE610AE2
:102480009DED761B53EC112B51EC100BFEF749FA26
:1024900034AA02EBC50203C26D1C032DD2DB0AA9CC
:1024A00004F110000BF060FD2EA906F138000AAA15
:1024B0009FED981B9FEDA00B0323CDE90020029117
:1024C000012219469EA00BF079FA04F59C709FED4D
:1024D0009D0B012303222EA900903AA80BF09AFB32
:1024E00028A906F168000AAA9FED8A1B9FED920BAE
:1024F0000323CDE9002002910122194690A00BF0A0
:102500005DFA04F5A8709FED8F0B0123032228A923
:1025100000903AA80BF07EFB04F5907234A904F108
:1025200010000BF005FF002524E09DED760B51EC2B
:10253000100B81F0004141EC190B9FED7D0B53EC2A
:10254000102BFEF7EEF941EC180B06F1680000EBDA
:10255000C50090ED001BB0EE410AF0EE610A53ECAD
:10256000102B51EC180BFEF76AF922AA02EBC502F8
:1025700003C26D1C032DD8DB1CAA04F5907122A8A0
:102580000CF046FE04F1F0009FED6B0B01230322DB
:1025900006F1B80100901CA80BF03CFB002516E0EA
:1025A00004F1F00000EBC50090ED001BB0EE410A15
:1025B000F0EE610A9DED761B53EC112B51EC100BE4
:1025C000FEF73DF940AA02EBC50203C26D1C032DC4
:1025D000E6DB46A89FED580B0123032240A900909B
:1025E00004F160000BF016FB96ED081BB0EE410AFB
:1025F000F0EE610A53EC102B9FED4F1B51EC110BC9
:10260000FEF78FF904F5B472C2E9060196ED0C1BD2
:10261000B0EE410AF0EE610A53EC102B9FED461B21
:1026200051EC110BFEF77DF904F5B472C2E9020119
:102630009FED3F0B53EC102B9DED760B51EC100BE7
:10264000FEF76FF941EC180B9DED482BB0EE420AF6
:10265000F0EE620A94ED1A2BB0EE421AF0EE621A16
:1026600053EC102B51EC110BFEF742F841EC1A0B16
:1026700096ED081BB0EE410AF0EE610A53EC102B08
:10268000FEF74FF941EC190B53EC182BFEF7D7F876
:10269000CDE904019FED260B53EC102B9DED760B3D
:1026A00051EC100BFEF73DF941EC180B9DED462B5C
:1026B000B0EE420AF0EE620A94ED182BB0EE421A28
:1026C000F0EE621A53EC102B51EC110BFEF710F8E0
:1026D00041EC1A0B96ED0C1BB0EE410AF0EE610ACC
:1026E00053EC102B32E00000496E73557064617436
:1026F000650000002E2E5C2E2E5C7372635C616C94
:10270000676F726974686D5C496E6176696E732E6D
:10271000630000000000000000000000399D52A28C
:1027200046DF913F4E4E000069B696FD868F2340EE
:102730000000000000000040000000000000F03F2A
:10274000544E0000000000000000F0BFFEF7E9F862
:1027500041EC190B53EC182BFEF771F8CDE906018B
:102760001FED0D0B53EC102B9DED760B51EC100B68
:10277000FEF7D7F841EC180B9DED4A2BB0EE420A5C
:10278000F0EE620A94ED1C2BB0EE421AF0EE621AE3
:1027900053EC102B51EC110BFDF7AAFF41EC190B78
:1027A00053EC182BFEF74BF8CDE9080104F1780043
:1027B0001FED1F0B0123032204A900900BF02AFA3E
:1027C00000250BE046A800EBC50090ED000B04F1DE
:1027D000600000EBC50080ED000B6D1C032DF1DBEC
:1027E000002516E006F1680000EBC50090ED001B27
:1027F000B0EE410AF0EE610A9DED761B53EC112B11
:1028000051EC100BFEF71BF822AA02EBC50203C223
:102810006D1C032DE6DB22AA64A904F1100004F06C
:1028200077F904F1300104F110000BF0B9FF06A3B1
:1028300004224FF4E371AFF244100AF095FC79B032
:10284000BDEC068BF0BD0000416674657220496ED8
:10285000735570646174650010B52DED028B82B004
:102860007148007871A3042240F23651009076A09E
:102870000AF07AFC6C48007806287DD2DFE800F088
:102880000304081127C1CAE0022067490870C6E0A6
:102890007548D0F89000012802D1032062490870E1
:1028A000BDE07149604803F05DF85F486F4B6E4AC8
:1028B0006F499FED700B0090A1F11000FFF7ACFB8A
:1028C0006E4801F06DFC042057490870A7E0564A95
:1028D0006749103902F1D000FFF70AFD524A6849F2
:1028E000A1F5E47000F0E8FA01287DD1654B644A57
:1028F000D83AA2F19001614880380DF07FFB614821
:10290000D0F8640960A3042240F2645100904EA004
:102910000AF02AFC5B48D0F8640901281CD0524810
:10292000806B042818D1504890ED020A10EE101A5E
:102930000846FEF7BBF841EC180B9FED5A0B53EC21
:10294000102BFDF77CFF4A4A103AC2E910014849B2
:1029500001F1200006F0CEFD01229FED460B484913
:10296000464801F0F3FE012841D13F4890ED010AAD
:1029700010EE101A084600E046E0FEF797F841EC2A
:10298000180B294890ED341BB0EE410AF0EE610AB5
:10299000B0EE481AF0EE681A07F062FA434880ED8C
:1029A0004E0B90ED4E0B8DED000B41A3042240F237
:1029B000755125A00AF0D8FB2B48806B20B12A491D
:1029C0002E4803F061FE02E02C4804F059F8374825
:1029D00090ED4E1BB0EE410AF0EE610A234B274A00
:1029E0002149A0F5F36000E001E0FFF783F82049FA
:1029F0001039224800F086F802F03AFC02F0F0FAB2
:102A00000DE003F0E1F80AE00748007807A301228F
:102A100040F2955100900CA00AF0A6FB00BF00BF49
:102A200002B0BDEC028B10BD502E0020675F4E41FE
:102A3000565F494E532E696E7353746174757320DB
:102A40003D202564000000002E2E5C2E2E5C73724B
:102A5000635C616C676F726974686D5C496E617606
:102A6000696E732E63000000B82D0020F85400201A
:102A7000C84200207B14AE47E17A843FA02F00209B
:102A800080440020904B0020675F535441544943D9
:102A90005F444554454354494F4E2E7374617465E9
:102AA0003D256400399D52A246DF913F504A0020E7
:102AB000675F4E41565F494E532E64743D252E3755
:102AC0006600000010B50A490A48FEF7D9FF084918
:102AD0000948FEF75BFF00210848FEF73DFFFFF7BE
:102AE000BBFE054A0349D039054802F0FDFD10BD83
:102AF00098240020202F0020B82D0020F85400201A
:102B00007825002070B52DED028B86B006460D4667
:102B1000D8A3042240F23541D9A00AF025FB0024B5
:102B200083E106F1700000EBC40090ED002BB0EEE5
:102B3000420AF0EE620A95ED022BB0EE421AF0EE78
:102B4000621A53EC102B51EC110BFDF778FE6A461C
:102B500002EBC40203C295ED021BB0EE410AF0EE97
:102B6000610A53EC102B9FEDCE1B51EC110BFDF7BE
:102B700060FE41EC180B06F1700000EBC40090ED14
:102B8000001BB0EE410AF0EE610A53EC102B51EC41
:102B9000180BFDF754FE0A46014606F1700000EBE3
:102BA000C40006C006F17000E11C00EBC10090ED0E
:102BB000002BB0EE420AF0EE620A05F1600000EB75
:102BC000C40090ED002BB0EE421AF0EE621A53EC06
:102BD000102B51EC110BFDF72CFE05F1600202EBFE
:102BE000C40203C29FEDB00B06F17000E11C00EBC4
:102BF000C10080ED000BE01CC0EB00102044C01CA5
:102C000006F5416101EBC00090ED001BB0EE410AFA
:102C1000F0EE610A05F0FCFAB0EE408AF0EE608A50
:102C20009FEDA30B53EC102B51EC180BFDF707FE97
:102C30000A46014605F1900000EBC40006C006F10B
:102C40007000A11D00EBC10090ED002BB0EE420A18
:102C5000F0EE620A05F1780000EBC40090ED002B65
:102C6000B0EE421AF0EE621A53EC102B51EC110B3D
:102C7000FDF7DFFD0A46014605F1780000EBC400D0
:102C800006C09FED890B06F17000A11D00EBC1008D
:102C900080ED000BA01DC0EB00102044801D06F548
:102CA000416101EBC00090ED001BB0EE410AF0EE77
:102CB000610A05F0ADFA05F1A80000EBC40080ED53
:102CC000000B06F1700004F1090100EBC10090ED6A
:102CD000002BB0EE420AF0EE620A95ED022BB0EE48
:102CE000421AF0EE621A53EC102B51EC110BFDF767
:102CF000A6FD41EC180B05F1C00000EBC40090EDFF
:102D0000001BB0EE410AF0EE610A53EC102B51ECBF
:102D1000180BFDF7EDFC0A46014605F1C00000EB7B
:102D2000C40006C095ED021BB0EE410AF0EE610A48
:102D300053EC102B9FED5A1B51EC110BFDF779FD55
:102D400041EC180B06F1700004F1090100EBC10021
:102D500090ED001BB0EE410AF0EE610A53EC102B2F
:102D600051EC180BFDF76BFD06F1700204F109033D
:102D700002EBC30203C206F17000D91C00EBC100D4
:102D800090ED002BB0EE420AF0EE620A95ED022BB8
:102D9000B0EE421AF0EE621A53EC102B51EC110B0C
:102DA000FDF74DFD41EC180B05F1D80000EBC40018
:102DB00090ED001BB0EE410AF0EE610A53EC102BCF
:102DC00051EC180BFDF794FC0A46014605F1D800BA
:102DD00000EBC40006C095ED021BB0EE410AF0EE18
:102DE000610A53EC102B9FED2E1B51EC110BFDF7DC
:102DF00020FD41EC180B06F1700004F10C0100EB12
:102E0000C10090ED001BB0EE410AF0EE610A53ECF8
:102E1000102B51EC180BFDF712FD06F1700204F1B6
:102E20000C0302EBC30203C2641C032CFFF679AE51
:102E300005F11002694610460BF040FA05F1300129
:102E400005F110000BF0ACFC00240CE005F13000A3
:102E500000EBC40090ED000B05F1480000EBC4004E
:102E600080ED000B641C032CF0DB06B0BDEC028B84
:102E700070BD00004B66466565646261636B00006F
:102E80002E2E5C2E2E5C7372635C616C676F7269B0
:102E900074686D5C496E6176696E732E6300000024
:102EA000000000000000F03F0000000000000000F3
:102EB00000000000000059402DE9F74F2DED108B68
:102EC000A4B0824617460F2108460DF09FFF064624
:102ED00097ED060BB0EE409AF0EE609A97ED041B6A
:102EE000B0EE410AF0EE610A53EC102B9FEDFE1B91
:102EF00051EC110BFDF715FD41EC1C0B97ED081B78
:102F0000B0EE410AF0EE610A53EC102B9FEDF61B78
:102F100051EC110BFDF705FD41EC1A0B97ED0A1B67
:102F2000B0EE410AF0EE610A53EC102B9FEDEE1B60
:102F300051EC110BFDF7F5FC41EC180B97ED0C1B58
:102F4000B0EE410AF0EE610A53EC102B9FEDE61B48
:102F500051EC110BFDF7E5FCCDE9220153EC1A2BE6
:102F600051EC1A0BFDF76BFCCDE9200153EC182B4B
:102F700051EC180BFDF763FCCDE91E0100240BE0BA
:102F80000AF1600000EBC40090ED000B18A800EB04
:102F9000C40080ED000B641C032CF1DB9DED181BBD
:102FA000B0EE410AF0EE610A9DED221B53EC112BAD
:102FB00051EC100BFDF743FC41EC1D0B9DED181B74
:102FC000B0EE410AF0EE610A9DED1E1B53EC112B91
:102FD00051EC100BFDF733FC41EC1B0B9DED1A1B64
:102FE000B0EE410AF0EE610A9DED201B53EC112B6F
:102FF00051EC100BFDF723FC41EC1E0B01210320CB
:103000000DF004FF1590002412E007F1680000EBBA
:10301000C40090ED001BB0EE410AF0EE610A51ECE5
:10302000100B81F00041159A02EBC40203C2641C2C
:10303000032CEADB032108460DF0E8FE149003217F
:1030400008460DF0E3FE8046032108460DF0DEFE43
:103050001390032108460DF0D9FE12900321084673
:103060000DF0D4FE8346032108460DF0CFFE8146C5
:10307000032108460DF0CAFE1190032108460DF009
:10308000C5FE1090032108460DF0C0FE0F900321ED
:1030900008460DF0BBFE0E90032108460DF0B6FE6B
:1030A0000D90032108460DF0B1FE0C900321084657
:1030B0000DF0ACFE0B90032108460DF0A7FE0A9020
:1030C000032108460DF0A2FE09900F2007F0BAFC7C
:1030D000089087A3042240F2DF1187A00AF044F889
:1030E0002EB3159818B3149808B3B8F1000F1ED07A
:1030F0001398E0B11298D0B1BBF1000F17D0B9F11D
:10310000000F14D0119890B1109880B10F9870B141
:103110000E9860B10D9850B10C9840B10B9830B139
:103120000A9820B1099810B10898002842D17AA3D2
:1031300001224FF4F37170A00AF016F8304608F03F
:1031400009FA159808F006FA149808F003FA4046B0
:1031500008F000FA139808F0FDF9129808F0FAF94F
:10316000584608F0F7F9484608F0F4F9119808F0C5
:10317000F1F9109808F0EEF90F9808F0EBF90E98B5
:1031800008F0E8F90D9808F0E5F90C9808F0E2F974
:103190000B9808F0DFF90A9808F0DCF9099808F0B4
:1031A000D9F9089808F0D6F9002024B0BDEC108BAE
:1031B000BDE8FE8F97ED121BB0EE410AF0EE610AFA
:1031C00051EC100B81F000410D9AC2E9020197ED1C
:1031D000100B0D9880ED040B53EC1C2B51EC1D0BC8
:1031E000FDF72DFB0C9AC2E904010C9880ED0CEB65
:1031F00051EC1B0B81F000410C9AC2E90E0151EC1D
:103200001B0B81F0004141EC1F0B53EC192BFDF718
:1032100016FB0C9AC2E9100118A80B9906F01EF9CA
:1032200007F180000A9906F019F9DDE9141006F09B
:1032300015F988ED028B53EC192B51EC180BFDF7A7
:10324000FEFAC8E9040151EC1A0B81F00041C8E90B
:10325000060113989FED240B03231A460090DDE925
:103260000C100AF0D7FC0AF59070129906F0F6F8E7
:103270000B990F989FED2B1B9FED1B0B03231A46F9
:10328000CDE900180290194628A00AF097FB9FED9F
:10329000280B03231A46CDF800B00A990F980AF0BC
:1032A000B9FC0E989FED100B03231A46009013995A
:1032B0000D980AF0AFFC0E990B989FED1A1B9FED2D
:1032C0000A0B03231A468DE80302194617A00AF0D9
:1032D00075FB97ED042BB0EE420AF0EE620A97ED13
:1032E000022BB0EE421A27E0000000000000F03F81
:1032F0004B66466B000000002E2E5C2E2E5C737217
:10330000635C616C676F726974686D5C496E61764D
:10331000696E732E6300000050206973204E554C77
:103320004C00000000000000000000004E4E0000B5
:10333000000000000000F0BFF0EE621A53EC102B0A
:1033400051EC110BFDF77BFACDE9160197ED021B4D
:10335000B0EE410AF0EE610A53EC102B9FEDFE1B1C
:1033600051EC110BFDF76BFACDE9000197ED021B53
:10337000B0EE410AF0EE610A53EC102B9DED001BFC
:1033800051EC110BFDF75BFA41EC1F0B9FEDF40BB9
:1033900053EC102BFDF7ACF99FEDF30B53EC102B16
:1033A000CDE902019DED020B51EC100BFDF747FA40
:1033B000CDE904019DED160B53EC102B9DED040B94
:1033C00051EC100BFDF73BFACDE9060199ED041B1A
:1033D000B0EE410AF0EE610A53EC102B9DED061B96
:1033E00051EC110BFDF728FAC9E9040199ED101B06
:1033F000B0EE410AF0EE610A9FEDDD1B53EC112B9C
:1034000051EC100BFDF774F9C9E9100153EC192BBD
:1034100051EC1D0BFDF713FA109AC2E9020151ECB1
:103420001E0B81F00041109AC2E90C0151EC1B0BFC
:1034300081F0004141EC1F0B53EC1C2BFDF7FFF911
:10344000109AC2E90E010AF1100009990AF08CFDE8
:10345000C9A303210846139A02F056F8C9A34A46A5
:103460000321084602F050F8C9A303210846109A28
:1034700002F04AF8C9A303210846099A02F044F869
:10348000C9A303210846149A02F03EF8C9A30321F8
:103490000846129A02F038F8C9A3424603210846AA
:1034A00002F032F8C9A35A460321084602F02CF86C
:1034B000C9A303210846119A02F026F8C9A332468F
:1034C0000F21084602F020F800241FE2002519E22F
:1034D000032C38DA032D36DA24B1012C12D0022C59
:1034E00030D11FE005EB45000119149800EBC10035
:1034F00090ED000BC5EB0510204406EBC00080EDFD
:10350000000B1FE005EB45000119149800EBC1000A
:1035100090ED000BC5EB0510204406EBC00080EDDC
:10352000000B0FE005EB45000119149800EBC100FA
:1035300090ED000BC5EB0510204406EBC00080EDBC
:10354000000B00BFDDE1032C3EDB062C3CDA032D33
:103550003ADA032C04D0042C13D0052C33D121E00B
:10356000E01E05EB45010144129800EBC10090ED0F
:10357000000BC5EB0510204406EBC00080ED000BEE
:1035800021E0E01E05EB45010144129800EBC1006B
:1035900090ED000BC5EB0510204406EBC00080ED5C
:1035A000000B10E0E01E05EB45010144129800EB12
:1035B000C10090ED000BC5EB0510204406EBC000E8
:1035C00080ED000B00BF9CE1032C3ADA032D38DBC1
:1035D000062D36DA24B1012C12D0022C30D11FE096
:1035E000E81E00EB4000204408EBC00090ED000B0B
:1035F000C5EB0510204406EBC00080ED000B1FE07A
:10360000E81E00EB4000204408EBC00090ED000BEA
:10361000C5EB0510204406EBC00080ED000B0FE069
:10362000E81E00EB4000204408EBC00090ED000BCA
:10363000C5EB0510204406EBC00080ED000B00BF79
:103640005FE1032C40DB062C3EDA032D3CDB062D2C
:103650003ADA032C04D0042C13D0052C33D121E00A
:10366000E01EE91E01EB410108440BEBC00090EDA8
:10367000000BC5EB0510204406EBC00080ED000BED
:1036800021E0E01EE91E01EB410108440BEBC00004
:1036900090ED000BC5EB0510204406EBC00080ED5B
:1036A000000B10E0E01EE91E01EB410108440BEBAA
:1036B000C00090ED000BC5EB0510204406EBC000E8
:1036C00080ED000B00BF1CE1062C43DB092C41DA26
:1036D000032D3FDB062D3DDA062C04D0072C15D038
:1036E000082C12D125E0A01FE91E01EB4101014485
:1036F0000AF5B47000EBC10090ED000BC5EB0510AE
:10370000204406EBC00080ED000B76E0A01FE91E10
:1037100001EB410101440AF5B47000EBC10090EDEA
:10372000000BC5EB0510204406EBC00080ED000B3C
:1037300063E0A01FE91E01EB410101440AF5B470EA
:1037400000EBC10090ED000BC5EB0510204406EB2B
:10375000C0004FE052E000009F3D30EBF966183F9B
:103760003EF4B42EFB96853F69B696FD868F2340C6
:10377000D785107122E3C93E4B66466B2D4D6170B3
:10378000000000004B66466B2D4D76700000000077
:103790004B66466B2D4D7070000000004B66466B0B
:1037A0002D436E62000000004B66466B2D4D61613B
:1037B000000000004B66466B2D4D76610000000056
:1037C0004B66466B2D4D6176000000004B66466BE4
:1037D0002D4D7676000000004B66466B2D4D7076C1
:1037E000000000004B66466B2D4674206265666FD4
:1037F0007265000080ED000B00BF82E0032C14DA3C
:10380000062D12DB092D10DAA81F00EB400001196C
:10381000139800EBC10090ED000BC5EB05102044A0
:1038200006EBC00080ED000B6BE0032C16DB062CD2
:1038300014DA062D12DB092D10DAE01EA91F01EBA8
:103840004101084409EBC00090ED000BC5EB0510E9
:10385000204406EBC00080ED000B52E0062C17DB85
:10386000092C15DA062D13DB092D11DAA01FA91F6B
:1038700001EB41010144109800EBC10090ED000BF9
:10388000C5EB0510204406EBC00080ED000B38E0CE
:10389000032C1CDA092D1ADB0C2D18DAA5F109000E
:1038A00000EB40000119099800EBC10090ED001BEE
:1038B000B0EE410AF0EE610A51EC100B81F00041CC
:1038C000C5EB0512224406EBC20203C219E0032C29
:1038D00017DB062C15DA0C2D13DB0F2D11DAE01E89
:1038E000A5F10C0101EB41010144099800EBC10075
:1038F00090ED000BC5EB0510204406EBC00080EDF9
:10390000000B6D1C0F2DFFF6E3AD641C0F2CFFF6B2
:10391000DDAD35A332460F21084601F0F5FD96EDE9
:103920002C0B8DED000B32A3042240F24F21AFF29D
:10393000386009F019FC96EDD40B8DED000B33A324
:1039400004224FF41471AFF2506009F00DFC359869
:1039500000909AED021BB0EE410AF0EE610A0F23CF
:103960001A46314608980AF055F92FA30F21084648
:10397000359A01F0C9FD304607F0ECFD159807F0C7
:10398000E9FD149807F0E6FD404607F0E3FD1398C3
:1039900007F0E0FD129807F0DDFD584607F0DAFD6C
:1039A000484607F0D7FD119807F0D4FD109807F0AE
:1039B000D1FD0F9807F0CEFD0E9807F0CBFD0D98C6
:1039C00007F0C8FD0C9807F0C5FD0B9807F0C2FD85
:1039D0000A9807F0BFFD099807F0BCFD089807F0AA
:1039E000B9FD0120FFF7E1BB4B66466B2D46740025
:1039F0004B66466B2D46745B37202B2031202A20E6
:103A00004E415D3D252E3766000000004B66466B3B
:103A10002D46745B31202B2037202A204E415D3DFE
:103A2000252E3766000000004B66466B2D466B0066
:103A30002DE9F05F8046894693469A46DDE90A679C
:103A4000F948D0F86409022877D10025D4E1701E26
:103A5000A84273DD00249CE1062D0ADA032C08DA63
:103A60009FEDF20B04FB065007EBC00080ED000B4E
:103A70008EE1062D12DA032C10DB092C0EDAE01E83
:103A8000A84202D19FEDEB0B01E09FEDE80B04FB98
:103A9000065007EBC00080ED000B79E1062D0CDA33
:103AA000092C0ADB0F2C08DA9FEDE00B04FB065013
:103AB00007EBC00080ED000B6AE1032D79DA0F2CD3
:103AC00077DB122C75DABDBB0F2C04D0102C12D072
:103AD000112C30D11FE098ED001BB0EE410AF0EE42
:103AE000610A51EC100B81F0004104FB065207EB18
:103AF000C20203C21FE098ED061BB0EE410AF0EED1
:103B0000610A51EC100B81F0004104FB065207EBF7
:103B1000C20203C20FE098ED0C1BB0EE410AF0EEBA
:103B2000610A51EC100B81F0004104FB065207EBD7
:103B3000C20203C200BF2BE101E061E12DE1012DD2
:103B400038D10F2C04D0102C12D0112C30D11FE002
:103B500098ED021BB0EE410AF0EE610A51EC100B39
:103B600081F0004104FB065207EBC20203C21FE0D2
:103B700098ED081BB0EE410AF0EE610A51EC100B13
:103B800081F0004104FB065207EBC20203C20FE0C2
:103B900098ED0E1BB0EE410AF0EE610A51EC100BED
:103BA00081F0004104FB065207EBC20203C200BFD2
:103BB000EEE039E0022DBED10F2C04D0102C12D033
:103BC000112C30D11FE098ED041BB0EE410AF0EE4D
:103BD000610A51EC100B81F0004104FB065207EB27
:103BE000C20203C21FE098ED0A1BB0EE410AF0EEDC
:103BF000610A51EC100B81F0004104FB065207EB07
:103C0000C20203C20FE098ED101BB0EE410AF0EEC5
:103C1000610A51EC100B81F0004104FB065207EBE6
:103C2000C20203C200BFB3E0032D3CDB0F2C3ADB22
:103C3000122C38DA032D37D10F2C04D0102C12D0CF
:103C4000112C30D11FE099ED001BB0EE410AF0EECF
:103C5000610A51EC100B81F0004104FB065207EBA6
:103C6000C20203C21FE099ED061BB0EE410AF0EE5E
:103C7000610A51EC100B81F0004104FB065207EB86
:103C8000C20203C20FE099ED0C1BB0EE410AF0EE48
:103C9000610A51EC100B81F0004104FB065207EB66
:103CA000C20203C200BF73E0042D37D10F2C04D031
:103CB000102C12D0112C30D11FE099ED021BB0EE68
:103CC000410AF0EE610A51EC100B81F0004104FB57
:103CD000065207EBC20203C21FE099ED081BB0EECB
:103CE000410AF0EE610A51EC100B81F0004104FB37
:103CF000065207EBC20203C20FE099ED0E1BB0EEB5
:103D0000410AF0EE610A51EC100B81F0004104FB16
:103D1000065207EBC20203C200BF39E0052D37D1BE
:103D20000F2C04D0102C12D0112C30D11FE099EDA3
:103D3000041BB0EE410AF0EE610A51EC100B81F069
:103D4000004104FB065207EBC20203C21FE099EDDB
:103D50000A1BB0EE410AF0EE610A51EC100B81F043
:103D6000004104FB065207EBC20203C20FE099EDCB
:103D7000101BB0EE410AF0EE610A51EC100B81F01D
:103D8000004104FB065207EBC20203C200BF00BFA2
:103D9000641C5445FFF660AE2DE0002429E0092C98
:103DA00008D19BED000B04FB065007EBC00080ED33
:103DB000000B1DE00A2C08D19BED020B04FB065002
:103DC00007EBC00080ED000B12E00B2C08D19BED3F
:103DD000040B04FB065007EBC00080ED000B07E06E
:103DE0009FED120B04FB065007EBC00080ED000BAB
:103DF000641C5445D3DB6D1CB542FFF628AECCE104
:103E00000025C7E1B5427CDA0024A6E1062D15DACB
:103E1000032C13DA9FED050B04FB065007EBC000E3
:103E200080ED000B98E10000904B002000000000A6
:103E300000000000000000000000F03F062D12DA34
:103E4000032C10DB092C0EDAE01EA84202D11FED74
:103E5000070B01E01FED0B0B04FB065007EBC00046
:103E600080ED000B78E1062D0CDA092C0ADB0F2C13
:103E700008DA1FED120B04FB065007EBC00080EDC3
:103E8000000B69E1032D78DA0F2C76DB122C74DA43
:103E9000C5BB0F2C04D0102C12D0112C30D11FE038
:103EA00098ED001BB0EE410AF0EE610A51EC100BE8
:103EB00081F0004104FB065207EBC20203C21FE07F
:103EC00098ED061BB0EE410AF0EE610A51EC100BC2
:103ED00081F0004104FB065207EBC20203C20FE06F
:103EE00098ED0C1BB0EE410AF0EE610A51EC100B9C
:103EF00081F0004104FB065207EBC20203C200BF7F
:103F00002AE12EE1FFE7012D38D10F2C04D0102C2F
:103F100012D0112C30D11FE098ED021BB0EE410AF7
:103F2000F0EE610A51EC100B81F0004104FB0652E7
:103F300007EBC20203C21FE098ED081BB0EE410A76
:103F4000F0EE610A51EC100B81F0004104FB0652C7
:103F500007EBC20203C20FE098ED0E1BB0EE410A60
:103F6000F0EE610A51EC100B81F0004104FB0652A7
:103F700007EBC20203C200BFEEE039E0022D36D1EA
:103F80000F2C04D0102C12D0112C30D11FE098ED42
:103F9000041BB0EE410AF0EE610A51EC100B81F007
:103FA000004104FB065207EBC20203C21FE098ED7A
:103FB0000A1BB0EE410AF0EE610A51EC100B81F0E1
:103FC000004104FB065207EBC20203C20FE098ED6A
:103FD000101BB0EE410AF0EE610A51EC100B81F0BB
:103FE000004104FB065207EBC20203C200BFB3E06C
:103FF000032D3CDB0F2C3ADB122C38DA032D37D1A2
:104000000F2C04D0102C12D0112C30D11FE099EDC0
:10401000001BB0EE410AF0EE610A51EC100B81F08A
:10402000004104FB065207EBC20203C21FE099EDF8
:10403000061BB0EE410AF0EE610A51EC100B81F064
:10404000004104FB065207EBC20203C20FE099EDE8
:104050000C1BB0EE410AF0EE610A51EC100B81F03E
:10406000004104FB065207EBC20203C200BF73E02B
:10407000042D37D10F2C04D0102C12D0112C30D19C
:104080001FE099ED021BB0EE410AF0EE610A51EC1F
:10409000100B81F0004104FB065207EBC20203C281
:1040A0001FE099ED081BB0EE410AF0EE610A51ECF9
:1040B000100B81F0004104FB065207EBC20203C261
:1040C0000FE099ED0E1BB0EE410AF0EE610A51ECE3
:1040D000100B81F0004104FB065207EBC20203C241
:1040E00000BF39E0052D37D10F2C04D0102C12D091
:1040F000112C30D11FE099ED041BB0EE410AF0EE17
:10410000610A51EC100B81F0004104FB065207EBF1
:10411000C20203C21FE099ED0A1BB0EE410AF0EEA5
:10412000610A51EC100B81F0004104FB065207EBD1
:10413000C20203C20FE099ED101BB0EE410AF0EE8F
:10414000610A51EC100B81F0004104FB065207EBB1
:10415000C20203C200BF00BF641C5445FFF656AE46
:1041600017E0002413E0022C08D11FEDCE0B04FB56
:10417000065007EBC00080ED000B07E01FEDD50BEC
:1041800004FB065007EBC00080ED000B641C544597
:10419000E9DB6D1CB542FFF635AEBDE8F09F0000CF
:1041A00070B50546002485A30422EF2185A008F000
:1041B000DBFF00BF8DE0002C0CDB022C0ADA21466D
:1041C0009FED882B9FED891B9FED8A0B2846FDF7FD
:1041D00049FE7DE0022C0AD121469FED822B9FED06
:1041E000831B9FED840B2846FDF73CFE70E0032CFB
:1041F0000CDB052C0ADA21469FED802B9FED811BFD
:104200009FED7C0B2846FDF72DFE61E0052C0AD1C1
:1042100021469FED7A2B9FED7B1B9FED760B284669
:10422000FDF720FE54E0062C0CDB082C0ADA2146B0
:104230009FED762B9FED771B9FED6E0B2846FDF7CC
:1042400011FE45E0082C0AD121469FED742B9FED0D
:104250006D1B9FED680B2846FDF704FE38E0092C26
:104260000CDB0C2C0ADA21469FED622B9FED6D1BB7
:104270009FED600B2846FDF7F5FD29E00C2C0CDBCB
:104280000E2C0ADA21469FED5B2B9FED681B9FEDFC
:10429000590B2846FDF7E6FD1AE00E2C0AD12146FF
:1042A0009FED542B9FED611B9FED520B2846FDF7B0
:1042B000D9FD0DE00F2C0BDB122C09DA21469FED06
:1042C0004D2B9FED501B9FED4B0B2846FDF7CAFD74
:1042D000641C0F2CFFF66FAF56A305F541620F214A
:1042E000084601F011F9002429E0032C08DA9FEDBB
:1042F000520B05F53E6000EBC40080ED000B1DE0A5
:10430000052C08DA9FED4E0B05F53E6000EBC4006E
:1043100080ED000B12E0052C08D19FED4B0B05F54D
:104320003E6000EBC40080ED000B07E09FED480B02
:1043300005F53E6000EBC40080ED000B641C062C0C
:10434000D3DB2846FDF772FD9FED430B85ED1A0B7D
:104350009FED2C0B85ED180B00242CE005F53E603D
:1043600000EBC40090ED001BB0EE410AF0EE610AD4
:104370009FED3B1B53EC112B51EC100BFCF75FFA3C
:1043800005EBC40203C205F53E6000EBC40090EDEE
:10439000001BB0EE410AF0EE610A9FED331B53ECB7
:1043A000112B51EC100BFCF74AFA05F1300202EB2D
:1043B000C40203C2641C062CD0DB70BD4B66496E80
:1043C000697400002E2E5C2E2E5C7372635C616C2F
:1043D000676F726974686D5C496E6176696E732E81
:1043E0006300000050FDA543A15A603EB91F14DBD5
:1043F000A1F6333F00000000000000003BC29A839A
:10440000AD8A443E000000000000F03F32B4BBCE55
:104410003953983DB23525FB32AD1B3D00000000FD
:10442000000471400C6E9F88C3B6563E1A6A26CFB0
:104430004813193F500000008DEDB5A0F7C6D03EDF
:10444000E30D220787B6B13C0AD7A3703D0AB73FF8
:104450000000000000001640666666666666EE3F75
:1044600000000000000059407B14AE47E17A843F11
:104470002DE9FF4F8DB08B46DDE91B78414638466C
:104480000CF0C4FC0546414640460CF0BFFC064615
:10449000414638460CF0BAFC0446384606F0D2FADB
:1044A0000C90414640460CF0B1FC0B90414638461A
:1044B0000CF0ACFC8146394638460CF0A7FC82462D
:1044C000394638460CF0A2FC0A90394638460CF0C2
:1044D0009DFC0990394640460CF098FC08903946FE
:1044E00038460CF093FC0790394638460CF08EFCA9
:1044F0000690394638460CF089FC0590002004905F
:10450000C5B1BEB1B4B10C98A0B10B9890B1B9F1DE
:10451000000F0FD0BAF1000F0CD00A9850B10998D3
:1045200040B1089830B1079820B1069810B10598AD
:10453000002831D16EA3012240F2C1316FA008F0F2
:1045400013FE284607F006F8304607F003F8204629
:1045500007F000F80C9806F0FDFF0B9806F0FAFF44
:10456000484606F0F7FF504606F0F4FF0A9806F0BA
:10457000F1FF099806F0EEFF089806F0EBFF0798A8
:1045800006F0E8FF069806F0E5FF059806F0E2FF62
:10459000002011B0BDE8F08F60A3042240F2C731C3
:1045A00056A008F0E1FD4346424630461A9909F00C
:1045B00093F901233A460D991D9809F08DF90F984A
:1045C0009FED5A1B9FED5B0B3B4642463946CDE9BA
:1045D00000B0029559A009F0F1F90F989FED551B15
:1045E0009FED540B3B46424641468DE8610054A086
:1045F00009F0E4F94346424631460B9809F06CF95C
:104600004146304609F078F90490E8BB9FED471B1E
:104610009FED480B43464246394649A0CDE9005636
:10462000029409F0CBF91D9910989FED421B9FED64
:10463000410B43460122CDE900400291394640A09A
:1046400009F0BCF90B989FED391B9FED3A0B4346DF
:1046500042463946CDE90109009439A009F0AEF986
:104660009FED321B9FED330B43463A46394633A04C
:10467000CDE9014ACDF8009009F0A0F906989FED28
:10468000310B3B463A4600E004E051460090584664
:1046900009F0C0FA39461E9A06980BF0F7FD284635
:1046A00006F058FF304606F055FF204606F052FF50
:1046B0000C9806F04FFF0B9806F04CFF484606F0AA
:1046C00049FF504606F046FF0A9806F043FF099856
:1046D00006F040FF089806F03DFF079806F03AFF05
:1046E000069806F037FF059806F034FF012050E7E2
:1046F00050206973204E554C4C0000002E2E5C2E2D
:104700002E5C7372635C616C676F726974686D5C58
:10471000496E6176696E732E630000004B664D65CD
:104720006173557064617465000000000000000052
:1047300000000000000000000000F03F4E540000A8
:104740004E4E0000000000000000F0BF2DE9F047D1
:104750002DED068B84B004460D46B0EE408AF0EE97
:10476000608A924601210F200CF050FB80460F21F9
:1047700008460CF04BFB06460F2108460CF046FBA2
:1047800007460F2108460CF041FB81465AA304223C
:1047900040F262215CA008F0E7FCB8F1000F04D001
:1047A0001EB117B1B9F1000F18D15FA3012240F279
:1047B000652155A008F0D8FC404606F0CBFE3046F7
:1047C00006F0C8FE384606F0C5FE484606F0C2FEB2
:1047D000002004B0BDEC068BBDE8F08758A304F5BB
:1047E00041620F21084600F08FFE59A32A460F218F
:1047F000084600F089FE04F1700001469FED591B48
:104800009FED5A0B0F230122CDE90051029019466A
:1048100058A009F0D3F804F541609FED521B9FEDBD
:10482000530B0F231A461946CDE90106009551A0F6
:1048300009F0C4F850A332460F21084600F064FE88
:104840009FED481B9FED490B0F231A4619464FA0B9
:10485000CDE90157009609F0B1F84DA304F1E80243
:104860000F21084600F050FE5046FCF7C9F841EC15
:104870001A0B53EC182BFBF7E2FF41EC190B8DEDF3
:10488000009B48A304224FF41C711FA008F06CFC8D
:104890004BA33A460F21084600F036FE5046FCF77F
:1048A000AFF841EC1A0B53EC182BFBF7C8FF41ECA7
:1048B000190B04F54160B0EE490AF0EE690A0F23C6
:1048C0001A4604F1E8010090384609F0A3F941A323
:1048D00004F541620F21084600F016FE404606F03E
:1048E00039FE304606F036FE384606F033FE4846BE
:1048F00006F030FE01206CE74B6654696D6555701B
:1049000064617465000000002E2E5C2E2E5C7372B4
:10491000635C616C676F726974686D5C496E617627
:10492000696E732E63000000584B2C46502C465085
:10493000462C50786B5F74656D70206661696C0001
:104940004B6654696D65557064617465312D500016
:104950004B6654696D65557064617465312D466BA5
:104960000000000000000000000000000000000047
:104970000000F03F4E4E00004B6654696D65557067
:1049800064617465312D4650000000004E540000F3
:104990004B6654696D65557064617465312D516B5A
:1049A000000000004B6654696D6555706461746564
:1049B0002D6D202A206E74733D252E376600000071
:1049C0004B6654696D65557064617465322D46504F
:1049D000460000004B6654696D65557064617465EE
:1049E000322D50002DE9F041AEB007460C46154679
:1049F0001E46DDF8D0801CA9384609F0B5FA0AA891
:104A00001CA99FED141B9FED150B03231A46CDE93E
:104A100000410290194613A008F0D0FF04A80AA98B
:104A20009FED0C1B9FED0D0B03230122CDE900161A
:104A3000029019460BA008F0C1FF9FED080B01235F
:104A4000032204A92846CDF8008009F0E3F82EB02F
:104A5000BDE8F08100000000000000000000000040
:104A60000000F03F4E4E00002DE9F04F2DED088B79
:104A7000FDB0054688469146B0EE40BAF0EE60BA09
:104A80009B46B0EE418AF0EE618ADDF83CA2909F31
:104A90009FEDC90B8DED040B95ED0C1BB0EE410A9B
:104AA000F0EE610A02F0C4FEB0EE409AF0EE609AB9
:104AB00095ED0E1BB0EE410AF0EE610A03F044FBE7
:104AC000B0EE40AAF0EE60AA53EC192B51EC1A0B91
:104AD000FBF727FFCDE9060195ED0C1BB0EE410A6F
:104AE000F0EE610A02F0A4FEB0EE409AF0EE609A99
:104AF00095ED0E1BB0EE410AF0EE610A02F098FE51
:104B0000B0EE40AAF0EE60AA53EC192B51EC1A0B50
:104B1000FBF707FFCDE908016AA905F59C7004F0D1
:104B20009DFC46A905F1100009F01EFA58A86AA9D3
:104B300046AA9FEDA11B9FEDA20B0323CDE9002107
:104B400002901A461946A0A008F038FF34A946AAD8
:104B500005F5B4709FED981B9FED990B0323CDE9EC
:104B6000012100901A46194697A008F027FF2EAAA7
:104B700005F1600005F5B4719FED8F1B9FED900B63
:104B80000323CDE901020091012219468EA008F00D
:104B900015FF28A858A99FED881B9FED890B0323BB
:104BA0000122CDE9001B0290194687A008F006FFFC
:104BB0001CA89FED830B0123032228A9009005F177
:104BC000600009F027F851EC180B81F0004141EC2E
:104BD000190B16A8B0EE490AF0EE690A0123032268
:104BE00005F1F00100901CA809F014F822A834A9DE
:104BF0009FED711B9FED720B03230122CDE9001B7A
:104C00000290194670A008F0D9FE10A89FED6C0B19
:104C10000123032222A9009005F1780008F0FAFF91
:104C200051EC180B81F0004141EC190B0AA8B0EED1
:104C3000490AF0EE690A012303222EA9009010A868
:104C400008F0E8FF6148D0F86409022861D1002427
:104C500000263DE0032C1CDA08EBC40090ED002B8D
:104C6000B0EE420AF0EE620A16A800EBC40090ED26
:104C7000002BB0EE421AF0EE621A53EC102B51ECFE
:104C8000110BFBF7D6FD3246761C07EBC20203C2BE
:104C90001DE0E01E09EBC00090ED002BB0EE420AD3
:104CA000F0EE620AE01E0AA901EBC00090ED002BB5
:104CB000B0EE421AF0EE621A53EC102B51EC110BCD
:104CC000FBF7B7FD3246761C07EBC20203C2641C39
:104CD000062CBFDB95ED162BB0EE420AF0EE620A11
:104CE00095ED102BB0EE421AF0EE621A53EC102B39
:104CF00051EC110BFBF79DFD07EBC60203C2919827
:104D0000CDE900A004AA34A958A88E9BFEF790FE16
:104D10004DE0002400263FE0032C1CDA08EBC40021
:104D200090ED002BB0EE420AF0EE620A16A800EBFE
:104D3000C40090ED002BB0EE421AF0EE621A53EC74
:104D4000102B51EC110BFBF774FD3246761C07EB70
:104D5000C20203C21FE0062C1DDAE01E09EBC000F0
:104D600090ED002BB0EE420AF0EE620AE01E0AA9B6
:104D700001EBC00090ED002BB0EE421AF0EE621A8B
:104D800053EC102B51EC110BFBF753FD3246761C04
:104D900007EBC20203C2641C5445BDDB9198CDE908
:104DA00000A0002234A958A88E9BFEF741FE7DB0DA
:104DB000BDEC088BBDE8F08F000000000000000093
:104DC000000000000000F03F4E4E0000904B00201D
:104DD0002DE9F04180460E46174637A3042240F2E3
:104DE000893138A008F0C0F93E48D0F8640902289B
:104DF00030D000242BE0B44214DA00250FE0AC429E
:104E000004D108EBC40090ED000B01E09FED360BE0
:104E100005FB064007EBC00080ED000B6D1CB542A2
:104E2000EDDB13E000250FE0AC4204D108EBC40039
:104E300090ED000B01E09FED2C0B05FB064007EB0E
:104E4000C00080ED000B6D1CB542EDDB641CB4426C
:104E5000D1DB2EE000242AE0701EA04214DD0025E4
:104E60000FE0AC4204D108EBC40090ED000B01E070
:104E70009FED1D0B05FB064007EBC00080ED000B0E
:104E80006D1CB542EDDB11E000250DE0AC4202D116
:104E90009FED170B01E09FED140B05FB064007EBA0
:104EA000C00080ED000B6D1CB542EFDB641CB4420A
:104EB000D2DBBDE8F08100004D6174726978526BFD
:104EC000000000002E2E5C2E2E5C7372635C616C01
:104ED000676F726974686D5C496E6176696E732E76
:104EE00063000000904B0020000000000000000064
:104EF00050FDA543A15A603E2DE9FE4F80460E4667
:104F000017469946DDE90C5A012128460BF07EFF31
:104F1000044664B914A301224FF4587114A008F098
:104F200023F9204606F016FB0020BDE8FE8F9FED1A
:104F3000181B9FED190B4B460122294618A0CDE9FD
:104F40000076029408F03AFD9FED160B01232A46E5
:104F500021464046CDF800A008F05CFE204606F051
:104F6000F9FA0120E1E700004858206661696C0009
:104F70002E2E5C2E2E5C7372635C616C676F72699F
:104F800074686D5C496E6176696E732E6300000013
:104F90000000000000000000000000000000F03FE2
:104FA0004E4E0000000000000000F0BF00BFFEE712
:104FB0007047000010B5002807DA0A07140E054AEA
:104FC00000F00F031B1FD45403E00A07130E024A1C
:104FD000135410BD18ED00E000E400E0704700003D
:104FE00000B52DED068B87B06A4B042240F20D51BF
:104FF00069A008F0B9F87048806B70A3042240F2F1
:105000000E51009064A008F0AFF86B4890ED010AD3
:1050100010EE101A0846FBF749FD41EC180B8DED18
:10502000008B6AA3042240F20F515BA008F09CF8A9
:10503000614890ED040A10EE101A0846FBF736FDA1
:1050400041EC180B5C4890ED030A10EE101A08466C
:10505000FBF72CFD41EC190B574890ED020A10EEBE
:10506000101A0846FBF722FD41EC1A0B8DED048B5C
:105070008DED029B8DED00AB58A3042240F211513F
:1050800045A008F071F84C4890ED070A10EE101A90
:105090000846FBF70BFD41EC180B474890ED060A5C
:1050A00010EE101A0846FBF701FD41EC190B4248BF
:1050B00090ED050A10EE101A0846FBF7F7FC41ECDC
:1050C0001A0B8DED048B8DED029B8DED00AB4AA389
:1050D000042240F2125130A008F046F8364890ED14
:1050E0000A0A10EE101A0846FBF7E0FC41EC180B18
:1050F000314890ED090A10EE101A0846FBF7D6FC6D
:1051000041EC190B2C4890ED080A10EE101A0846D5
:10511000FBF7CCFC41EC1A0B8DED048B8DED029B63
:105120008DED00AB3BA3042240F213511AA008F00E
:105130001BF8214890F84800012827D11E4890ED1F
:10514000180B8DED040B90ED160B8DED020B90ED11
:10515000140B8DED000B36A3042240F216510EA065
:1051600008F002F8144890ED220B8DED040B90ED41
:10517000200B8DED020B90ED1E0B8DED000B34A37B
:10518000042240F2175104A007F0EEFF07B0BDEC77
:10519000068B00BD342001082E2E5C2E2E5C73720F
:1051A000635C616C676F726974686D5C496E61768F
:1051B000696E732E63000000B82D0020676E737354
:1051C0007374617475733D256400000067707373B8
:1051D00065636F6E643D252E33660000676E7373E2
:1051E0002D616E676C653D5B252E37662C252E374D
:1051F000662C252E37665D00676E73732D706F7396
:105200003D5B252E37662C252E37662C252E3766DE
:105210005D000000676E73732D76656C3D5B252E17
:1052200037662C252E37662C252E37665D0000004C
:10523000676E73732D706F737374643D5B252E37C7
:10524000662C252E37662C252E37665D0000000063
:10525000676E73732D76656C7374643D5B252E37B2
:10526000662C252E37662C252E37665D0000000043
:1052700000B52DED048B87B06D4B042240F2015137
:105280006CA007F071FF734890ED4E0B8DED020B93
:10529000A0F5E05090ED340B8DED000B6EA30422D1
:1052A00040F2025163A007F05FFF714890ED0E1BC2
:1052B000B0EE410AF0EE610A9FED6E1B53EC112B2C
:1052C00051EC100BFBF7BBFA41EC180B684890ED62
:1052D0000C1BB0EE410AF0EE610A9FED661B53EC29
:1052E000112B51EC100BFBF7AAFA41EC190B60489B
:1052F00090ED100B8DED040B8DED028B8DED009B71
:105300005EA3042240F204514AA007F02DFF584842
:1053100090ED201BB0EE410AF0EE610A9FED551BA7
:1053200053EC112B51EC100BFBF789FA41EC180BE5
:105330004F4890ED1E1BB0EE410AF0EE610A9FED62
:105340004D1B53EC112B51EC100BFBF778FA41EC91
:10535000190B474890ED220B8DED040B8DED028B60
:105360008DED009B4CA3042240F2055131A007F0C3
:10537000FBFE3F4890ED2C1BB0EE410AF0EE610AB7
:105380009FED3C1B53EC112B51EC100BFBF757FA24
:1053900041EC180B364890ED2A1BB0EE410AF0EEB6
:1053A000610A9FED341B53EC112B51EC100BFBF7F2
:1053B00046FA41EC190B2E4890ED2E0B8DED040BA7
:1053C0008DED028B8DED009B3AA3042240F2065135
:1053D00018A007F0C9FE264890ED1C0B8DED040BBC
:1053E00090ED1A0B8DED020B90ED180B8DED000B6F
:1053F00037A3042240F207510EA007F0B5FE1C4867
:1054000090ED280B8DED040B90ED260B8DED020B2E
:1054100090ED240B8DED000B34A304224FF4A16119
:1054200004A007F0A1FE07B0BDEC048B00BD000096
:10543000EC1F01082E2E5C2E2E5C7372635C616C77
:10544000676F726974686D5C496E6176696E732E00
:1054500063000000504A0020696D752E7365636F0C
:105460006E643D252E33662C64743D252E34660013
:10547000B8420020F8C1631ADCA54C40696E732D58
:105480006174743D5B252E37662C252E37662C25DE
:105490002E37665D00000000696E732D706F733DDE
:1054A0005B252E37662C252E37662C252E37665D1C
:1054B00000000000696E732D706F737374643D5B40
:1054C000252E37662C252E37662C252E37665D0057
:1054D000696E732D76656C3D5B252E37662C252E07
:1054E00037662C252E37665D00000000696E732D2F
:1054F00076656C7374643D5B252E37662C252E37DC
:10550000662C252E37665D002DE9F0438BB00446EE
:105510000D4690469946202103A8FAF77CFE4FF4E9
:1055200080512948FAF777FE002C01DD002D08DCB8
:1055300026A3012240F222512BA0CDE9004507F01D
:1055400013FE31A3042240F2255127A0CDF800908C
:1055500007F00AFE002621E0002718E0202103A81A
:10556000FAF759FE07FB046008EBC00090ED001B42
:10557000B0EE410AF0EE610A53EC102B24A103A80F
:1055800001F0DEFC03A91048FAF750FE7F1CAF4281
:10559000E4DB21A10C48FAF749FE761CA642DBDBCE
:1055A00009481EA304224FF4A66100900EA007F044
:1055B000DBFD1BA3042240F231510BA007F0D4FD08
:1055C0000BB0BDE8F0830000F46600205072696EF5
:1055D000744F75744D61747269784D7367206E3DB8
:1055E00025642C6D3D2564002E2E5C2E2E5C73727E
:1055F000635C616C676F726974686D5C496E61763B
:10560000696E732E6300000025733A5B0000000092
:10561000252E37452C0000000D0A000025730000E0
:105620005D00000070B504460D461646BA20207293
:1056300007F0A6FE284420606560E66070BD2DE995
:10564000F04105460F4607F09BFE064600242EE07B
:1056500005EB0410007ABA2827D105EB0410006886
:10566000B04222D805EB0410406820B9102005EBA9
:105670000411087211E005EB0410006805EB041139
:105680004968084405EB0411086005EB0410006844
:10569000B04202D205EB0410066005EB0410C068AE
:1056A00018B105EB0411C8688047601CC4B2BC4245
:1056B000CEDBBDE8F081000010B504210248FFF701
:1056C000BEFF012010BD0000782D002070B50446FB
:1056D0000D46224629460248FFF7A4FF70BD000090
:1056E000982D00207047000070B504460D46164600
:1056F00095ED340B84ED000B95ED360B84ED020B2C
:1057000095ED380B84ED040B95ED3A0B84ED060B0B
:1057100095ED3C0B84ED080B95ED3E0B84ED0A0BEB
:1057200095ED400B84ED0C0B05F5E05090ED4E0B24
:1057300084ED0E0B41F26840284490ED0C1BB0EE56
:10574000410AF0EE610A9FED851B53EC112B51ECE1
:10575000100BFBF774F8C4E9100141F268402844CB
:1057600090ED0E1BB0EE410AF0EE610A9FED7B1B3F
:1057700053EC112B51EC100BFBF761F8C4E912014B
:1057800041F26840284490ED101BB0EE410AF0EE63
:10579000610A9FED721B53EC112B51EC100BFBF7C0
:1057A0004EF8C4E9140141F26840284490ED180B0A
:1057B00084ED160B41F26840284490ED1A0B84EDFD
:1057C000180B41F26840284490ED1C0B84ED1A0B35
:1057D00041F26840284490ED1E1BB0EE410AF0EE05
:1057E000610A9FED5E1B53EC112B51EC100BFBF784
:1057F00026F8C4E91C0141F26840284490ED201BC2
:10580000B0EE410AF0EE610A9FED541B53EC112BF0
:1058100051EC100BFBF713F8C4E91E0141F268408C
:10582000284490ED220B84ED200B41F2684028447F
:1058300090ED240B84ED220B41F26840284490ED5A
:10584000260B84ED240B41F26840284490ED280B90
:1058500084ED260B41F26840284490ED2A1BB0EEFF
:10586000410AF0EE610A9FED3D1B53EC112B51EC08
:10587000100BFAF7E4FFC4E9280141F2684028441C
:1058800090ED2C1BB0EE410AF0EE610A9FED331B48
:1058900053EC112B51EC100BFAF7D1FF04F1A002DD
:1058A000C2E9020141F26840284490ED2E0B84EDDC
:1058B0002C0B306B44F8B80F706B6060B06BA0605D
:1058C0003068E06096ED010A84ED040A96ED030A63
:1058D00084ED060A96ED040A84ED070A96ED020AA5
:1058E00084ED050A96ED050A84ED080A96ED060A90
:1058F00084ED090A96ED070A84ED0A0A96ED080A76
:1059000084ED0B0A96ED090A84ED0C0A96ED0A0A5D
:1059100084ED0D0A96ED140B84ED0E0B96ED160B2F
:1059200084ED100B96ED180B84ED120B96ED1A0B0F
:1059300084ED140B96ED1C0B84ED160B96ED1E0BEF
:1059400084ED180B96ED200B84ED1A0B96ED220BCF
:1059500084ED1C0BB83C204670BD0000F8C1631AF2
:10596000DCA54C4030B52DED048B93B004460D46BC
:105970007AA30422A3217EA007F0F6FB94ED441B3A
:10598000B0EE410AF0EE610A9FED811B53EC112B42
:1059900051EC100BFAF753FFCDE90C0194ED461BC7
:1059A000B0EE410AF0EE610A9FED791B53EC112B2A
:1059B00051EC100BFAF743FFCDE90E0194ED421BB9
:1059C000B0EE410AF0EE610A9FED711B53EC112B12
:1059D00051EC100BFAF733FFCDE9100195ED050AF4
:1059E00010EE101A0846FBF761F841EC180B9FED1A
:1059F000680B53EC102BFAF722FFCDE9060195ED69
:105A0000060A10EE101A0846FBF750F841EC180B86
:105A10009FED5F0B53EC102BFAF711FFCDE9080156
:105A200095ED070A10EE101A0846FBF73FF8CDE98E
:105A30000A0194ED441BB0EE410AF0EE610A9FEDBD
:105A4000541B53EC112B51EC100BFAF7F8FE41F2FA
:105A500068422244C2E90C0194ED461BB0EE410AB3
:105A6000F0EE610A9FED4A1B53EC112B51EC100B29
:105A7000FAF7E5FE0A46014641F268402044C0E9D3
:105A80000E1294ED421BB0EE410AF0EE610A9FED5A
:105A9000401B53EC112B51EC100BFAF7D0FE41F2E6
:105AA00068422244C2E91001A86B042813D195ED85
:105AB000020A10EE101A0846FAF7F8FF41EC180B2C
:105AC0009FED330B53EC102BFAF7B9FE41F268420D
:105AD0002244C2E9100141F26840211810310CA89B
