:020000040800F2
:100000003044052081020008B15100080120000899
:10001000AD51000815150008C56F0008000000006C
:10002000000000000000000000000000C101000806
:1000300021180008000000001D020008E95C00080B
:100040009B0200089B0200089B0200089B0200081C
:100050009B0200089B02000823180008551800089E
:100060005F18000869180008731800089B02000850
:100070009B0200089B0200089B0200089B020008EC
:100080009B0200089B0200089B02000869150008FB
:10009000191500089B0200089B0200087D18000843
:1000A0009B0200089B0200089B0200089B020008BC
:1000B000F55E00089B020008A95F00089B0200088B
:1000C0009B0200089B0200089B0200089B0200089C
:1000D0009B0200089B0200089B0200089B0200088C
:1000E0002D1800089B0200089B0200089B020008D4
:1000F0009B0200089B0200089B02000839170008B9
:100100009B0200089B0200089B0200089B0200085B
:100110009B020008FD5F00089B0200089B0200088C
:100120009B0200089B0200089B0200089B0200083B
:100130009B0200089B0200089B0200089B0200082B
:100140006D1500089B0200089B0200089B02000836
:100150009B0200089B0200089B0200089B0200080B
:100160009B0200089B0200089B0200089B020008FB
:100170009B0200089B0200089B0200080000000090
:100180009B0200089B0200089B0200089B020008DB
:100190009B0200089B0200089B0200080000000070
:1001A0009B0200089B0200089B020008DFF80CD0AD
:1001B00000F072FF00480047CDDD00083044052004
:1001C0002C4B19680868B0E8F04F80F30988BFF33A
:1001D0006F8F4FF0000080F311887047000000001F
:1001E00008480068006880F308884FF0000080F33A
:1001F000148862B661B6BFF34F8FBFF36F8F00DF15
:1002000000BF00BF08ED00E0DFF80C00016841F41A
:1002100070010160704700BF88ED00E0EFF30980D6
:10022000BFF36F8F134B1A681EF0100F08BF20ED3D
:10023000108A20E9F04F106009B44FF0400080F3BD
:100240001188BFF34F8FBFF36F8F12F0F7FA4FF0A3
:10025000000080F3118809BC19680868B0E8F04F05
:100260001EF0100F08BFB0EC108A80F30988BFF3AE
:100270006F8F7047F40A0020EFF30580704700008D
:100280000648804706480047FEE7FEE7FEE7FEE730
:10029000FEE7FEE7FEE7FEE7FEE7FEE72D5E00086D
:1002A000AD01000840EA01039B0703D009E008C93B
:1002B000121F08C0042AFAD203E011F8013B00F82B
:1002C000013B521EF9D27047D2B201E000F8012B77
:1002D000491EFBD270470022F6E710B513460A46C6
:1002E00004461946FFF7F0FF204610BD421E12F8E3
:1002F000013F002BFBD111F8013B02F8013B002B21
:10030000F9D1704730B505462A460B4612F8010B65
:1003100013F8014B08B1A042F8D01CB1002802D05C
:100320006D1CF1E7284630BD10B5044604E00B789B
:1003300000F8013B03B1491C521EF8D2204610BD03
:10034000CAB2401E10F8011F8A4202D00029F9D11A
:1003500000207047421C10F8011B0029FBD1801AB5
:10036000704730B504460020034600E05B1C934212
:1003700003D2E05CCD5C401BF8D030BD30B5054603
:100380000020034600E05B1C934205D2EC5CC85C95
:10039000201A01D1002CF6D130BD000070B50F4DF0
:1003A00000B92868002412E00A4602E09E4203D009
:1003B000521C1378002BF9D1DAB2224305D02BB1AD
:1003C00024B1002100F8011B04E00446401C06781B
:1003D000002EE9D12860204670BD0000700B00207F
:1003E0000246C9B200E0401C0378002BFBD102E0BA
:1003F00003788B4203D0401E9042F9D20020704710
:100400000FB400B58DB010A909900B9000914FF07A
:10041000FF300A9000200C90054806900548079090
:100420006A4609A80F9900F079FC0DB05DF814FB3D
:10043000390D0008570D00082DE9FF4F087881B0ED
:100440009946FF2805D0491C2D2804D000240023FC
:1004500008E000230BE00124F9E703EB830300EB42
:100460004303491C0878FF28F7D104B15B42002000
:100470000090147801462D2C01D02B2C04D1521C55
:100480002D2C12D00024009400251678FF2E0ED0BB
:100490000A24A0FB04C801FB0481002700FB07110C
:1004A000521C16EB0C006941EFE70124EBE799447D
:1004B00050EA01020ED00024AA4D2646DFF8A88299
:1004C00000F0C5FD82468B46B9F1000009DAC9F19A
:1004D00000071BE001980021C0E9001105B0BDE84C
:1004E000F08F074612E0F80707D022462B46304629
:1004F000414600F0FEF90646884622462B46104645
:10050000194600F0F6F904460D467F10002FEAD197
:10051000B9F1000F324643465046594602DA00F020
:100520005AFA01E000F0E5F9009A0AB181F00041C1
:10053000019AC2E90001D1E72DE9FF4F1F468DB0B6
:10054000D7E901464FF0FF382E2045464FF000090D
:100550000B90B9696D1C0E988847396A82468847A6
:100560000028F6D1BAF1FF3F0AD024F4D064002E5F
:1005700011DDBAF12B0F08D0BAF12D0F0BD102E02B
:10058000404611B0ABE744F48064B9696D1C0E9825
:1005900088478246761E6946600501D52D2000E019
:1005A0002B208DF8000001F1010B0DF1200809E06E
:1005B000B9696D1C0E98884782460F9844F4007400
:1005C000761E0560002E02DDBAF1300FF0D00B99D7
:1005D0008A453ED144F0800406E00F99681CA9F1D9
:1005E000010944F400740860B9696D1C761E0E9808
:1005F000884782463028F0D02BE00B998A4505D1F8
:10060000200603D444F08004761E18E0504608F01B
:10061000C9FB08B30DF11301761E44F400748B4539
:1006200008D2AAF130000BF8010B200607D5A9F17A
:10063000010003E0200602D409F101008146A00573
:1006400002D50F99681C0860B9696D1C0E9888471F
:100650008246002ED1DC53E0002E51DDBAF1650F49
:1006600002D0BAF1450F4BD1A00549D5B9696D1C2F
:1006700024F44074761E0E9888478246002E0CDDC6
:100680002B2804D0BAF12D0F07D144F48074B96936
:100690006D1C0E9888478246761EE00501D52D21F7
:1006A00000E02B2108F8011BCDF82C8021E00DF192
:1006B0002901761E44F4007488450CD2AAF130005A
:1006C00010F0FF0088F8000002D10B99884509D985
:1006D00008F1010806E0E00501D5244801E042F2F6
:1006E0000F708146B9696D1C0E98884782460F9835
:1006F0000560002E04DD504608F054FB0028D6D1DA
:10070000F9690E988847FF208BF8000088F80000F0
:100710000020069007904B466A4608A906A8FFF7F6
:100720008BFEA00502D46FF001002AE714F0240F1D
:100730000AD0E00714D1DDE906123868031D3B60DA
:100740000068C0E900120BE0DDE9060100F04CFA98
:100750000146E00704D13868021D3A600068016074
:1007600028460EE7000024400000F03FF1D8FFFFCC
:1007700070B5064606F07AFC046805460A22002198
:10078000304600F047FB2C6070BD70B5064606F0A1
:100790006DFC046805460A220021304600F03AFB51
:1007A0002C6070BD2DE9FE4F804681EA0300C00F2A
:1007B0000C46009021F0004123F00045B8EB020008
:1007C000A94105D24046214690461C460B460246AA
:1007D00023F00040104347D0270DC7F30A00C3F3AE
:1007E0000A510290401A019040286BDAC3F31300BB
:1007F00040F4801B0098924620B10023D2EB030AFC
:1008000063EB0B0B01985946C0F14002504600F0D3
:100810004EFA06460D4650465946019A00F066FAD1
:1008200010EB08006141002487EA115284EAE77363
:100830001A4340D0009A62B3019A012A4FEA075244
:1008400015DC001B61EB02014FF0004202EA075287
:10085000CDE90042001C41F5801132462B4600F0E4
:1008600057FB03B0BDE8F08F40462146F9E7001B77
:1008700061EB0201001C41F5801300185B41201858
:10088000A2F5001747EB030140EAD570B6196D4198
:1008900011E06D084FEA360645EAC0754FEA075287
:1008A000001B61EB0201001C41F5801149084FEA71
:1008B00030000019514132462B4603B0BDE8F04FDD
:1008C00000F017BB0098012240000023D0EB020289
:1008D00063EBE073009821464FEAE074B8EB000048
:1008E00061EB0401E9E783F000435BE781F000413D
:1008F00058E72DE9FE4F81EA030404F0004421F09B
:10090000004100944FF0000B23F0004350EA010433
:100910005ED052EA03045BD0C3F30A54C1F30A5514
:100920002C44A4F2F3340194A0FB0254C1F313014C
:1009300041F48011C3F3130343F4801301FB024419
:1009400000FB034E840A970A44EA815447EA83571E
:10095000A4FB076802958D0A05FB07854FEA932CD7
:1009600004FB0C542705029D4FEA065847EA163748
:10097000B5EB08056EEB070C870E920E47EA811760
:1009800042EA8312A7FB0201B6EB0B0164EB000401
:100990002B0D43EA0C335E1844EB1C50DA465146EB
:1009A000E7FB0201C5F313044FEA0B3343EA145388
:1009B0004FEA0432019C43EA0603A4F10C040294BA
:1009C000009CCDE900B400F0A3FA03B0BDE8F08FBD
:1009D00000200146F9E72DE9F04D81EA030404F017
:1009E000004B21F0004514464FF0000A23F000416F
:1009F00050EA050220D054EA01021DD0C5F30A577F
:100A00000246C5F31303C1F31300C1F30A5640F4C1
:100A1000801543F48013A7EB0608101BD64608F296
:100A2000FD3873EB050002D308F1010801E09218CC
:100A30005B41B8F1000F03DA00200146BDE8F08DFC
:100A400000204FF48011064684460EE0171B73EB1E
:100A5000050705D3121B63EB050306434CEA010CA3
:100A600049084FEA300092185B4150EA0107EDD186
:100A700052EA030012D082EA040083EA0501084327
:100A800005D0101BAB4106D20122002306E0002254
:100A90004FF0004302E06FF0010253101AEB060022
:100AA0004CEB085110EB0A0041EB0B01BDE8F04D97
:100AB00000F01FBA0EB5C10F80EAE0700844CA0703
:100AC000002140F233438DE80E000A460B4600F049
:100AD0001FFA03B000BD0EB540F233410291002170
:100AE000CDE900110A460B4600F012FA03B000BD32
:100AF00070B5C1F30A5201F000450024C1F313019F
:100B000040F2FF3341F480119A4201DA002070BDB7
:100B100040F233439A42A2F2334203DC524200F0E5
:100B2000D5F800E090402C43F1D0404270BDC1F3B5
:100B30000A5210B5C1F3130140F2FF3341F48011A2
:100B40009A4201DA002010BD40F233439A42A2F2E9
:100B5000334203DC524200F0B9F810BD904010BDA2
:100B600000F0004230F000400AD0C10D01F5607184
:100B7000C0F3160042EA0151C20840071143704712
:100B8000002001467047000030B5041E71F10004DA
:100B900004DB4FF00044404264EB0101141E73F18A
:100BA000000405DB1C464FF00043524263EB040394
:100BB0008B4208BF824230BD30B5041E71F1000483
:100BC00004DB4FF00044404264EB0101141E73F15A
:100BD000000405DB1C464FF00043524263EB040364
:100BE000994208BF904230BD01F0004330B421F07B
:100BF000004150EA010206D00A0DA2F56072C1F36D
:100C00001301002A02DC30BC00207047440F44EA84
:100C1000C104C100E01830BC00EBC25000F032B992
:100C200030B50B46014600202022012409E021FABC
:100C300002F59D4205D303FA02F5491B04FA02F5B9
:100C40002844151EA2F10102F1DC30BD2DE9F05F50
:100C50000546002092469B4688460646814640242B
:100C60001BE0284641464746224600F02FF85346EF
:100C70005A46C01A914110D311461846224600F038
:100C800016F82D1A67EB01084F4622460120002175
:100C900000F00DF817EB00094E41201EA4F10104ED
:100CA000DFDC484631462A464346BDE8F09F202A0D
:100CB00004DB203A00FA02F1002070479140C2F1B3
:100CC000200320FA03F3194390407047202A04DBE5
:100CD000203A21FA02F00021704721FA02F3D040B5
:100CE000C2F120029140084319467047202A06DBD2
:100CF000CB17203A41FA02F043EAE07306E041FAEA
:100D000002F3D040C2F120029140084319467047D7
:100D1000026811441378016018467047D160044995
:100D200051610449116200211161114600F0D4B9EA
:100D3000110D0008C5100008426842B1016811F8A1
:100D4000013B23B1521EC0E9001218467047012131
:100D5000C160881E704742685AB1C368016843B9D0
:100D600083688B4205D0491E521CC0E90012002046
:100D700070474FF0FF3070470FB4002300B589B0C3
:100D80000CA900910B996FF00042CB601E4B0693AB
:100D90001E4B07930423CDE901321D4A08920246F7
:100DA0006B460020FFF7C8FB09B05DF814FB70B577
:100DB00086B006464FF0FF300091CDE901010020DA
:100DC00015460C4604903246694604A8FFF7D4FF46
:100DD00002460498211825B108B1084600E02046D3
:100DE0002860049800280DD0002A02DD009888426F
:100DF00008D0081B0094CDE901043246694604A8D6
:100E0000FFF7BAFF06B070BD390D0008570D000896
:100E1000C51000082DE9F04791460F46804604466C
:100E2000002614F8015B2DB100F048F90068405D20
:100E3000C007F6D12B2D02D02D2D18D0641E4A46A6
:100E40003946204600F0DEFA27B13968A14201D1C7
:100E5000C7F8008071054FF002040BD5404200280E
:100E600003DD06F003F90460A007BDE8F08746F44F
:100E70008066E4E70028F8DA06F0F8F804606FF01E
:100E80000040F2E70029A8BF7047401C490008BF96
:100E900020F00100704710B4B0FA80FC00FA0CF0AA
:100EA00050EA010404BF10BC704749B1CCF12004E2
:100EB00021FA04F411FA0CF118BF0121214308436F
:100EC000A3EB0C01CB1D4FEA00614FEA102042BF9B
:100ED000002010BC704700EBC35010440029A4BF91
:100EE00010BC7047401C490008BF20F0010010BC36
:100EF000704710B5141E73F1000408DA401C41F16C
:100F0000000192185B411A4301D120F0010010BD8D
:100F10002DE9F04D92469B4611B1B1FA81F202E003
:100F2000B0FA80F220329046FFF7C1FE04460F4629
:100F300040EA0A0041EA0B0153465A46084313D0DF
:100F4000114653EA010019D0C8F140025046FFF79C
:100F5000BDFE05460E46504659464246FFF7A7FEDF
:100F6000084305D0012004E020463946BDE8F08D55
:100F70000020054346EAE0762C4337430A98630590
:100F8000E40AA0EB08000022FD0A44EA47540A30B4
:100F900002D500200146E9E7010510196941DDE9A4
:100FA000084500196941BDE8F04DA2E72DE9F04D73
:100FB00000231A461B1A8A4103DB00200146BDE8C4
:100FC000F08DC1F30A52C1F3130141F480154FF0C3
:100FD000000BD10702D100186D41521E00270446B4
:100FE00040F2FF11384601EB620A3E468046024657
:100FF00000204FF48011FFF769FEC2197141BB1840
:1010000046EB0100B4EB030C75EB000C04D3E41ABF
:1010100065EB000517460E46241908F101006D41E5
:1010200080463428E3DDF91946EB0600091BA84188
:1010300003D24FF0FF32134601E0002213461BEBB0
:10104000070046EB0A51BDE8F04DFFF752BF0EB561
:1010500040F2334202920022CDE900221346FFF70C
:1010600057FF03B000BDC1F30A52C1F3130140F2B0
:10107000FF3341F480119A4202DA002001467047A2
:1010800040F233439A42A2F2334202DC5242FFF76B
:101090001DBEFFF70CBE0000064C074D06E0E068E1
:1010A00040F0010394E8070098471034AC42F6D3AF
:1010B000FFF780F8304C0108504C01080048704799
:1010C000044A010810B50446FFF7F8FF0068005D08
:1010D00000F0010010BD00002DE9F34F8BB04FF080
:1010E000000801F10C000C464FF0010B46460DF1D3
:1010F000080A01906269012101989047051E2DD0D0
:10110000252D2CD0216A8847C0B162690121019840
:101110009047216A88470028F7D1411E62690198EB
:10112000904700E0761CA1690B988847216A8847A0
:101130000028F7D1E1690B988847DBE7A1690B9894
:1011400088470746A84201D1761CD3E7E1690B988E
:1011500088477F1C02D1B8F1000F6FD046E100270D
:1011600062693D463946019890472A2804D1626950
:101170000121019890470125DFF8849262690121DD
:1011800001989047A0F130010A290AD24F45E5DCC9
:1011900007EB870100EB4107303FDFD445F0100536
:1011A000ECE7E90601D46FF000476C280AD04C2820
:1011B00014D0682815D06A280DD074281CD07A283D
:1011C0001AD01DE062690121019890476C2802D075
:1011D00045F0040514E045F002050DE045F020055A
:1011E0000AE06269012101989047682802D045F021
:1011F000080505E045F40065626901210198904702
:10120000C4E9015765283DD019DC58287AD00CDC98
:10121000452837D004DC252826D0412831D131E0BB
:1012200046282FD047282CD12CE05B2877D0612886
:1012300028D063287CD0642823D15AE0D0E06F28DE
:1012400048D008DC66281DD067281BD0692821D02B
:101250006E2816D127E0702845D0732868D07528ED
:1012600047D078280DD14DE0A1690B9888470546F5
:1012700025283FF469AFE1690B9888476D1C3FF45E
:101280006AAFB3E023466A466FF001000B99FFF79F
:1012900053F99EE045F040006060A80723464FF0F8
:1012A000000236D43EE0E8077FF447AF2068011D16
:1012B00021600068290501D506701BE7290701D5C3
:1012C000068017E7A90703D5F117C0E9006111E708
:1012D00006600FE745F040006060A80723464FF026
:1012E000080216D41EE040F60E0125EA01006060F7
:1012F00016E045F040006060A80723464FF00A0260
:1013000007D40FE045F040006060A80708D52346E9
:1013100010226FF001000B99AFF3008059E007E055
:10132000234610226FF001000B99AFF3008050E0CC
:101330004FF000094F464B46632802D05B2806D089
:1013400040E0E80601D40120A06001273AE062698C
:101350000121019890475E2805D14FF0010962698B
:10136000494601989047216939B900210A465346F8
:1013700043F82120491C0829FADBB0B3216969B977
:10138000C11700EBD16253110AEB830122F01F0257
:10139000821A01200B68904003430B6062690121AF
:1013A000019890475D28E8D1B9F1000F09D00020DD
:1013B000514651F82020D24341F82020401C0828F3
:1013C000F7DB02AB224600976FF001000B99AFF3F9
:1013D000008000280CDA401C08D1BBF1000F05D0BA
:1013E0004FF0FF300DB0BDE8F08FFFE74046F9E762
:1013F000E90701D108F1010806444FF0000B79E636
:10140000CCCCCC0C2DE9F05F824600780027154645
:101410008B460AF10104B946302801D09DB113E092
:1014200014F8010B0127782803D0582801D045B1C2
:101430000AE00DB1102D07D10027102514F8010B7B
:1014400002E0082500E00A250026B0460EE005FB74
:10145000080005FB06F1012701EB10461FFA80F892
:10146000B6F5803F00D3B94614F8010B294600F0C9
:1014700018F80028EBDABBF1000F05D00FB1641E9D
:1014800000E05446CBF80040B9F1000F06D005F05B
:10149000EDFD02210160C81EBDE8F09F48EA06404C
:1014A000FAE73A2800D2303820F02002412A01D34E
:1014B000A2F13700884201D34FF0FF30704770B57A
:1014C0008C1810F8015B15F0070301D110F8013BEF
:1014D0002A1106D110F8012B03E010F8016B01F876
:1014E000016B5B1EF9D12B0705D40023521E0DD4CE
:1014F00001F8013BFAE710F8013BCB1A921C03E01C
:1015000013F8015B01F8015B521EF9D5A142D8D353
:10151000002070BD00BFFEE700B58DB04CF2C201E7
:10152000104808F05BFA01281AD14CF2C2010D48AC
:1015300008F04CFA08AA00210A4808F089FA03A822
:1015400001900C98009008A80FC808F0CBF9DDE9CD
:101550000601CDE90001002003A90EC908F0E8F951
:101560000DB000BD006400407047000000B58DB0B4
:101570004CF2C201104808F031FA01281AD14CF29D
:10158000C2010E4808F022FA08AA00210A4808F011
:101590005FFA03A801900C98009008A80FC808F003
:1015A000A1F9DDE90601CDE90001012003A90EC979
:1015B00008F0BEF90DB000BD0068004000640040B6
:1015C000F0B5B3B005460E46174600242CE005F1F1
:1015D000500000EBC40090ED001BB0EE410AF0EEAD
:1015E000610A9FED4F1B53EC112B51EC100BFFF7D1
:1015F000F2F92CAA02EBC40203C205F1680000EB69
:10160000C40090ED001BB0EE410AF0EE610A9FEDC0
:10161000441B53EC112B51EC100BFFF7DCF926AAFD
:1016200002EBC40203C2641C032CD0DB002418E0CC
:1016300005F1200000EBC40090ED000B05F16800FF
:1016400000EBC40080ED000B05F1080000EBC400C6
:1016500090ED000B05F1500000EBC40080ED000B95
:10166000641C032CE4DB20AA05F108012CA808F077
:10167000A7FB9FED2D0B0123032220A905F10800F4
:1016800000960CF00FFE1AAA05F1200105F10800E2
:1016900008F096FB002415E01AA800EBC40090EDBA
:1016A000001BB0EE410AF0EE610A53EC102B9FEDE7
:1016B000201B51EC110BFFF71CF91AAA02EBC40214
:1016C00003C2641C032CE7DB14AA05F120012CA83B
:1016D00008F076FB0EAA05F1080126A808F070FBB9
:1016E00008A89FED110B012303221AA9009005F110
:1016F00020000CF0D7FD02A89FED0B0B0123032265
:101700000EA9009014A80CF0CDFD9FED070B01234E
:10171000032202A908A800970CF0C4FD33B0F0BD65
:101720000000000000002840000000000000F03F22
:10173000000000000000E03F70B5294C00BF4021D0
:10174000EFF3118081F31188BFF34F8FBFF36F8FD9
:1017500000BF054620220721224808F086FD002808
:1017600038D0202207211F4808F060FD07211D48BE
:1017700008F022FC40F206311B4810F062FCA07811
:10178000002802DDA078401EA07060780A2801DBE6
:1017900000206070A07800281CDD6378E01CC25C2B
:1017A000184603EBC00303EB001304F10D0000EB3C
:1017B00083010E48FEF776FD6178E01C425C07214C
:1017C000084808F018FF6078401C60700721054841
:1017D00008F002FC00BF85F3118800BF70BD000057
:1017E000042900200060024000500040A026002094
:1017F00030B503460C4600219818B0F5004F01D9CA
:10180000002030BD002107E034F811505818400086
:1018100000F1C8400580491C9142F5D30120F0E752
:10182000704710B5002000F047F810BD10B50A2031
:1018300000F042F80B2000F03FF80C2000F03CF8DC
:101840000D2000F039F80E2000F036F80F2000F0DF
:1018500033F810BD10B5012000F02EF810BD10B502
:10186000022000F029F810BD10B5032000F024F884
:1018700010BD10B5042000F01FF810BD10B50520F4
:1018800000F01AF8062000F017F8072000F014F80E
:10189000082000F011F8092000F00EF810BD08B57E
:1018A000024612B94FF0C04001E04FF0C84000902E
:1018B000009830F8110008BD70B50446012101FA06
:1018C00004F009F001F9A0B125460A4800EB051023
:1018D000406840B1074A02EB05129068054A02EBE6
:1018E00005125168884700BF012101FA04F009F090
:1018F000E5F870BD3804002070B504460D4619485F
:1019000000780A282AD2DFE800F02905090D111510
:10191000191D212520460BF093F820E020460AF0FF
:10192000F5FE1CE020460BF0CFF918E020460BF046
:1019300037FA14E020460AF087FF10E020460AF04C
:1019400057FC0CE020460AF055FD08E020460BF05D
:1019500053F904E020460AF0A5FA00E000BF00BFFA
:1019600070BD000021040020024600201378232BC4
:1019700001D1012003E01378242B00D1022070470D
:1019800010B504460622214659A0FEF7F7FC58B1CF
:101990000622214658A0FEF7F1FC28B10622214676
:1019A00057A0FEF7EBFC48B95748007840F001001B
:1019B0005549087001205549087096E006222146D5
:1019C00053A0FEF7DBFC88B10622214652A0FEF7A9
:1019D000D5FC58B10622214651A0FEF7CFFC28B114
:1019E0000622214650A0FEF7C9FC18B9022047493B
:1019F00008707AE0062221464DA0FEF7BFFC58B1E0
:101A0000062221464CA0FEF7B9FC28B10622214649
:101A10004BA0FEF7B3FC18B903203C49087064E002
:101A20000622214648A0FEF7A9FC58B1062221460D
:101A300047A0FEF7A3FC28B10622214646A0FEF7E8
:101A40009DFC48B93048007840F002002E490870EB
:101A500004202E49087048E00922214640A0FEF7E4
:101A60008DFC48B92848007840F0040026490870E9
:101A700005202649087038E0092221463BA0FEF7E0
:101A80007DFC18B90620214908702EE00922214664
:101A900039A0FEF773FC18B907201C49087024E030
:101AA0000622214637A0FEF769FC58B106222146DE
:101AB00036A0FEF763FC28B10622214635A0FEF7CA
:101AC0005DFC18B90820114908700EE00722214674
:101AD00032A0FEF753FC40B90B48007840F00800F4
:101AE000094908700920094908700848007810BDA4
:101AF00024474E524D430000244750524D430000AE
:101B000024474C524D4300002804002021040020AB
:101B100024474E47474100002447504747410000B3
:101B200024474C47474100002442444747410000B6
:101B300024474E565447000024475056544700004F
:101B400024474C565447000024474E5A4441000055
:101B50002447505A4441000024474C5A4441000055
:101B60002348454144494E47410000002342455324
:101B700054504F5341000000234245535456454CA6
:101B80004100000024474E54524100002447505465
:101B90005241000024474C54524100002341475217
:101BA0004943410002469FED090B82ED000B9FED7A
:101BB000070B82ED020B9FED050B82ED040B9FEDF1
:101BC000050A82ED060A00207047000000000000B0
:101BD000000000000000000070B504460D462E46CF
:101BE000F06E206096ED1C0A84ED010A96ED130A52
:101BF00084ED020A96ED140A84ED030A96ED150AA7
:101C000084ED040A96ED110A84ED050A96ED0F0A9B
:101C100084ED060A96ED120A84ED070A96ED1D0A78
:101C200084ED080A96ED1E0A84ED090A96ED1F0A56
:101C300084ED0A0A96ED160A84ED0B0A3420805DC5
:101C4000206380208059A06396ED0C0A10EE101AD4
:101C50000846FEF785FFC4E91001012084F848001A
:101C600096ED230A10EE101A0846FEF779FFC4E934
:101C7000140196ED220A10EE101A0846FEF770FFC6
:101C8000C4E9160196ED240A10EE101A0846FEF774
:101C900067FFC4E9180196ED260B84ED1A0B96ED4B
:101CA000280B84ED1C0B96ED2A0B84ED1E0B0120F6
:101CB000C4F88000002070BD70B504460D462E4665
:101CC00094ED020B84ED140B94ED040B84ED160BD4
:101CD00094ED060B84ED180B94ED080B84ED1A0BB4
:101CE00094ED0A0B84ED1C0B94ED0C0B84ED1E0B94
:101CF00096ED040A10EE101A0846FEF731FFC4E90B
:101D0000020196ED050A10EE101A0846FEF728FFAC
:101D1000C4E9040196ED060A10EE101A0846FEF713
:101D20001FFFC4E9060196ED010A10EE101A0846DD
:101D3000FEF716FFC4E9080196ED020A10EE101A2C
:101D40000846FEF70DFFC4E90A0196ED030A10EEFE
:101D5000101A0846FEF704FFC4E90C0101200249ED
:101D60000870002070BD0000F82D00202DE9FF5FF5
:101D70002DED020B2DED048B92B083460C461546DB
:101D8000B0EE408AF0EE608A76A3042240F2EA3197
:101D900078A00BF0B3FC94ED050A10EE101A08467B
:101DA000FEF7DEFE41EC190B9FED7A0B53EC102B86
:101DB000FEF79FFDCDE90C0194ED060A10EE101A16
:101DC0000846FEF7CDFE41EC190B9FED720B53EC6C
:101DD000102BFEF78EFDCDE90E0194ED070A10EEF3
:101DE000101A0846FEF7BCFECDE9100194ED080A72
:101DF00010EE101A0846FEF7B3FECDE9060194ED89
:101E0000090A10EE101A0846FEF7AAFECDE90801ED
:101E100094ED0A0A10EE101A0846FEF7A1FECDE96D
:101E20000A015E48D0F86409022802D10F2707266C
:101E300001E00F2706263146384611F0A9FD8146FC
:101E40003146384611F0A4FD82460121304611F09A
:101E50009FFD8046B9F1000F05D0BAF1000F02D006
:101E6000B8F1000F15D14EA30122910241A00BF051
:101E700045FC484609F0B8FD504609F0B5FD40461E
:101E800009F0B2FD002012B0BDEC048B06B0BDE835
:101E9000F09F94ED020A10EE101A0846FEF760FE5D
:101EA00041EC190BB0EE481AF0EE681ACDE9028940
:101EB000CDE90076B0EE490AF0EE690A0CAA06A94F
:101EC00058461B9B02F0D0FE39A3042240F2074182
:101ED00028A00BF013FC3B464A4605F17001404632
:101EE000CDE9006803F008F9012801D00020CAE715
:101EF00035A3042240F20F411EA00BF0FFFB524617
:101F0000314605F53E6003F063F833A305F53E6204
:101F10003146384603F0F6FB05F5416005F17001E6
:101F200043464A46CDE900A7CDE902610490014647
:101F300005F1700002F09CFB012801D00020A2E70F
:101F40002AA3042240F223410AA00BF0D7FB484603
:101F500009F04AFD504609F047FD404609F044FDAE
:101F6000012090E7476E7373496E73467573696F0E
:101F70006E0000002E2E5C2E2E5C7372635C616C12
:101F8000676F726974686D5C496E6176696E732EF5
:101F900063000000399D52A246DF913F384B00207C
:101FA000486B2C526B2C5A6B206661696C000000E8
:101FB0006166746572204C6576657261726D5469F4
:101FC0006D65436F727200006166746572204D65C5
:101FD0006173526573700000476E7373496E734688
:101FE0007573696F6E2D526B000000006166746539
:101FF00072204B664D6561735570646174650000B5
:1020000000BFFEE79FED220B80ED080B80ED060B75
:1020100080ED040B80ED000B80ED020B9FED1E0B9D
:1020200080ED240B002130E09FED190B00F19802A8
:1020300002EBC10282ED000B00F1B00202EBC10223
:1020400082ED000B00F1600202EBC10282ED000B99
:1020500000F1780202EBC10282ED000B00F13002C8
:1020600002EBC10282ED000B00F1480202EBC1025B
:1020700082ED000B022907D19FED070B00F19802BA
:1020800002EBC10282ED000B491C0329CCDB704737
:10209000000000000000000069B696FD868F234016
:1020A00010B50246002010E000210BE09FED080B68
:1020B000C0EB00135C1802F5FE6303EBC40383ED71
:1020C000000B491C0F29F1DB401C0628ECDB10BD7E
:1020D000000000000000000010B50246002002F1E0
:1020E000700303EBC10383ED000B00BF36E08142B8
:1020F00004D1B0EE413AF0EE613A01E09FED193BB8
:10210000C1EB01131C1802F5416303EBC40383ED1B
:10211000003BC0EB00135C1802F5416303EBC40302
:1021200083ED003B814204D1B0EE423AF0EE623AD8
:1021300001E09FED0C3BC1EB01131C1802F1E80319
:1021400003EBC40383ED003BC0EB00135C1802F10A
:10215000E80303EBC40383ED003B401C0F28C6DB00
:1021600010BD0000000000000000000010B520219C
:102170000848FEF7B0F89FED080B064880ED000B0D
:102180009FED070B80ED020B9FED070B80ED040B1D
:1021900010BD0000A0540020AF25E4839ECDDABF1F
:1021A00045D8F0F44A59C6BFF2D24D621058B9BFB3
:1021B00010B54FF4EA511048FEF78DF80E4890ED37
:1021C000360B80ED480B90ED380B80ED4A0B90ED0F
:1021D0003A0B80ED4C0B90ED3C0B80ED4E0B90EDEF
:1021E0003E0B80ED500B90ED400B80ED520B02202A
:1021F0000149087010BD0000F82D002010B540F610
:1022000068110448FEF767F84FF0FF300149C1F844
:10221000640910BD384B002070B52DED048B0546C8
:102220000E4614469FED170BB0EE408AF0EE608A22
:102230001DE006EBC40090ED002BB0EE420AF0EE7C
:10224000620A05EBC40090ED002BB0EE421AF0EEEE
:10225000621A53EC102B51EC110BFEF74AFB41ECC8
:10226000190B53EC182BFEF79DFA41EC180B601E6E
:10227000041EDEDAB0EE480AF0EE680ABDEC048B0C
:1022800070BD000000000000000000002DE9F047D4
:102290002DED048B86B00446B0EE408AF0EE608AE5
:1022A000884616469A46129F89A30422C5218AA011
:1022B0000BF024FA84ED008B94ED000B84ED020BFF
:1022C00096ED080A10EE101A0846FEF749FCC4E91C
:1022D000180196ED090A10EE101A0846FEF740FCA8
:1022E000C4E91A0196ED0A0A10EE101A0846FEF724
:1022F00037FCC4E91C0196ED050A10EE101A0846D9
:10230000FEF72EFC41EC190B9FED7B0B53EC102BD1
:10231000FEF7EFFAC4E91E0196ED060A10EE101A58
:102320000846FEF71DFC41EC190B9FED730B53ECB7
:10233000102BFEF7DEFA04F17802C2E9020196EDF5
:10234000070A10EE101A0846FEF70AFC04F178029C
:10235000C2E90401002538E008EBC50090ED000B50
:1023600004F1100000EBC50080ED000B032D2BDA0B
:102370009FED630B04F5A87000EBC50080ED000B2A
:1023800004F59C7000EBC50080ED000B04F5907027
:1023900000EBC50080ED000B04F5847000EBC50078
:1023A00080ED000B04F1F00000EBC50080ED000BA8
:1023B00004F1D80000EBC50080ED000B04F1C00073
:1023C00000EBC50080ED000B6D1C042DC4DB002567
:1023D00014E04FF000090DE09FED490B05EB4500BF
:1023E00000EB090104F5B47000EBC10080ED000BB7
:1023F00009F10109B9F1030FEEDB6D1C032DE8DBD8
:1024000007F10800FFF7FEFD04F1780204F1600116
:1024100007F1080003F066FF97ED0C1BB0EE410AD0
:10242000F0EE610A53EC102B9FED371B51EC110BB2
:10243000FEF7D1FA04F5B472C2E9020197ED081B68
:10244000B0EE410AF0EE610A53EC102B9FED2E1B0B
:1024500051EC110BFEF7BFFA04F5B472C2E90601A4
:102460009FED290B84ED6A0B94ED220B8DED040B8F
:1024700094ED200B8DED020B94ED1E0B8DED000BFA
:1024800023A30422DF2114A00BF038F904F1780013
:102490002A4B024604F5B4710090404602F0A2FBBC
:1024A00094ED220B8DED040B94ED200B8DED020BC2
:1024B00094ED1E0B8DED000B21A30422E12106A05B
:1024C0000BF01CF906B0BDEC048BBDE8F0870000F2
:1024D000496E73496E6974002E2E5C2E2E5C7372E9
:1024E000635C616C676F726974686D5C496E61767C
:1024F000696E732E63000000399D52A246DF913F42
:102500000000000000000000000000000000F03F9C
:102510006265666F7265204C65766572202C696E07
:10252000732D3E706F733D5B252E37662C20252E54
:1025300037662C252E37665D00000000A054002071
:102540006166746572204C65766572202C696E73C5
:102550002D3E706F733D5B252E37662C20252E3760
:10256000662C252E37665D00F0B52DED088BF7B093
:1025700007460C46164694ED020BB0EE408AF0EE8C
:10258000608AFCA3042240F29911FDA00BF0B6F87A
:102590006AAA70A93846FFF713F851EC180B81F0BE
:1025A000004141EC190B64A8B0EE490AF0EE690A4B
:1025B0000123032204F1C001009070A80BF072FE09
:1025C00051EC180B81F0004141EC190B5EA8B0EE04
:1025D000490AF0EE690A0123032204F1D8010090B0
:1025E0006AA80BF05FFE9FEDEE0B53EC102B51EC45
:1025F000180BFEF7F0F941EC190B58A8B0EE490A98
:10260000F0EE690A0123032204F1F001009004F1C5
:1026100060000BF047FE4CA958AA04F5B4709FED7A
:10262000E21B9FEDE30B0323CDE901210090012282
:102630001946E1A00BF00AFD9FEDD90B53EC102BCE
:1026400051EC180BFEF7C7F941EC190B52A8B0EE8C
:10265000490AF0EE690A012303224CA9009004F113
:1026600078000BF01FFE52AA58A906F1080003F0EB
:1026700039FE002526E064A800EBC50090ED001BA4
:10268000B0EE410AF0EE610A53EC182B51EC100B3E
:10269000FEF7A1F93AAA02EBC50203C25EA800EB5D
:1026A000C50090ED001BB0EE410AF0EE610A53EC5C
:1026B000182B51EC100BFEF78EF934AA02EBC50271
:1026C00003C26D1C032DD6DB0AA904F110000CF027
:1026D000A3FD2EA906F138000AAA9FEDB31B9FEDBA
:1026E000B40B0323CDE90020029101221946B3A0C7
:1026F0000BF0ACFC04F59C709FEDB10B01230322A1
:102700002EA900903AA80BF0CDFD28A906F168008B
:102710000AAA9FEDA51B9FEDA60B0323CDE9002080
:10272000029101221946A5A00BF090FC04F5A870B7
:102730009FEDA30B0123032228A900903AA80BF0D8
:10274000B1FD04F5907234A904F110000CF048FFBB
:10275000002522E051EC180B81F0004141EC1A0BEE
:102760009FED8F0B53EC102BFEF735F941EC190B55
:1027700006F1680000EBC50090ED001BB0EE410AC9
:10278000F0EE610A53EC102B51EC190BFEF7B1F887
:1027900022AA02EBC50203C26D1C032DDADB1CAAC0
:1027A00004F5907122A80DF08BFE04F1F0009FED6E
:1027B000800B0123032206F1B80100901CA80BF046
:1027C00071FD002514E004F1F00000EBC50090ED70
:1027D000001BB0EE410AF0EE610A53EC182B51ECED
:1027E000100BFEF786F840AA02EBC50203C26D1C6F
:1027F000032DE8DB46A89FED6E0B0123032240A9C1
:10280000009004F160000BF04DFD96ED081BB0EE5A
:10281000410AF0EE610A53EC102B9FED651B51EC61
:10282000110BFEF7D8F804F5B472C2E9060196ED73
:102830000C1BB0EE410AF0EE610A53EC102B9FED39
:102840005C1B51EC110BFEF7C6F804F5B472C2E93B
:1028500002019FED530B53EC102B51EC180BFEF7BC
:10286000BAF841EC190B9DED482BB0EE420AF0EEA0
:10287000620A94ED1A2BB0EE421AF0EE621A53EC93
:10288000102B51EC110BFDF78DFF41EC1B0B96ED5E
:10289000081BB0EE410AF0EE610A53EC102BFEF774
:1028A0009AF841EC1A0B53EC192BFEF722F8CDE9FC
:1028B00004019FED3B0B53EC102B51EC180BFEF772
:1028C0008AF841EC190B9DED462BB0EE420AF0EE72
:1028D000620A94ED182BB0EE421AF0EE621A53EC35
:1028E000102B51EC110BFDF75DFF41EC1B0B96ED2E
:1028F0000C1BB0EE410AF0EE610A53EC102BFEF710
:102900006AF841EC1A0B53EC192BFDF7F2FFCDE9F5
:1029100006019FED230B53EC102B51EC180BFEF727
:102920005AF841EC190B9DED4A2BB0EE420AF0EE3D
:10293000620A94ED1C2BB0EE421AF0EE621A53ECD0
:10294000102B51EC110BFDF72DFF41EC1A0B53EC42
:10295000192BFDF7CEFFCDE9080104F178009FEDBA
:10296000140B0123032204A900900BF09BFC00250B
:1029700036E00000496E73557064617465000000B4
:102980002E2E5C2E2E5C7372635C616C676F7269B5
:1029900074686D5C496E6176696E732E6300000029
:1029A00000000000000000400000000000000000E7
:1029B000000000000000F03F4E4E0000544E0000AA
:1029C000000000000000F0BF46A800EBC50090ED3D
:1029D000000B04F1600000EBC50080ED000B6D1CE6
:1029E000032DF1DB002514E006F1680000EBC500C3
:1029F00090ED001BB0EE410AF0EE610A53EC182B8B
:102A000051EC100BFDF775FF22AA02EBC50203C2C1
:102A10006D1C032DE8DB22AA64A904F1100004F068
:102A2000CBF804F1300104F110000DF011F806A309
:102A300004224FF4E071AFF2B8000AF05FFE77B005
:102A4000BDEC088BF0BD0000416674657220496ED4
:102A5000735570646174650010B52DED028B82B002
:102A60007148007871A304224FF4A661009076A00B
:102A70000AF044FE6C48007806287DD2DFE800F0BA
:102A80000304081127C1CAE0022067490870C6E0A4
:102A90007548D0F88000012802D1032062490870EF
:102AA000BDE07149604802F0F1FF5F486F4B6E4A2C
:102AB0006F499FED700B0090A1F11000FFF7E6FB4E
:102AC0006E4801F06DFC042057490870A7E0564A93
:102AD0006749103902F1D000FFF746FD524A6849B4
:102AE000A1F5E47000F0E8FA01287DD1654B644A55
:102AF000D83AA2F19001614880380EF03BFC614861
:102B0000D0F8640960A3042240F25E5100904EA008
:102B10000AF0F4FD5B48D0F8640901281CD0524843
:102B2000806B042818D1504890ED020A10EE101A5C
:102B30000846FEF715F841EC180B9FED5A0B53ECC5
:102B4000102BFDF7D6FE4A4A103AC2E91001484957
:102B500001F1200006F022FD01229FED460B4849BD
:102B6000464801F0F3FE012841D13F4890ED010AAB
:102B700010EE101A084600E046E0FDF7F1FF41ECC8
:102B8000180B294890ED341BB0EE410AF0EE610AB3
:102B9000B0EE481AF0EE681A07F0B6F9434880ED37
:102BA0004E0B90ED4E0B8DED000B41A3042240F235
:102BB0006F5125A00AF0A2FD2B48806B20B12A4955
:102BC0002E4803F0B5FD02E02C4803F0ADFF374876
:102BD00090ED4E1BB0EE410AF0EE610A234B274AFE
:102BE0002149A0F5F36000E001E0FFF7BFF82049BC
:102BF0001039224800F086F802F038FC02F0EEFAB4
:102C00000DE003F06BF80AE00748007807A3012203
:102C100040F28F5100900CA00AF070FD00BF00BF81
:102C200002B0BDEC028B10BDF82D0020675F4E4155
:102C3000565F494E532E696E7353746174757320D9
:102C40003D202564000000002E2E5C2E2E5C737249
:102C5000635C616C676F726974686D5C496E617604
:102C6000696E732E63000000702D0020A0540020B8
:102C7000704200207B14AE47E17A843F482F002049
:102C800028440020384B0020675F53544154494387
:102C90005F444554454354494F4E2E7374617465E7
:102CA0003D256400399D52A246DF913FF84900203E
:102CB000675F4E41565F494E532E64743D252E3753
:102CC0006600000010B50A490A48FEF7F5FF0849FA
:102CD0000948FEF781FF00210848FEF763FFFFF770
:102CE000BBFE054A0349D039054802F099FD10BDE5
:102CF000D0240020C82E0020702D0020A0540020D9
:102D00008025002070B52DED028B86B006460D465D
:102D1000D8A3042240F22F41D9A00AF0EFFC0024EE
:102D200083E106F1700000EBC40090ED002BB0EEE3
:102D3000420AF0EE620A95ED022BB0EE421AF0EE76
:102D4000621A53EC102B51EC110BFDF7D2FD6A46C1
:102D500002EBC40203C295ED021BB0EE410AF0EE95
:102D6000610A53EC102B9FEDCE1B51EC110BFDF7BC
:102D7000BAFD41EC180B06F1700000EBC40090EDB9
:102D8000001BB0EE410AF0EE610A53EC102B51EC3F
:102D9000180BFDF7AEFD0A46014606F1700000EB88
:102DA000C40006C006F17000E11C00EBC10090ED0C
:102DB000002BB0EE420AF0EE620A05F1600000EB73
:102DC000C40090ED002BB0EE421AF0EE621A53EC04
:102DD000102B51EC110BFDF786FD05F1600202EBA3
:102DE000C40203C29FEDB00B06F17000E11C00EBC2
:102DF000C10080ED000BE01CC0EB00102044C01CA3
:102E000006F5416101EBC00090ED001BB0EE410AF8
:102E1000F0EE610A05F050FAB0EE408AF0EE608AFA
:102E20009FEDA30B53EC102B51EC180BFDF761FD3C
:102E30000A46014605F1900000EBC40006C006F109
:102E40007000A11D00EBC10090ED002BB0EE420A16
:102E5000F0EE620A05F1780000EBC40090ED002B63
:102E6000B0EE421AF0EE621A53EC102B51EC110B3B
:102E7000FDF739FD0A46014605F1780000EBC40074
:102E800006C09FED890B06F17000A11D00EBC1008B
:102E900080ED000BA01DC0EB00102044801D06F546
:102EA000416101EBC00090ED001BB0EE410AF0EE75
:102EB000610A05F001FA05F1A80000EBC40080EDFD
:102EC000000B06F1700004F1090100EBC10090ED68
:102ED000002BB0EE420AF0EE620A95ED022BB0EE46
:102EE000421AF0EE621A53EC102B51EC110BFDF765
:102EF00000FD41EC180B05F1C00000EBC40090EDA3
:102F0000001BB0EE410AF0EE610A53EC102B51ECBD
:102F1000180BFDF747FC0A46014605F1C00000EB1F
:102F2000C40006C095ED021BB0EE410AF0EE610A46
:102F300053EC102B9FED5A1B51EC110BFDF7D3FCFA
:102F400041EC180B06F1700004F1090100EBC1001F
:102F500090ED001BB0EE410AF0EE610A53EC102B2D
:102F600051EC180BFDF7C5FC06F1700204F10903E2
:102F700002EBC30203C206F17000D91C00EBC100D2
:102F800090ED002BB0EE420AF0EE620A95ED022BB6
:102F9000B0EE421AF0EE621A53EC102B51EC110B0A
:102FA000FDF7A7FC41EC180B05F1D80000EBC400BD
:102FB00090ED001BB0EE410AF0EE610A53EC102BCD
:102FC00051EC180BFDF7EEFB0A46014605F1D8005F
:102FD00000EBC40006C095ED021BB0EE410AF0EE16
:102FE000610A53EC102B9FED2E1B51EC110BFDF7DA
:102FF0007AFC41EC180B06F1700004F10C0100EBB7
:10300000C10090ED001BB0EE410AF0EE610A53ECF6
:10301000102B51EC180BFDF76CFC06F1700204F15B
:103020000C0302EBC30203C2641C032CFFF679AE4F
:1030300005F11002694610460CF098FA05F13001CE
:1030400005F110000CF004FD00240CE005F1300047
:1030500000EBC40090ED000B05F1480000EBC4004C
:1030600080ED000B641C032CF0DB06B0BDEC028B82
:1030700070BD00004B66466565646261636B00006D
:103080002E2E5C2E2E5C7372635C616C676F7269AE
:1030900074686D5C496E6176696E732E6300000022
:1030A000000000000000F03F0000000000000000F1
:1030B00000000000000059402DE9F74F2DED108B66
:1030C000A4B0824617460F21084610F061FC064660
:1030D00097ED060BB0EE409AF0EE609A97ED041B68
:1030E000B0EE410AF0EE610A53EC102B9FEDFE1B8F
:1030F00051EC110BFDF76FFC41EC1C0B97ED081B1D
:10310000B0EE410AF0EE610A53EC102B9FEDF61B76
:1031100051EC110BFDF75FFC41EC1A0B97ED0A1B0C
:10312000B0EE410AF0EE610A53EC102B9FEDEE1B5E
:1031300051EC110BFDF74FFC41EC180B97ED0C1BFC
:10314000B0EE410AF0EE610A53EC102B9FEDE61B46
:1031500051EC110BFDF73FFCCDE9220153EC1A2B8A
:1031600051EC1A0BFDF7C5FBCDE9200153EC182BF0
:1031700051EC180BFDF7BDFBCDE91E0100240BE05F
:103180000AF1600000EBC40090ED000B18A800EB02
:10319000C40080ED000B641C032CF1DB9DED181BBB
:1031A000B0EE410AF0EE610A9DED221B53EC112BAB
:1031B00051EC100BFDF79DFB41EC1D0B9DED181B19
:1031C000B0EE410AF0EE610A9DED1E1B53EC112B8F
:1031D00051EC100BFDF78DFB41EC1B0B9DED1A1B09
:1031E000B0EE410AF0EE610A9DED201B53EC112B6D
:1031F00051EC100BFDF77DFB41EC1E0B0121032070
:1032000010F0C6FB1590002412E007F1680000EBF7
:10321000C40090ED001BB0EE410AF0EE610A51ECE3
:10322000100B81F00041159A02EBC40203C2641C2A
:10323000032CEADB0321084610F0AAFB14900321BB
:10324000084610F0A5FB80460321084610F0A0FBBD
:1032500013900321084610F09BFB129003210846AF
:1032600010F096FB83460321084610F091FB81463F
:103270000321084610F08CFB11900321084610F042
:1032800087FB10900321084610F082FB0F9003216A
:10329000084610F07DFB0E900321084610F078FBE5
:1032A0000D900321084610F073FB0C900321084693
:1032B00010F06EFB0B900321084610F069FB0A909A
:1032C0000321084610F064FB09900F2007F00EFC64
:1032D000089087A3042240F2D91187A00AF00EFAC1
:1032E0002EB3159818B3149808B3B8F1000F1ED078
:1032F0001398E0B11298D0B1BBF1000F17D0B9F11B
:10330000000F14D0119890B1109880B10F9870B13F
:103310000E9860B10D9850B10C9840B10B9830B137
:103320000A9820B1099810B10898002842D17AA3D0
:1033300001224FF4F07170A00AF0E0F9304608F075
:1033400053FB159808F050FB149808F04DFB4046CD
:1033500008F04AFB139808F047FB129808F044FB6A
:10336000584608F041FB484608F03EFB119808F02B
:103370003BFB109808F038FB0F9808F035FB0E98CF
:1033800008F032FB0D9808F02FFB0C9808F02CFB8E
:103390000B9808F029FB0A9808F026FB099808F01A
:1033A00023FB089808F020FB002024B0BDEC108B14
:1033B000BDE8FE8F97ED121BB0EE410AF0EE610AF8
:1033C00051EC100B81F000410D9AC2E9020197ED1A
:1033D000100B0D9880ED040B53EC1C2B51EC1D0BC6
:1033E000FDF787FA0C9AC2E904010C9880ED0CEB0A
:1033F00051EC1B0B81F000410C9AC2E90E0151EC1B
:103400001B0B81F0004141EC1F0B53EC192BFDF716
:1034100070FA0C9AC2E9100118A80B9906F072F81C
:1034200007F180000A9906F06DF8DDE9141006F046
:1034300069F888ED028B53EC192B51EC180BFDF752
:1034400058FAC8E9040151EC1A0B81F00041C8E9AF
:10345000060113989FED240B03231A460090DDE923
:103460000C100AF01FFF0AF59070129906F04AF846
:103470000B990F989FED2B1B9FED1B0B03231A46F7
:10348000CDE900180290194628A00AF0DFFD9FED53
:10349000280B03231A46CDF800B00A990F980AF0BA
:1034A00001FF0E989FED100B03231A46009013990D
:1034B0000D980AF0F7FE0E990B989FED1A1B9FEDE1
:1034C0000A0B03231A468DE80302194617A00AF0D7
:1034D000BDFD97ED042BB0EE420AF0EE620A97EDC7
:1034E000022BB0EE421A27E0000000000000F03F7F
:1034F0004B66466B000000002E2E5C2E2E5C737215
:10350000635C616C676F726974686D5C496E61764B
:10351000696E732E6300000050206973204E554C75
:103520004C00000000000000000000004E4E0000B3
:10353000000000000000F0BFF0EE621A53EC102B08
:1035400051EC110BFDF7D5F9CDE9160197ED021BF2
:10355000B0EE410AF0EE610A53EC102B9FEDFE1B1A
:1035600051EC110BFDF7C5F9CDE9000197ED021BF8
:10357000B0EE410AF0EE610A53EC102B9DED001BFA
:1035800051EC110BFDF7B5F941EC1F0B9FEDF40B5E
:1035900053EC102BFDF706F99FEDF30B53EC102BBA
:1035A000CDE902019DED020B51EC100BFDF7A1F9E5
:1035B000CDE904019DED160B53EC102B9DED040B92
:1035C00051EC100BFDF795F9CDE9060199ED041BBF
:1035D000B0EE410AF0EE610A53EC102B9DED061B94
:1035E00051EC110BFDF782F9C9E9040199ED101BAB
:1035F000B0EE410AF0EE610A9FEDDD1B53EC112B9A
:1036000051EC100BFDF7CEF8C9E9100153EC192B62
:1036100051EC1D0BFDF76DF9109AC2E9020151EC56
:103620001E0B81F00041109AC2E90C0151EC1B0BFA
:1036300081F0004141EC1F0B53EC1C2BFDF759F9B5
:10364000109AC2E90E010AF1100009990BF0E4FD8D
:10365000C9A303210846139A02F054F8C9A34A46A5
:103660000321084602F04EF8C9A303210846109A28
:1036700002F048F8C9A303210846099A02F042F86B
:10368000C9A303210846149A02F03CF8C9A30321F8
:103690000846129A02F036F8C9A3424603210846AA
:1036A00002F030F8C9A35A460321084602F02AF86E
:1036B000C9A303210846119A02F024F8C9A332468F
:1036C0000F21084602F01EF800241FE2002519E22F
:1036D000032C38DA032D36DA24B1012C12D0022C57
:1036E00030D11FE005EB45000119149800EBC10033
:1036F00090ED000BC5EB0510204406EBC00080EDFB
:10370000000B1FE005EB45000119149800EBC10008
:1037100090ED000BC5EB0510204406EBC00080EDDA
:10372000000B0FE005EB45000119149800EBC100F8
:1037300090ED000BC5EB0510204406EBC00080EDBA
:10374000000B00BFDDE1032C3EDB062C3CDA032D31
:103750003ADA032C04D0042C13D0052C33D121E009
:10376000E01E05EB45010144129800EBC10090ED0D
:10377000000BC5EB0510204406EBC00080ED000BEC
:1037800021E0E01E05EB45010144129800EBC10069
:1037900090ED000BC5EB0510204406EBC00080ED5A
:1037A000000B10E0E01E05EB45010144129800EB10
:1037B000C10090ED000BC5EB0510204406EBC000E6
:1037C00080ED000B00BF9CE1032C3ADA032D38DBBF
:1037D000062D36DA24B1012C12D0022C30D11FE094
:1037E000E81E00EB4000204408EBC00090ED000B09
:1037F000C5EB0510204406EBC00080ED000B1FE078
:10380000E81E00EB4000204408EBC00090ED000BE8
:10381000C5EB0510204406EBC00080ED000B0FE067
:10382000E81E00EB4000204408EBC00090ED000BC8
:10383000C5EB0510204406EBC00080ED000B00BF77
:103840005FE1032C40DB062C3EDA032D3CDB062D2A
:103850003ADA032C04D0042C13D0052C33D121E008
:10386000E01EE91E01EB410108440BEBC00090EDA6
:10387000000BC5EB0510204406EBC00080ED000BEB
:1038800021E0E01EE91E01EB410108440BEBC00002
:1038900090ED000BC5EB0510204406EBC00080ED59
:1038A000000B10E0E01EE91E01EB410108440BEBA8
:1038B000C00090ED000BC5EB0510204406EBC000E6
:1038C00080ED000B00BF1CE1062C43DB092C41DA24
:1038D000032D3FDB062D3DDA062C04D0072C15D036
:1038E000082C12D125E0A01FE91E01EB4101014483
:1038F0000AF5B47000EBC10090ED000BC5EB0510AC
:10390000204406EBC00080ED000B76E0A01FE91E0E
:1039100001EB410101440AF5B47000EBC10090EDE8
:10392000000BC5EB0510204406EBC00080ED000B3A
:1039300063E0A01FE91E01EB410101440AF5B470E8
:1039400000EBC10090ED000BC5EB0510204406EB29
:10395000C0004FE052E000009F3D30EBF966183F99
:103960003EF4B42EFB96853F69B696FD868F2340C4
:10397000D785107122E3C93E4B66466B2D4D6170B1
:10398000000000004B66466B2D4D76700000000075
:103990004B66466B2D4D7070000000004B66466B09
:1039A0002D436E62000000004B66466B2D4D616139
:1039B000000000004B66466B2D4D76610000000054
:1039C0004B66466B2D4D6176000000004B66466BE2
:1039D0002D4D7676000000004B66466B2D4D7076BF
:1039E000000000004B66466B2D4674206265666FD2
:1039F0007265000080ED000B00BF82E0032C14DA3A
:103A0000062D12DB092D10DAA81F00EB400001196A
:103A1000139800EBC10090ED000BC5EB051020449E
:103A200006EBC00080ED000B6BE0032C16DB062CD0
:103A300014DA062D12DB092D10DAE01EA91F01EBA6
:103A40004101084409EBC00090ED000BC5EB0510E7
:103A5000204406EBC00080ED000B52E0062C17DB83
:103A6000092C15DA062D13DB092D11DAA01FA91F69
:103A700001EB41010144109800EBC10090ED000BF7
:103A8000C5EB0510204406EBC00080ED000B38E0CC
:103A9000032C1CDA092D1ADB0C2D18DAA5F109000C
:103AA00000EB40000119099800EBC10090ED001BEC
:103AB000B0EE410AF0EE610A51EC100B81F00041CA
:103AC000C5EB0512224406EBC20203C219E0032C27
:103AD00017DB062C15DA0C2D13DB0F2D11DAE01E87
:103AE000A5F10C0101EB41010144099800EBC10073
:103AF00090ED000BC5EB0510204406EBC00080EDF7
:103B0000000B6D1C0F2DFFF6E3AD641C0F2CFFF6B0
:103B1000DDAD35A332460F21084601F0F3FD96EDE9
:103B20002C0B8DED000B32A3042240F24921AFF2A1
:103B3000386009F0E3FD96EDD40B8DED000B33A357
:103B4000042240F24A21AFF2506009F0D7FD3598C7
:103B500000909AED021BB0EE410AF0EE610A0F23CD
:103B60001A46314608980AF09DFB2FA30F210846FC
:103B7000359A01F0C7FD304607F036FF159807F07B
:103B800033FF149807F030FF404607F02DFF1398DD
:103B900007F02AFF129807F027FF584607F024FF86
:103BA000484607F021FF119807F01EFF109807F014
:103BB0001BFF0F9807F018FF0E9807F015FF0D98E0
:103BC00007F012FF0C9807F00FFF0B9807F00CFF9F
:103BD0000A9807F009FF099807F006FF089807F010
:103BE00003FF0120FFF7E1BB4B66466B2D467400D7
:103BF0004B66466B2D46745B37202B2031202A20E4
:103C00004E415D3D252E3766000000004B66466B39
:103C10002D46745B31202B2037202A204E415D3DFC
:103C2000252E3766000000004B66466B2D466B0064
:103C30002DE9F05F8046894693469A46DDE90A679A
:103C4000F948D0F86409022877D10025D4E1701E24
:103C5000A84273DD00249CE1062D0ADA032C08DA61
:103C60009FEDF20B04FB065007EBC00080ED000B4C
:103C70008EE1062D12DA032C10DB092C0EDAE01E81
:103C8000A84202D19FEDEB0B01E09FEDE80B04FB96
:103C9000065007EBC00080ED000B79E1062D0CDA31
:103CA000092C0ADB0F2C08DA9FEDE00B04FB065011
:103CB00007EBC00080ED000B6AE1032D79DA0F2CD1
:103CC00077DB122C75DABDBB0F2C04D0102C12D070
:103CD000112C30D11FE098ED001BB0EE410AF0EE40
:103CE000610A51EC100B81F0004104FB065207EB16
:103CF000C20203C21FE098ED061BB0EE410AF0EECF
:103D0000610A51EC100B81F0004104FB065207EBF5
:103D1000C20203C20FE098ED0C1BB0EE410AF0EEB8
:103D2000610A51EC100B81F0004104FB065207EBD5
:103D3000C20203C200BF2BE101E061E12DE1012DD0
:103D400038D10F2C04D0102C12D0112C30D11FE000
:103D500098ED021BB0EE410AF0EE610A51EC100B37
:103D600081F0004104FB065207EBC20203C21FE0D0
:103D700098ED081BB0EE410AF0EE610A51EC100B11
:103D800081F0004104FB065207EBC20203C20FE0C0
:103D900098ED0E1BB0EE410AF0EE610A51EC100BEB
:103DA00081F0004104FB065207EBC20203C200BFD0
:103DB000EEE039E0022DBED10F2C04D0102C12D031
:103DC000112C30D11FE098ED041BB0EE410AF0EE4B
:103DD000610A51EC100B81F0004104FB065207EB25
:103DE000C20203C21FE098ED0A1BB0EE410AF0EEDA
:103DF000610A51EC100B81F0004104FB065207EB05
:103E0000C20203C20FE098ED101BB0EE410AF0EEC3
:103E1000610A51EC100B81F0004104FB065207EBE4
:103E2000C20203C200BFB3E0032D3CDB0F2C3ADB20
:103E3000122C38DA032D37D10F2C04D0102C12D0CD
:103E4000112C30D11FE099ED001BB0EE410AF0EECD
:103E5000610A51EC100B81F0004104FB065207EBA4
:103E6000C20203C21FE099ED061BB0EE410AF0EE5C
:103E7000610A51EC100B81F0004104FB065207EB84
:103E8000C20203C20FE099ED0C1BB0EE410AF0EE46
:103E9000610A51EC100B81F0004104FB065207EB64
:103EA000C20203C200BF73E0042D37D10F2C04D02F
:103EB000102C12D0112C30D11FE099ED021BB0EE66
:103EC000410AF0EE610A51EC100B81F0004104FB55
:103ED000065207EBC20203C21FE099ED081BB0EEC9
:103EE000410AF0EE610A51EC100B81F0004104FB35
:103EF000065207EBC20203C20FE099ED0E1BB0EEB3
:103F0000410AF0EE610A51EC100B81F0004104FB14
:103F1000065207EBC20203C200BF39E0052D37D1BC
:103F20000F2C04D0102C12D0112C30D11FE099EDA1
:103F3000041BB0EE410AF0EE610A51EC100B81F067
:103F4000004104FB065207EBC20203C21FE099EDD9
:103F50000A1BB0EE410AF0EE610A51EC100B81F041
:103F6000004104FB065207EBC20203C20FE099EDC9
:103F7000101BB0EE410AF0EE610A51EC100B81F01B
:103F8000004104FB065207EBC20203C200BF00BFA0
:103F9000641C5445FFF660AE2DE0002429E0092C96
:103FA00008D19BED000B04FB065007EBC00080ED31
:103FB000000B1DE00A2C08D19BED020B04FB065000
:103FC00007EBC00080ED000B12E00B2C08D19BED3D
:103FD000040B04FB065007EBC00080ED000B07E06C
:103FE0009FED120B04FB065007EBC00080ED000BA9
:103FF000641C5445D3DB6D1CB542FFF628AECCE102
:104000000025C7E1B5427CDA0024A6E1062D15DAC9
:10401000032C13DA9FED050B04FB065007EBC000E1
:1040200080ED000B98E10000384B002000000000FC
:1040300000000000000000000000F03F062D12DA32
:10404000032C10DB092C0EDAE01EA84202D11FED72
:10405000070B01E01FED0B0B04FB065007EBC00044
:1040600080ED000B78E1062D0CDA092C0ADB0F2C11
:1040700008DA1FED120B04FB065007EBC00080EDC1
:10408000000B69E1032D78DA0F2C76DB122C74DA41
:10409000C5BB0F2C04D0102C12D0112C30D11FE036
:1040A00098ED001BB0EE410AF0EE610A51EC100BE6
:1040B00081F0004104FB065207EBC20203C21FE07D
:1040C00098ED061BB0EE410AF0EE610A51EC100BC0
:1040D00081F0004104FB065207EBC20203C20FE06D
:1040E00098ED0C1BB0EE410AF0EE610A51EC100B9A
:1040F00081F0004104FB065207EBC20203C200BF7D
:104100002AE12EE1FFE7012D38D10F2C04D0102C2D
:1041100012D0112C30D11FE098ED021BB0EE410AF5
:10412000F0EE610A51EC100B81F0004104FB0652E5
:1041300007EBC20203C21FE098ED081BB0EE410A74
:10414000F0EE610A51EC100B81F0004104FB0652C5
:1041500007EBC20203C20FE098ED0E1BB0EE410A5E
:10416000F0EE610A51EC100B81F0004104FB0652A5
:1041700007EBC20203C200BFEEE039E0022D36D1E8
:104180000F2C04D0102C12D0112C30D11FE098ED40
:10419000041BB0EE410AF0EE610A51EC100B81F005
:1041A000004104FB065207EBC20203C21FE098ED78
:1041B0000A1BB0EE410AF0EE610A51EC100B81F0DF
:1041C000004104FB065207EBC20203C20FE098ED68
:1041D000101BB0EE410AF0EE610A51EC100B81F0B9
:1041E000004104FB065207EBC20203C200BFB3E06A
:1041F000032D3CDB0F2C3ADB122C38DA032D37D1A0
:104200000F2C04D0102C12D0112C30D11FE099EDBE
:10421000001BB0EE410AF0EE610A51EC100B81F088
:10422000004104FB065207EBC20203C21FE099EDF6
:10423000061BB0EE410AF0EE610A51EC100B81F062
:10424000004104FB065207EBC20203C20FE099EDE6
:104250000C1BB0EE410AF0EE610A51EC100B81F03C
:10426000004104FB065207EBC20203C200BF73E029
:10427000042D37D10F2C04D0102C12D0112C30D19A
:104280001FE099ED021BB0EE410AF0EE610A51EC1D
:10429000100B81F0004104FB065207EBC20203C27F
:1042A0001FE099ED081BB0EE410AF0EE610A51ECF7
:1042B000100B81F0004104FB065207EBC20203C25F
:1042C0000FE099ED0E1BB0EE410AF0EE610A51ECE1
:1042D000100B81F0004104FB065207EBC20203C23F
:1042E00000BF39E0052D37D10F2C04D0102C12D08F
:1042F000112C30D11FE099ED041BB0EE410AF0EE15
:10430000610A51EC100B81F0004104FB065207EBEF
:10431000C20203C21FE099ED0A1BB0EE410AF0EEA3
:10432000610A51EC100B81F0004104FB065207EBCF
:10433000C20203C20FE099ED101BB0EE410AF0EE8D
:10434000610A51EC100B81F0004104FB065207EBAF
:10435000C20203C200BF00BF641C5445FFF656AE44
:1043600017E0002413E0022C08D11FEDCE0B04FB54
:10437000065007EBC00080ED000B07E01FEDD50BEA
:1043800004FB065007EBC00080ED000B641C544595
:10439000E9DB6D1CB542FFF635AEBDE8F09F0000CD
:1043A00070B50546002485A30422EF2185A009F0FD
:1043B000A5F900BF8DE0002C0CDB022C0ADA2146A7
:1043C0009FED882B9FED891B9FED8A0B2846FDF7FB
:1043D00083FE7DE0022C0AD121469FED822B9FEDCA
:1043E000831B9FED840B2846FDF776FE70E0032CBF
:1043F0000CDB052C0ADA21469FED802B9FED811BFB
:104400009FED7C0B2846FDF767FE61E0052C0AD185
:1044100021469FED7A2B9FED7B1B9FED760B284667
:10442000FDF75AFE54E0062C0CDB082C0ADA214674
:104430009FED762B9FED771B9FED6E0B2846FDF7CA
:104440004BFE45E0082C0AD121469FED742B9FEDD1
:104450006D1B9FED680B2846FDF73EFE38E0092CEA
:104460000CDB0C2C0ADA21469FED622B9FED6D1BB5
:104470009FED600B2846FDF72FFE29E00C2C0CDB8E
:104480000E2C0ADA21469FED5B2B9FED681B9FEDFA
:10449000590B2846FDF720FE1AE00E2C0AD12146C2
:1044A0009FED542B9FED611B9FED520B2846FDF7AE
:1044B00013FE0DE00F2C0BDB122C09DA21469FEDC9
:1044C0004D2B9FED501B9FED4B0B2846FDF704FE37
:1044D000641C0F2CFFF66FAF56A305F541620F2148
:1044E000084601F00FF9002429E0032C08DA9FEDBB
:1044F000520B05F53E6000EBC40080ED000B1DE0A3
:10450000052C08DA9FED4E0B05F53E6000EBC4006C
:1045100080ED000B12E0052C08D19FED4B0B05F54B
:104520003E6000EBC40080ED000B07E09FED480B00
:1045300005F53E6000EBC40080ED000B641C062C0A
:10454000D3DB2846FDF7ACFD9FED430B85ED1A0B41
:104550009FED2C0B85ED180B00242CE005F53E603B
:1045600000EBC40090ED001BB0EE410AF0EE610AD2
:104570009FED3B1B53EC112B51EC100BFCF7B9F9E1
:1045800005EBC40203C205F53E6000EBC40090EDEC
:10459000001BB0EE410AF0EE610A9FED331B53ECB5
:1045A000112B51EC100BFCF7A4F905F1300202EBD2
:1045B000C40203C2641C062CD0DB70BD4B66496E7E
:1045C000697400002E2E5C2E2E5C7372635C616C2D
:1045D000676F726974686D5C496E6176696E732E7F
:1045E0006300000050FDA543A15A603EB91F14DBD3
:1045F000A1F6333F00000000000000003BC29A8398
:10460000AD8A443E000000000000F03F32B4BBCE53
:104610003953983DB23525FB32AD1B3D00000000FB
:10462000000471400C6E9F88C3B6563E1A6A26CFAE
:104630004813193F500000008DEDB5A0F7C6D03EDD
:10464000E30D220787B6B13C0AD7A3703D0AB73FF6
:104650000000000000001640666666666666EE3F73
:1046600000000000000059407B14AE47E17A843F0F
:104670002DE9FF4F8DB08B46DDE91B78414638466A
:104680000FF086F90546414640460FF081F906468F
:10469000414638460FF07CF90446384606F026FAC3
:1046A0000C90414640460FF073F90B904146384656
:1046B0000FF06EF98146394638460FF069F98246A7
:1046C000394638460FF064F90A90394638460FF0FB
:1046D0005FF90990394640460FF05AF9089039467B
:1046E00038460FF055F90790394638460FF050F923
:1046F0000690394638460FF04BF90590002004909B
:10470000C5B1BEB1B4B10C98A0B10B9890B1B9F1DC
:10471000000F0FD0BAF1000F0CD00A9850B10998D1
:1047200040B1089830B1079820B1069810B10598AB
:10473000002831D16EA3012240F2BB316FA008F0F6
:10474000DDFF284607F050F9304607F04DF92046C6
:1047500007F04AF90C9807F047F90B9807F044F96D
:10476000484607F041F9504607F03EF90A9807F02D
:104770003BF9099807F038F9089807F035F90798D8
:1047800007F032F9069807F02FF9059807F02CF991
:10479000002011B0BDE8F08F60A3042240F2C131C7
:1047A00056A008F0ABFF4346424630461A9909F03E
:1047B000DBFB01233A460D991D9809F0D5FB0F98B4
:1047C0009FED5A1B9FED5B0B3B4642463946CDE9B8
:1047D00000B0029559A009F039FC0F989FED551BC8
:1047E0009FED540B3B46424641468DE8610054A084
:1047F00009F02CFC4346424631460B9809F0B4FBC5
:104800004146304609F0C0FB0490E8BB9FED471BD2
:104810009FED480B43464246394649A0CDE9005634
:10482000029409F013FC1D9910989FED421B9FED17
:10483000410B43460122CDE900400291394640A098
:1048400009F004FC0B989FED391B9FED3A0B434692
:1048500042463946CDE90109009439A009F0F6FB3A
:104860009FED321B9FED330B43463A46394633A04A
:10487000CDE9014ACDF8009009F0E8FB06989FEDDC
:10488000310B3B463A4600E004E051460090584662
:1048900009F008FD39461E9A06980CF0B3FE28462A
:1048A00007F0A2F8304607F09FF8204607F09CF882
:1048B0000C9807F099F80B9807F096F8484607F01F
:1048C00093F8504607F090F80A9807F08DF8099889
:1048D00007F08AF8089807F087F8079807F084F837
:1048E000069807F081F8059807F07EF8012050E758
:1048F00050206973204E554C4C0000002E2E5C2E2B
:104900002E5C7372635C616C676F726974686D5C56
:10491000496E6176696E732E630000004B664D65CB
:104920006173557064617465000000000000000050
:1049300000000000000000000000F03F4E540000A6
:104940004E4E0000000000000000F0BF2DE9F047CF
:104950002DED068B84B004460D46B0EE408AF0EE95
:10496000608A924601210F200FF012F880460F2135
:1049700008460FF00DF806460F2108460FF008F81C
:1049800007460F2108460FF003F881465AA3042278
:104990004FF417715CA008F0B1FEB8F1000F04D01D
:1049A0001EB117B1B9F1000F18D15FA3012240F277
:1049B0005F2155A008F0A2FE404607F015F83046EA
:1049C00007F012F8384607F00FF8484607F00CF8E1
:1049D000002004B0BDEC068BBDE8F08758A304F5B9
:1049E00041620F21084600F08DFE59A32A460F218F
:1049F000084600F087FE04F1700001469FED591B48
:104A00009FED5A0B0F230122CDE900510290194668
:104A100058A009F01BFB04F541609FED521B9FED70
:104A2000530B0F231A461946CDE90106009551A0F4
:104A300009F00CFB50A332460F21084600F062FE3D
:104A40009FED481B9FED490B0F231A4619464FA0B7
:104A5000CDE90157009609F0F9FA4DA304F1E802F7
:104A60000F21084600F04EFE5046FCF723F841ECBB
:104A70001A0B53EC182BFBF73CFF41EC190B8DED97
:104A8000009B48A3042240F26A211FA008F036FED2
:104A90004BA33A460F21084600F034FE5046FCF77F
:104AA00009F841EC1A0B53EC182BFBF722FF41ECF1
:104AB000190B04F54160B0EE490AF0EE690A0F23C4
:104AC0001A4604F1E8010090384609F0EBFB41A3D7
:104AD00004F541620F21084600F014FE404606F03E
:104AE00083FF304606F080FF384606F07DFF4846DB
:104AF00006F07AFF01206CE74B6654696D655570CE
:104B000064617465000000002E2E5C2E2E5C7372B2
:104B1000635C616C676F726974686D5C496E617625
:104B2000696E732E63000000584B2C46502C465083
:104B3000462C50786B5F74656D70206661696C00FF
:104B40004B6654696D65557064617465312D500014
:104B50004B6654696D65557064617465312D466BA3
:104B60000000000000000000000000000000000045
:104B70000000F03F4E4E00004B6654696D65557065
:104B800064617465312D4650000000004E540000F1
:104B90004B6654696D65557064617465312D516B58
:104BA000000000004B6654696D6555706461746562
:104BB0002D6D202A206E74733D252E37660000006F
:104BC0004B6654696D65557064617465322D46504D
:104BD000460000004B6654696D65557064617465EC
:104BE000322D50002DE9F041AEB007460C46154677
:104BF0001E46DDF8D0801CA938460AF00DFB0AA835
:104C00001CA99FED141B9FED150B03231A46CDE93C
:104C100000410290194613A009F018FA04A80AA945
:104C20009FED0C1B9FED0D0B03230122CDE9001618
:104C3000029019460BA009F009FA9FED080B012319
:104C4000032204A92846CDF8008009F02BFB2EB0E2
:104C5000BDE8F0810000000000000000000000003E
:104C60000000F03F4E4E00002DE9F04F2DED088B77
:104C7000FDB0054688469146B0EE40BAF0EE60BA07
:104C80009B46B0EE418AF0EE618ADDF83CA2909F2F
:104C90009FEDC90B8DED040B95ED0C1BB0EE410A99
:104CA000F0EE610A02F018FEB0EE409AF0EE609A63
:104CB00095ED0E1BB0EE410AF0EE610A03F098FA92
:104CC000B0EE40AAF0EE60AA53EC192B51EC1A0B8F
:104CD000FBF781FECDE9060195ED0C1BB0EE410A14
:104CE000F0EE610A02F0F8FDB0EE409AF0EE609A44
:104CF00095ED0E1BB0EE410AF0EE610A02F0ECFDFC
:104D0000B0EE40AAF0EE60AA53EC192B51EC1A0B4E
:104D1000FBF761FECDE908016AA905F59C7004F076
:104D2000F1FB46A905F110000AF076FA58A86AA925
:104D300046AA9FEDA11B9FEDA20B0323CDE9002105
:104D400002901A461946A0A009F080F934A946AA93
:104D500005F5B4709FED981B9FED990B0323CDE9EA
:104D6000012100901A46194697A009F06FF92EAA62
:104D700005F1600005F5B4719FED8F1B9FED900B61
:104D80000323CDE901020091012219468EA009F00A
:104D90005DF928A858A99FED881B9FED890B032377
:104DA0000122CDE9001B0290194687A009F04EF9B7
:104DB0001CA89FED830B0123032228A9009005F175
:104DC000600009F06FFA51EC180B81F0004141ECE2
:104DD000190B16A8B0EE490AF0EE690A0123032266
:104DE00005F1F00100901CA809F05CFA22A834A992
:104DF0009FED711B9FED720B03230122CDE9001B78
:104E00000290194670A009F021F910A89FED6C0BD3
:104E10000123032222A9009005F1780009F042FA4B
:104E200051EC180B81F0004141EC190B0AA8B0EECF
:104E3000490AF0EE690A012303222EA9009010A866
:104E400009F030FA6148D0F86409022861D10024E1
:104E500000263DE0032C1CDA08EBC40090ED002B8B
:104E6000B0EE420AF0EE620A16A800EBC40090ED24
:104E7000002BB0EE421AF0EE621A53EC102B51ECFC
:104E8000110BFBF730FD3246761C07EBC20203C262
:104E90001DE0E01E09EBC00090ED002BB0EE420AD1
:104EA000F0EE620AE01E0AA901EBC00090ED002BB3
:104EB000B0EE421AF0EE621A53EC102B51EC110BCB
:104EC000FBF711FD3246761C07EBC20203C2641CDD
:104ED000062CBFDB95ED162BB0EE420AF0EE620A0F
:104EE00095ED102BB0EE421AF0EE621A53EC102B37
:104EF00051EC110BFBF7F7FC07EBC60203C29198CC
:104F0000CDE900A004AA34A958A88E9BFEF790FE14
:104F10004DE0002400263FE0032C1CDA08EBC4001F
:104F200090ED002BB0EE420AF0EE620A16A800EBFC
:104F3000C40090ED002BB0EE421AF0EE621A53EC72
:104F4000102B51EC110BFBF7CEFC3246761C07EB15
:104F5000C20203C21FE0062C1DDAE01E09EBC000EE
:104F600090ED002BB0EE420AF0EE620AE01E0AA9B4
:104F700001EBC00090ED002BB0EE421AF0EE621A89
:104F800053EC102B51EC110BFBF7ADFC3246761CA9
:104F900007EBC20203C2641C5445BDDB9198CDE906
:104FA00000A0002234A958A88E9BFEF741FE7DB0D8
:104FB000BDEC088BBDE8F08F000000000000000091
:104FC000000000000000F03F4E4E0000384B002073
:104FD0002DE9F04180460E46174637A3042240F2E1
:104FE000833138A008F08AFB3E48D0F864090228D3
:104FF00030D000242BE0B44214DA00250FE0AC429C
:1050000004D108EBC40090ED000B01E09FED360BDE
:1050100005FB064007EBC00080ED000B6D1CB542A0
:10502000EDDB13E000250FE0AC4204D108EBC40037
:1050300090ED000B01E09FED2C0B05FB064007EB0C
:10504000C00080ED000B6D1CB542EDDB641CB4426A
:10505000D1DB2EE000242AE0701EA04214DD0025E2
:105060000FE0AC4204D108EBC40090ED000B01E06E
:105070009FED1D0B05FB064007EBC00080ED000B0C
:105080006D1CB542EDDB11E000250DE0AC4202D114
:105090009FED170B01E09FED140B05FB064007EB9E
:1050A000C00080ED000B6D1CB542EFDB641CB44208
:1050B000D2DBBDE8F08100004D6174726978526BFB
:1050C000000000002E2E5C2E2E5C7372635C616CFF
:1050D000676F726974686D5C496E6176696E732E74
:1050E00063000000384B00200000000000000000BA
:1050F00050FDA543A15A603E2DE9FE4F80460E4665
:1051000017469946DDE90C5A012128460EF040FC6D
:10511000044664B914A3012240F25A3114A008F0E5
:10512000EDFA204606F060FC0020BDE8FE8F9FED02
:10513000181B9FED190B4B460122294618A0CDE9FB
:105140000076029408F082FF9FED160B01232A4699
:1051500021464046CDF800A009F0A4F8204606F00C
:1051600043FC0120E1E700004858206661696C00BB
:105170002E2E5C2E2E5C7372635C616C676F72699D
:1051800074686D5C496E6176696E732E6300000011
:105190000000000000000000000000000000F03FE0
:1051A0004E4E0000000000000000F0BF00BFFEE710
:1051B0007047000010B5002807DA0A07140E054AE8
:1051C00000F00F031B1FD45403E00A07130E024A1A
:1051D000135410BD18ED00E000E400E000B52DED23
:1051E000068B87B06A4B042240F2075169A008F091
:1051F00085FA7048806B70A304224FF4A16100907F
:1052000064A008F07BFA6B4890ED010A10EE101ACA
:105210000846FBF7A5FC41EC180B8DED008B6AA34B
:10522000042240F209515BA008F068FA614890ED51
:10523000040A10EE101A0846FBF792FC41EC180B1A
:105240005C4890ED030A10EE101A0846FBF788FC44
:1052500041EC190B574890ED020A10EE101A08465F
:10526000FBF77EFC41EC1A0B8DED048B8DED029B60
:105270008DED00AB58A3042240F20B5145A008F07D
:105280003DFA4C4890ED070A10EE101A0846FBF75D
:1052900067FC41EC180B474890ED060A10EE101A17
:1052A0000846FBF75DFC41EC190B424890ED050AFE
:1052B00010EE101A0846FBF753FC41EC1A0B8DED6B
:1052C000048B8DED029B8DED00AB4AA3042240F2CE
:1052D0000C5130A008F012FA364890ED0A0A10EE90
:1052E000101A0846FBF73CFC41EC180B314890EDD6
:1052F000090A10EE101A0846FBF732FC41EC190BB4
:105300002C4890ED080A10EE101A0846FBF728FC0E
:1053100041EC1A0B8DED048B8DED029B8DED00ABF6
:105320003BA3042240F20D511AA008F0E7F92148EE
:1053300090F84800012827D11E4890ED180B8DEDFC
:10534000040B90ED160B8DED020B90ED140B8DED13
:10535000000B36A304224FF4A2610EA008F0CEF990
:10536000144890ED1E0B8DED040B90ED1C0B8DED94
:10537000020B90ED1A0B8DED000B34A3042240F2CA
:10538000115104A008F0BAF907B0BDEC068B00BDBE
:10539000B44B01082E2E5C2E2E5C7372635C616C24
:1053A000676F726974686D5C496E6176696E732EA1
:1053B00063000000702D0020676E73737374617456
:1053C00075733D25640000006770737365636F6ECD
:1053D000643D252E33660000676E73732D616E6722
:1053E0006C653D5B252E37662C252E37662C252EC9
:1053F00037665D00676E73732D706F733D5B252E8E
:1054000037662C252E37662C252E37665D0000006A
:10541000676E73732D76656C3D5B252E37662C2584
:105420002E37662C252E37665D000000676E73737D
:105430002D706F737374643D5B252E37662C252E9B
:1054400037662C252E37665D00000000676E73738B
:105450002D76656C7374643D5B252E37662C252E86
:1054600037662C252E37665D0000000000B52DED57
:10547000048B87B06D4B042240F2FB416CA008F016
:105480003DF9734890ED4E0B8DED020BA0F5E05009
:1054900090ED340B8DED000B6EA3042240F2FC4125
:1054A00063A008F02BF9714890ED0E1BB0EE410A95
:1054B000F0EE610A9FED6E1B53EC112B51EC100BBB
:1054C000FBF717FA41EC180B684890ED0C1BB0EE97
:1054D000410AF0EE610A9FED661B53EC112B51EC73
:1054E000100BFBF706FA41EC190B604890ED100B1E
:1054F0008DED040B8DED028B8DED009B5EA30422E0
:1055000040F2FE414AA008F0F9F8584890ED201BFF
:10551000B0EE410AF0EE610A9FED551B53EC112BE2
:1055200051EC100BFBF7E5F941EC180B4F4890EDEF
:105530001E1BB0EE410AF0EE610A9FED4D1B53ECCD
:10554000112B51EC100BFBF7D4F941EC190B474828
:1055500090ED220B8DED040B8DED028B8DED009BFC
:105560004CA3042240F2FF4131A008F0C7F83F48A5
:1055700090ED2C1BB0EE410AF0EE610A9FED3C1B52
:1055800053EC112B51EC100BFBF7B3F941EC180B5A
:10559000364890ED2A1BB0EE410AF0EE610A9FED0D
:1055A000341B53EC112B51EC100BFBF7A2F941EC1F
:1055B000190B2E4890ED2E0B8DED040B8DED028B0B
:1055C0008DED009B3AA304224FF4A06118A008F0CF
:1055D00095F8264890ED1C0B8DED040B90ED1A0B01
:1055E0008DED020B90ED180B8DED000B37A304220F
:1055F00040F201510EA008F081F81C4890ED280BF4
:105600008DED040B90ED260B8DED020B90ED240B30
:105610008DED000B34A3042240F2025104A008F0E7
:105620006DF807B0BDEC048B00BD00006C4B0108A9
:105630002E2E5C2E2E5C7372635C616C676F7269D8
:1056400074686D5C496E6176696E732E630000004C
:10565000F8490020696D752E7365636F6E643D2592
:105660002E33662C64743D252E3466006042002083
:10567000F8C1631ADCA54C40696E732D6174743DEA
:105680005B252E37662C252E37662C252E37665D3A
:1056900000000000696E732D706F733D5B252E371F
:1056A000662C252E37662C252E37665D00000000FF
:1056B000696E732D706F737374643D5B252E37664E
:1056C0002C252E37662C252E37665D00696E732DCE
:1056D00076656C3D5B252E37662C252E37662C258E
:1056E0002E37665D00000000696E732D76656C7361
:1056F00074643D5B252E37662C252E37662C252EAF
:1057000037665D002DE9F0438BB004460D469046A8
:105710009946202103A8FAF7DEFD4FF4805129486D
:10572000FAF7D9FD002C01DD002D08DC26A30122AB
:1057300040F21C512BA0CDE9004507F0DFFF31A35B
:10574000042240F21F5127A0CDF8009007F0D6FFA9
:10575000002621E0002718E0202103A8FAF7BBFD6E
:1057600007FB046008EBC00090ED001BB0EE410A9F
:10577000F0EE610A53EC102B24A103A801F034FCD5
:1057800003A91048FAF7B2FD7F1CAF42E4DB21A168
:105790000C48FAF7ABFD761CA642DBDB09481EA3DA
:1057A000042240F22A5100900EA007F0A7FF1BA38D
:1057B000042240F22B510BA007F0A0FF0BB0BDE874
:1057C000F08300009C6600205072696E744F7574FF
:1057D0004D61747269784D7367206E3D25642C6D40
:1057E0003D2564002E2E5C2E2E5C7372635C616C12
:1057F000676F726974686D5C496E6176696E732E4D
:105800006300000025733A5B00000000252E374539
:105810002C0000000D0A0000257300005D00000050
:1058200070B504460D46164695ED340B84ED000B1D
:1058300095ED360B84ED020B95ED380B84ED040BE2
:1058400095ED3A0B84ED060B95ED3C0B84ED080BC2
:1058500095ED3E0B84ED0A0B95ED400B84ED0C0BA2
:1058600005F5E05090ED4E0B84ED0E0B41F26840D3
:10587000284490ED0C1BB0EE410AF0EE610A9FED5A
:10588000811B53EC112B51EC100BFBF732F8C4E9E0
:10589000100141F26840284490ED0E1BB0EE410A21
:1058A000F0EE610A9FED771B53EC112B51EC100BBE
:1058B000FBF71FF8C4E9120141F26840284490ED5B
:1058C000101BB0EE410AF0EE610A9FED6E1B53EC27
:1058D000112B51EC100BFBF70CF8C4E9140141F249
:1058E0006840284490ED180B84ED160B41F2684097
:1058F000284490ED1A0B84ED180B41F268402844BF
:1059000090ED1C0B84ED1A0B41F26840284490ED99
:105910001E1BB0EE410AF0EE610A9FED5A1B53ECDC
:10592000112B51EC100BFAF7E4FFC4E91C0141F212
:105930006840284490ED201BB0EE410AF0EE610A69
:105940009FED501B53EC112B51EC100BFAF7D1FFCC
:10595000C4E91E0141F26840284490ED220B84ED19
:10596000200B41F26840284490ED240B84ED220B7B
:1059700041F26840284490ED260B84ED240B41F25F
:105980006840284490ED280B84ED260B41F26840D6
:10599000284490ED2A1BB0EE410AF0EE610A9FED1B
:1059A000391B53EC112B51EC100BFAF7A2FFC4E991
:1059B000280141F26840284490ED2C1BB0EE410ACA
:1059C000F0EE610A9FED2F1B53EC112B51EC100BE5
:1059D000FAF78FFF04F1A002C2E9020141F2684028
:1059E000284490ED2E0B84ED2C0B306B44F8B80F4F
:1059F000706B6060B06BA0603068E06096ED010A8B
:105A000084ED040A96ED030A84ED060A96ED040A75
:105A100084ED070A96ED020A84ED050A96ED050A63
:105A200084ED080A96ED060A84ED090A96ED070A48
:105A300084ED0A0A96ED080A84ED0B0A96ED090A30
:105A400084ED0C0A96ED0A0A84ED0D0A96ED140B0E
:105A500084ED0E0B96ED160B84ED100B96ED180BE6
:105A600084ED120B96ED1A0B84ED140B96ED1C0BC6
:105A700084ED160B96ED1E0B84ED180BB83C2046FA
:105A800070BD0000F8C1631ADCA54C4030B52DEDA7
:105A9000048B93B004460D4675A30422A32179A07C
:105AA00007F02CFE94ED441BB0EE410AF0EE610AC3
:105AB0009FED7C1B53EC112B51EC100BFAF719FFE7
:105AC000CDE90C0194ED461BB0EE410AF0EE610AFF
:105AD0009FED741B53EC112B51EC100BFAF709FFDF
