:020000040800F2
:1000000020D9002081020008B9050008B1050008C8
:10001000B5050008770300084D0B0008000000003C
:10002000000000000000000000000000C101000806
:10003000BD040008000000001D020008E9050008DA
:100040009B0200089B0200089B0200089B0200081C
:100050009B0200089B020008BF040008F10400088E
:10006000FB04000805050008110500089B020008B4
:100070009B0200089B0200089B0200089B020008EC
:100080009B0200089B0200089B020008CD030008A9
:100090007D0300089B0200089B0200084D05000834
:1000A0009B0200089B0200089B0200089B020008BC
:1000B000F50700089B020008A90800089B02000839
:1000C0009B0200089B0200089B0200089B0200089C
:1000D0009B0200089B0200089B0200089B0200088C
:1000E000C90400089B0200089B0200089B0200084C
:1000F0009B0200089B0200089B02000825040008E0
:100100009B0200089B0200089B0200089B0200085B
:100110009B020008D90800089B0200089B02000807
:100120009B0200089B0200089B0200089B0200083B
:100130009B0200089B0200089B0200089B0200082B
:10014000D10300089B0200089B0200089B020008E4
:100150009B0200089B0200089B0200089B0200080B
:100160009B0200089B0200089B0200089B020008FB
:100170009B0200089B0200089B0200080000000090
:100180009B0200089B0200089B0200089B020008DB
:100190009B0200089B0200089B0200080000000070
:1001A0009B0200089B0200089B020008DFF80CD0AD
:1001B00000F0A4F800480047A929000820D9002031
:1001C0002C4B19680868B0E8F04F80F30988BFF33A
:1001D0006F8F4FF0000080F311887047000000001F
:1001E00008480068006880F308884FF0000080F33A
:1001F000148862B661B6BFF34F8FBFF36F8F00DF15
:1002000000BF00BF08ED00E0DFF80C00016841F41A
:1002100070010160704700BF88ED00E0EFF30980D6
:10022000BFF36F8F134B1A681EF0100F08BF20ED3D
:10023000108A20E9F04F106009B44FF0500080F3AD
:100240001188BFF34F8FBFF36F8F04F083FD4FF022
:10025000000080F3118809BC19680868B0E8F04F05
:100260001EF0100F08BFB0EC108A80F30988BFF3AE
:100270006F8F704710000020EFF30580704700007B
:100280000648804706480047FEE7FEE7FEE7FEE730
:10029000FEE7FEE7FEE7FEE7FEE7FEE72D070008C4
:1002A000AD01000840EA01039B0703D009E008C93B
:1002B000121F08C0042AFAD203E011F8013B00F82B
:1002C000013B521EF9D27047D2B201E000F8012B77
:1002D000491EFBD270470022F6E710B513460A46C6
:1002E00004461946FFF7F0FF204610BD421C10F8E7
:1002F000011B0029FBD1801A70470000064C074DF6
:1003000006E0E06840F0010394E8070098471034E5
:10031000AC42F6D3FFF74EFF1066000830660008C7
:1003200070B58C1810F8015B15F0070301D110F8B7
:10033000013B2A1106D110F8012B03E010F8016BE4
:1003400001F8016B5B1EF9D12B0705D40023521E67
:100350000DD401F8013BFAE710F8013BCB1A921CCF
:1003600003E013F8015B01F8015B521EF9D5A142CD
:10037000D8D3002070BD00BFFEE7000000B58DB0EF
:100380004CF2C201104800F08BFF01281AD14CF248
:10039000C2010D4800F07BFF08AA00210A4800F0C6
:1003A000B9FF03A801900C98009008A80FC800F0AE
:1003B00047FDDDE90601CDE90001002003A90EC9D2
:1003C00000F0E6FD0DB000BD006400407047000085
:1003D00000B58DB04CF2C201104800F061FF012859
:1003E0001AD14CF2C2010E4800F051FF08AA0021B8
:1003F0000A4800F08FFF03A801900C98009008A80D
:100400000FC800F01DFDDDE90601CDE90001012066
:1004100003A90EC900F0BCFD0DB000BD006800408E
:100420000064004010B5214C20220721204801F033
:100430004DFB002838D0202207211D4801F027FB62
:1004400007211B4801F008FA40F20631194804F070
:1004500095F8A078002802DDA078401EA070607892
:100460000A2801DB00206070A07800281CDD63787A
:10047000E01CC25C184603EBC00303EB001304F15D
:100480000D0000EB43010C48FFF70CFF6178E01C06
:10049000425C0721064801F0E0FC6078401C607077
:1004A0000721034801F0E8F910BD0000DECE00206E
:1004B0000060024000500040ACCC0020704710B5F6
:1004C000002000F055F810BD10B50A2000F050F8DB
:1004D0000B2000F04DF80C2000F04AF80D2000F041
:1004E00047F80E2000F044F80F2000F041F810BD4E
:1004F00010B5012000F03CF810BD10B5022000F04E
:1005000037F810BD10B5032000F032F810BD000020
:1005100008B500200090042000F02AF800236A4665
:1005200007490848006804F07FFE009838B14FF092
:10053000805005490860BFF34F8FBFF36F8F08BD30
:100540000E0300200803002004ED00E010B5052094
:1005500000F00EF8062000F00BF8072000F008F875
:10056000082000F005F8092000F002F810BD000096
:1005700070B50446012101FA04F001F037FEA0B184
:1005800025460A4800EB0510406840B1074A02EBD7
:1005900005129068054A02EB05125168884700BFB2
:1005A000012101FA04F001F01BFE70BD980000204B
:1005B00000BFFEE700BFFEE77047000010B500284F
:1005C00007DA0A07140E054A00F00F031B1FD45464
:1005D00003E00A07130E024A135410BD18ED00E0A1
:1005E00000E400E07047704710B500BF502080F372
:1005F0001188BFF34F8FBFF36F8F00BF04F0DEFF92
:1006000018B14FF080500449086000BF002080F30B
:10061000118800BF10BD000004ED00E02DE9FF4788
:100620000FF2E80ADAE900C8DAE9029ACDE900C86F
:10063000CDE9029ADFF8E4C0DCF800C0CCF3810712
:1006400027B1012F09D0022F43D10DE0DFF8D0C030
:10065000DFF8D080C8F800C042E0DFF8CCC0DFF897
:10066000C480C8F800C03BE0DFF8B0C0ACF1040CB7
:10067000DCF800C00CF03F01DFF8A0C0ACF1040CC6
:10068000DCF800C0CCF38812DFF890C0ACF1040CA9
:10069000DCF800C0CCF3014C0CF1010C4FEA4C0427
:1006A000DFF878C0ACF1040CDCF800C00CF4800377
:1006B000B3F5800F01D11C4800E01948B0FBF1FCF4
:1006C0000CFB02FCBCFBF4FCDFF85880C8F800C04F
:1006D00006E0DFF84CC0DFF84C80C8F800C000BF6F
:1006E00000BFDFF838C0DCF800C0CCF303151DF8FC
:1006F0000560DFF830C0DCF800C02CFA06FCDFF83B
:100700002480C8F800C0BDE8FF870000000000009A
:10071000000000000102030406070809083802402F
:100720000024F4000C00002040787D0108B52D481D
:10073000006840F470002B4908602B48006840F0C6
:1007400001002949086028480830006840F080000E
:100750002549083108600020009002E00098401C04
:1007600000904CF2503100988842F7D31E48083070
:10077000006840F090001C4908310860002000909B
:1007800002E00098401C00904CF2503100988842E2
:10079000F7D315480830006820F0030012490831EB
:1007A000086011480068114908400F490860084670
:1007B000006820F48020086000200B4908310860A0
:1007C00000BF09480830006800200028F9D1084817
:1007D0000549091D0860002003490C31086003F039
:1007E00053FB08BD88ED00E000380240FFFFF6FE35
:1007F0001030002410B50821C80603F0E0FC0128E1
:1008000045D10821800703F0D7FC2148007848B97A
:100810000221480703F0A3FB1E49086001201C4980
:10082000087034E01A480078012830D1022180078E
:1008300003F095FB184908600846006815490968E7
:10084000884207D91448008812490988401A134978
:10085000088009E00F4800884FF6FF71081A0E491A
:10086000098808440D4908800C48008800EE100AE9
:10087000B8EE400ADFED0A0A80EE801ABCEEC10A2B
:1008800010EE100A0749088000200149087010BDC9
:10089000E8020020EC020020F0020020F802002014
:1008A00000247449F602002010B50121084803F025
:1008B00086FC01280BD10121054803F07DFC054889
:1008C000006820B103480068401E0249086010BD5E
:1008D00000080040FC02002010B500BF5021EFF3DB
:1008E000118081F31188BFF34F8FBFF36F8F00BF6B
:1008F00004461449144803F05BFE40B11149124804
:1009000003F049FE40F206310F4803F02AFE0F497A
:100910000D4803F04DFE80B10C490B4803F03BFE3F
:1009200003F066FC0A4981F83002084690F830026C
:10093000002802DD012081F8310200BF84F3118814
:1009400000BF10BD06030600005000400403040071
:10095000ACCC00202DE9F0410D46DDE90646002132
:10096000FF2801D1BDE8F08101285BDB471E07EBC2
:10097000D77CCCF34701012C19D1364F3F88A446D0
:100980000CFA01FC47EA0C074FF0C04CACF832738C
:100990006746B7F8327301F1040CA04608FA0CF868
:1009A00027EA08074FF0C04CACF832733AE0DCB9E4
:1009B000284F3F884FF0010C0CFA01FC27EA0C0786
:1009C0004FF0C04CACF832736746B7F8327301F1A0
:1009D000040C4FF0010808FA0CF827EA08074FF05A
:1009E000C04CACF832731DE0022C1BD14FF0C04755
:1009F000B7F832C301278F404CEA070C1FFA8CF777
:100A00004FF0C04CACF83273124F3F8801F1040C28
:100A10004FF0010808FA0CF847EA08074FF0C04CFD
:100A2000ACF832734FF0010C070107F1C047A7F88B
:100A300000C1070107F1C047A7F8025142EA0307C6
:100A400037434FEA001C0CF1C04CACF8047100BFF6
:100A500088E70000320300602DE9F0410D46DDE932
:100A600006460021FF2801D1BDE8F08101285BDBAB
:100A7000471E07EBD77CCCF34701012C19D1324F2D
:100A80003F88A4460CFA01FC47EA0C074FF0C04C23
:100A9000ACF832736746B7F8327301F1040CA04624
:100AA00008FA0CF827EA08074FF0C04CACF832738C
:100AB0003AE0DCB9244F3F884FF0010C0CFA01FCFE
:100AC00027EA0C074FF0C04CACF832736746B7F812
:100AD000327301F1040C4FF0010808FA0CF827EA10
:100AE00008074FF0C04CACF832731DE0022C1BD14C
:100AF0004FF0C047B7F832C301278F404CEA070CCC
:100B00001FFA8CF74FF0C04CACF832730E4F3F8891
:100B100001F1040C4FF0010808FA0CF847EA080745
:100B20004FF0C04CACF83273070107F1C0477D802D
:100B300042EA030737434FEA001C0CF1C04CACF803
:100B4000047000BF90E700003203006000BFFEE7C2
:100B500002E008C8121F08C1002AFAD17047704786
:100B6000002001E001C1121F002AFBD1704702469C
:100B7000002107E001208840904201D108467047DB
:100B8000481CC1B22029F5DB4FF0FF30F7E7000029
:100B900010B541F2190002F0FFFE4FF4406002F080
:100BA000FBFE4FF4006302220021194801F083FE8E
:100BB0004FF4006300220221154801F055FE4FF466
:100BC00000620921124801F08BFD4FF4805302228C
:100BD00000210F4801F06FFE4FF4805300220221E4
:100BE0000B4801F041FE4FF480520921084801F002
:100BF00077FD00220749084800F070F900221146ED
:100C0000142001F035FF0221034800F03CFB10BD29
:100C10000000024020A107000064004010B541F22E
:100C20001A0002F0B9FE40F6014002F0B5FE4FF4A2
:100C3000805302220021194801F03DFE4FF48053F9
:100C400000220221154801F00FFE4FF480520921C5
:100C5000124801F045FD4FF40053022200210F48D5
:100C600001F029FE4FF40053002202210B4801F04D
:100C7000FBFD4FF400520921084801F031FD00222C
:100C80000749084800F02AF900220121402001F01C
:100C9000EFFE0221034800F0F6FA10BD0004024006
:100CA00020A10700006800400FB430B585B00024D3
:100CB0009DF8200008B9604D00E0604D9DF82100CE
:100CC00000287BDD0020ADF80C000120ADF80E00FF
:100CD0000020ADF8080001208DF81000002468E025
:100CE0005548854206D109A800EBC4008078ADF8CC
:100CF0000A0006E009A800EBC40080780E30ADF8C9
:100D00000A000020ADF80000ADF80200ADF80400C4
:100D1000ADF8060009A800EBC4004078C0B909A8E6
:100D200000EBC40040684FF6FF7101EA4010ADF8D7
:100D300000000020ADF80200BDF8020020F0040021
:100D4000ADF802000846ADF80400ADF806001CE05E
:100D500009A800EBC4004068C0F34F30ADF80000B4
:100D600009A800EBC40040684FF6FF7101EAC0001B
:100D7000ADF80200BDF8020040F00400ADF802003A
:100D80000846ADF80400ADF8060009A810F83400D4
:100D9000012807D1BDF8020040F00200ADF80200C2
:100DA00006E00BE0BDF8020020F00200ADF8020002
:100DB000641C9DF82100A04292DC1DE01E48854283
:100DC00003D10020ADF80A0002E00E20ADF80A00C1
:100DD0000020ADF80C000120ADF80E000020ADF8A9
:100DE0000000ADF80200ADF80400ADF80600ADF863
:100DF000080001208DF81000684600F02DF99DF8DC
:100E00009400A8B10C48854209D100221146142053
:100E100001F02EFE0221284600F035FA08E00022FB
:100E20000121402001F024FE0221044800F02BFAA9
:100E300005B030BC5DF814FB006400400068004061
:100E40000FB410B5079C9DF812002072DDF8130056
:100E5000C4F80900DDF81700C4F80D009DF8100073
:100E600020B9029860600020607003E00398606021
:100E7000012060709DF8110010B90020207001E081
:100E80000120207010BC5DF814FB10B5029C81702D
:100E900043700270446010BD30B50346082214460A
:100EA00000210EE00B4850F83100984201D108466D
:100EB00030BD084850F83100074DA84200D10C461B
:100EC000491C9142EED3944201D02046F0E7002025
:100ED000EEE70000CC65000890D00300FEB50746A1
:100EE0000D4616462846FFF7D7FF0446384600F061
:100EF00093F800208DF804008DF8050001208DF88E
:100F000006008DF8070000208DF808008DF8090014
:100F100036B1012E08D0022E0AD0032E10D10BE0DC
:100F200000208DF800000BE002208DF8000007E0A3
:100F300001208DF8000003E003208DF8000000BFC1
:100F400000BF124800EBC4004068C0F301608DF898
:100F500001000E4800EBC4004068C0F303408DF868
:100F600002000A4800EBC4004068C0F302508DF84C
:100F70000300064800EBC4008088C0F30900ADF808
:100F80000A006946384600F0EFF8FEBDCC6500085F
:100F90000FB410B586B004469DF8250028B900208E
:100FA0008DF80C000A98019004E004208DF80C00E4
:100FB0000A9802909DF8240018B900208DF80D00C1
:100FC00002E002208DF80D009DF82C008DF80E0037
:100FD000DDF82D00CDF80F00DDF83100CDF813005D
:100FE00044B901A90A4800F007FA0121084800F0B5
:100FF0004AF907E001A9074800F0FEF90121054878
:1010000000F041F9012006B010BC5DF814FB0000AF
:10101000006400400068004010B504460A4884425D
:1010200008D140F6190002F0DBFC40F6190002F08E
:10103000C5FC07E040F61A0002F0D2FC40F61A00A8
:1010400002F0BCFC10BD000000640040014600201E
:101050008A69C2F30210704710B50021837A012219
:1010600002FA03F13E4A126842F001023C4B1A6058
:101070003B4A1C3212688A43394B1C331A60C289BE
:10108000DAB9374A0C3212688A43354B0C331A608E
:10109000C288344B03EA024243881A434389304CE6
:1010A000403444F8332082882E4B03EA02420388FE
:1010B0001A43438904EBC3035A60C289012A1BD136
:1010C000274A0C3212680A43254B0C331A600288F7
:1010D000244B03EA024243881A434389204C40349C
:1010E00044F8332082881F4B03EA0242C3881A4324
:1010F000438904EBC3035A6082893AB9184A121D26
:1011000012688A43164B1B1D1A6006E0144A121D12
:1011100012680A43124B1B1D1A6002893AB9104A21
:10112000143212688A430E4B14331A6006E00C4ADC
:10113000143212680A430A4B14331A60027C012AE3
:1011400006D1074A1C3212680A43054B1C331A6049
:10115000034A126822F00102014B1A6010BD000020
:10116000006600400000FFFF70B502464FF6FF73B7
:101170000020146824F002041460146844F0010490
:10118000146000E05B1E546804F001040CB9002BED
:10119000F8D1546804F001040CB9002072E00C7816
:1011A0004FF0404505EA84744D784FF0407606EAEA
:1011B00005652C438D784FF4702606EA05452C43CF
:1011C000CD784FF4E00606EA05552C434D896D1E97
:1011D000C5F309052C43D4610C79012C04D11468A2
:1011E00044F08004146003E0146824F08004146068
:1011F0004C79012C04D1146844F04004146003E0DD
:10120000146824F0400414608C79012C04D1146813
:1012100044F02004146003E0146824F020041460F7
:10122000CC7924B9146844F01004146003E0146805
:1012300024F0100414600C7A24B9146844F00804F3
:10124000146003E0146824F0080414604C7A012C44
:1012500004D1146844F00404146003E0146824F01A
:1012600004041460146824F0010414604FF6FF7342
:1012700000E05B1E546804F001040CB1002BF8D1AF
:1012800003B1012070BD42690A4342617047C1F356
:10129000841301229A4000EB11331A60704700005A
:1012A000F0B505460C46002600274CF2810084422A
:1012B00005D10021284600F047F9064619E01348F9
:1012C000844205D10121284600F03EF9064610E08F
:1012D0000F48844204D12846FFF7B8FE064608E0CE
:1012E00005EB14300068C4F384120121914000EA38
:1012F0000106686904F01F020121914000EA01071C
:1013000016B10FB10120F0BD0020FCE78400010000
:10131000CB80010010B500F5D87303EB01131B68F7
:1013200003F004031372137A3BB900F5D87303EB8F
:1013300001131B685B0D136006E000F5D87303EB27
:1013400001131B68DB08536000F5D87303EB01132E
:101350001B6803F00203537200F5DA7303EB011309
:101360001B681B0AD37400F5DA7303EB01131B68C7
:1013700003F00F03937200F5DC7303EB01131B689A
:10138000D37200F5DC7303EB01131B681C0A1473A2
:1013900000F5DC7303EB01131B681C0C547300F5A0
:1013A000DC7303EB01131B681C0E947300F5DE73F2
:1013B00003EB01131B68D37300F5DE7303EB01131A
:1013C0001B681C0A147400F5DE7303EB01131B6821
:1013D0001C0C547400F5DE7303EB01131B681C0E28
:1013E000947421B9C36843F02003C36003E0036928
:1013F00043F02003036110BD30B502460B460021C7
:10140000906800F08060B0F1806F00D110E09068CB
:1014100000F00060B0F1006F01D1012108E0906898
:1014200000F08050B0F1805F01D1022100E0032183
:10143000032901D1032030BD02F5C07000EB01107B
:10144000006800F0010402F5C07000EB01100460B8
:10145000187A88B918883B4C04EA40505C7A2043DB
:1014600002F5C07404EB01142468204302F5C07433
:1014700004EB0114206013E06FF00704586804EADD
:10148000C0001C7A20435C7A204302F5C07404EB50
:1014900001142468204302F5C07404EB0114206099
:1014A00002F5C27000EB0110006820F00F0402F595
:1014B000C27000EB0110046002F5C27000EB011075
:1014C00000689C7A204302F5C27404EB011420608A
:1014D000987B4FF07F4404EA00605C7B4FF47F050B
:1014E00005EA044420431C7B2D1205EA0424204312
:1014F000DC7A204302F5C47404EB01142060987C6C
:101500002C0404EA00605C7C2D0205EA04442043BC
:101510001C7C2D1205EA04242043DC7B204302F5C9
:10152000C67404EB0114206002F5C07000EB0110DA
:10153000006840F0010402F5C07000EB0110046087
:10154000084678E70000E0FF0246002019B9D3689A
:1015500003F0030004E0012902D1136903F0030042
:101560007047000038B50446204600F0C4F800B1CA
:1015700038BD4020009001231A461946684602F003
:1015800031FB03200149087000BFF1E70E03002082
:1015900008B53020009001231A461946684602F02B
:1015A00021FB01200149087008BD00000E03002046
:1015B00008B53120009001231A461946684602F00A
:1015C00011FB02200149087008BD00000E03002035
:1015D0002DE9F04105464FF000082C462846FEF75D
:1015E00085FEC7B200260BE020785C2802D0207868
:1015F0002F2802D14FF0030804E0641C701CC6B20F
:10160000BE42F1DB00BF4046BDE8F0811CB50120C1
:10161000019000230122114601A802F0E3FA012300
:101620001A461946684602F0BDFA9DF800001CBD36
:1016300038B52220009001231A461946684602F068
:10164000D1FA0446204638BD1CB5054802210023C6
:101650008A02CDE9001003A1054803F069FF1CBD13
:101660000003002063683337385F7461736B0000D8
:10167000311700080EB50C48006802900121A22025
:1016800000F006FF0121A22000F063FF074801F0EF
:1016900051F902A800210B460122CDE900100321D7
:1016A000332001F06DFA0EBD0C66000800340140D5
:1016B0003EB504462820029000230122114602A8CC
:1016C00002F090FA00230122114601A802F06AFA02
:1016D000002301221146684602F064FA9DF80400D6
:1016E0009DF8001040EA012501231A4629462046AC
:1016F00002F058FA3EBD38B504462046FEF7F6FD26
:10170000C5B22046FFF764FF08B1032038BD2F2083
:101710000090002301221146684602F063FA01237B
:101720001A462946204602F05DFA0020EEE7000046
:101730001FB5002201210A2003F014FC3A49086079
:101740000846006850B900BF502080F31188BFF3ED
:101750004F8FBFF36F8F00BF00BFFEE7FFF78AFF19
:1017600006208DF80400A5208DF80500FF208DF8D7
:10177000060001231A46032101A802F033FA009063
:101780000120039001231A46194603A802F02AFA01
:1017900001231A461946684602F004FA002023493C
:1017A00008701520039001231A46194603A802F079
:1017B00019FA0620039001231A46194603A802F0DD
:1017C00011FA00BF642269461748006803F0B6FDAD
:1017D0000128F7D1FFF72CFF04469DF800000728E9
:1017E0001FD2DFE800F004090D1A1E1E1D00512C47
:1017F00001D1FFF7CDFE15E00CB9FFF7D9FE11E0DE
:1018000054B90B48FFF754FF0A490880FFF7FEFE62
:10181000009009A0FFF7A6FE04E004B100BF01E0BC
:1018200000E000BFCEE70000080300200E03002008
:10183000DFD000200C0300202F3230323279656176
:10184000720000000349086000BF024909680029CE
:10185000FBD17047FC02002010B501EB4102D30020
:1018600000F11002D25822F0010301EB4102D40032
:1018700000F11002135110BD10B501EB4102D3006D
:1018800000F11002D25842F0010301EB4102D400F2
:1018900000F11002135110BD30B5134601EB4104A5
:1018A000E50000F11004625922F0606242EA4362EE
:1018B00001EB4104E50000F11004625130BD10B5A8
:1018C00001EB4102D30000F11002D25822F48073E0
:1018D00001EB4102D40000F11002135110BD0000D1
:1018E00000B589B0684600F0A7FA07212C4800F03F
:1018F0005DF8402006902B48029000200390049051
:10190000079029480090012001904FF44030089042
:101910006A460721224800F0E3F907212048FFF733
:10192000CEFF042207211E48FFF7B6FF1022072131
:101930001B4800F08DF80021194800F037F800200E
:10194000069018483230029000200390FF20079044
:101950001548009001200190002004904FF4403081
:1019600008906A4600210E4800F0BAF900210C48A0
:10197000FFF7A5FF042200210948FFF78DFF102281
:101980000021074800F064F800210548FFF774FFC4
:1019900040F233410348FEF79EFC09B000BD000051
:1019A00000600240ACCC00200450004010B501EBB8
:1019B0004102D30000F11002D25822F0010301EBE2
:1019C0004102D40000F110021351002301EB410247
:1019D000D40000F11002135101EB4102D40000F1D8
:1019E0001402135101EB4102D40000F1180213510B
:1019F00001EB4102D40000F11C02135101EB410242
:101A0000D40000F12002135101EB4102D40000F197
:101A10002402135104290CDA01EB41025300C1F3F3
:101A2000400203EB82033D229A4083681A4382609E
:101A30000DE00A1FD1B201EB41025300C1F3400295
:101A400003EB82033D229A40C3681A43C26010BD73
:101A500030B5802A0DD001EB4103DC0000F110030A
:101A60001B59134301EB4104E50000F110046351DD
:101A70000CE001EB4103DC0000F124031B5913438C
:101A800001EB4104E50000F12404635130BD10B5C1
:101A900004290CDA01EB41035C00C1F3400304EBC1
:101AA000830302FA03F38468234383600DE00B1F72
:101AB000D9B201EB41035C00C1F3400304EB8303A3
:101AC00002FA03F3C4682343C36010BDF0B50346B4
:101AD000002500260C46042979DA082A34D004DCD3
:101AE000012A07D0042A70D119E0102A41D0202AF7
:101AF0006BD153E001EB41004700C1F3400007EB1D
:101B0000800702FA07F01F6800EA070601EB4100B0
:101B1000C70003F12400C05900F0800556E001EB36
:101B200041004700C1F3400007EB800702FA07F0CD
:101B30001F6800EA070601EB4100C70003F110002F
:101B4000C05900F0020541E001EB41004700C1F33C
:101B5000400007EB800702FA07F01F6800EA07065B
:101B600001EB4100C70003F11000C05900F004056B
:101B70002CE001EB41004700C1F3400007EB800778
:101B800002FA07F01F6800EA070601EB4100C700F0
:101B900003F11000C05900F0080517E001EB410007
:101BA0004700C1F3400007EB800702FA07F01F6807
:101BB00000EA070601EB4100C70003F11000C0591D
:101BC00000F0100502E002E0FFE700BF7AE0201F0E
:101BD000C4B2082A34D004DC012A07D0042A6FD109
:101BE00019E0102A41D0202A6AD153E004EB4400C6
:101BF0004700C4F3400007EB800702FA07F05F6874
:101C000000EA070601EB4100C70003F12400C059B8
:101C100000F0800555E004EB44004700C4F34000A9
:101C200007EB800702FA07F05F6800EA070601EB9E
:101C30004100C70003F11000C05900F0020540E068
:101C400004EB44004700C4F3400007EB800702FAAE
:101C500007F05F6800EA070601EB4100C70003F1E7
:101C60001000C05900F004052BE004EB44004700CD
:101C7000C4F3400007EB800702FA07F05F6800EA50
:101C8000070601EB4100C70003F11000C05900F046
:101C9000080516E004EB44004700C4F3400007EBDE
:101CA000800702FA07F05F6800EA070601EB4100CF
:101CB000C70003F11000C05900F0100501E0FFE774
:101CC00000BF00BF16B10DB10120F0BD0020FCE740
:101CD00010B5002211462F2000F0CAFE10BD0000F2
:101CE00070B501EB4104E50000F12404645924F0CF
:101CF000040501EB4104E60000F12404A55101EBC9
:101D00004104E60000F118041568A55101EB4104F7
:101D1000E60000F11C049568A55101EB4104E600C2
:101D200000F11404D569A55101EB4104E50000F16F
:101D3000100463593F4C2340146944EA8404156A33
:101D40002C4395692C43234301EB4104E50000F14A
:101D500010046351546874B901EB4104E50000F1CB
:101D60001004645944F4007501EB4104E60000F1ED
:101D70001004A5511FE05468012C0ED101EB410461
:101D8000E50000F11004645924F4007501EB4104EE
:101D9000E60000F11004A5510DE001EB4104E5005F
:101DA00000F11004645944F4004501EB4104E600DD
:101DB00000F11004A551D46874B901EB4104E500A9
:101DC00000F11004645944F4806501EB4104E6001D
:101DD00000F11004A5510DE001EB4104E50000F114
:101DE0001004645924F4806501EB4104E60000F11D
:101DF0001004A551546974B901EB4104E50000F1E8
:101E00001004645944F4807501EB4104E60000F1CC
:101E10001004A5510DE001EB4104E50000F11004B0
:101E2000645924F4807501EB4104E60000F11004CC
:101E3000A55170BD3F87FCFF002101600121416079
:101E4000002181600121C160002101610121416106
:101E500000218161C1610162704710B501EB41034E
:101E6000DC0000F114031A5110BD024601EB4100E1
:101E7000C30002F11400C058704700000121012086
:101E8000094A12680AB100200CE0084A12680AB137
:101E9000002007E0064A1368064A1268521E934261
:101EA00000D10220704700004804002034000020C8
:101EB0007004002020000020C100A1F1C041096889
:101EC00041F00102C100A1F1C0410A607047000069
:101ED00030B50021002200230468E400A4F1C044CE
:101EE0002168334C2140D0E90B4544EA4504856A1A
:101EF0002C43456A44EA0524056A2C43C56944EA33
:101F0000852485692C43456944EA0534056944EA1A
:101F10004534856844EA8534C56844EAC534456873
:101F20002C432143446BA469456B6D6944EA051455
:101F3000456B2D6944EA0524456BAD8944EA0544A7
:101F4000456BAD682C43456B6D682C43456B2D6824
:101F500044EA0502C46A082C01D141F040018468BA
:101F6000012C12D1846BA469856B6D6944EA051458
:101F7000856B2D6944EA0524856BAD8944EA0544E7
:101F8000856B2D6844EA050301E06FF07043046837
:101F9000E400A4F1C04421600468E400A4F1C0445A
:101FA00062600468E400A4F1C044C4F8043130BDA8
:101FB0008100F7FF00B59DB04FF4606001F0ECFCCC
:101FC00040F6014001F0E8FC40F6024001F0E4FC7C
:101FD00040F6034001F0E0FC40F6044001F0DCFC78
:101FE00040F6054001F0D8FC40F6064001F0D4FC74
:101FF00040F6074001F0D0FC4CF2B3720C2145488A
:1020000000F06EFB4CF2B37300220221414800F055
:102010002BFC4CF2B373022200213E4800F04BFC33
:102020004FF680720C213C4800F05AFB4FF680734B
:1020300000220221384800F017FC4FF6807302227C
:102040000021344800F037FC4FF23F020C213348A6
:1020500000F046FB4FF23F03002202212F4800F020
:1020600003FC4FF23F03022200212A4800F023FC28
:1020700040F23F220C212A4800F032FB40F23F237D
:1020800000220221264800F0EFFB40F23F2302220B
:102090000021204800F00FFC002007900D90022046
:1020A0000C9020200B9000200A904FF48010099093
:1020B00000200890009006900220059014200490C3
:1020C000002003904FF460000290002001900E90D9
:1020D0001A901990102018900020179014904FF427
:1020E0000070169000201590119001201090139010
:1020F000002012900F9007A81B90CDF870D00EA86A
:10210000FFF7E6FE0020FFF7D7FE0120FFF7D4FE21
:102110001DB000BD000C024000100240001402403F
:102120000018024010B52D4B1B6883432B4C2360D5
:10213000231D1B688343241D2360231D1B688343C9
:10214000241D2360231D1B688343241D236011B1BC
:1021500001290ED105E0214B1B6803431F4C23606E
:1021600008E01E4B1B1D1B6803431C4C241D2360F1
:1021700000E000BF00BF32B1012A11D0022A1CD0FA
:10218000032A27D127E0154B08331B680343134C60
:1021900008342360231D1B688343241D23601BE038
:1021A0000E4B08331B6883430C4C08342360231DFB
:1021B0001B680343241D23600EE0084B08331B6893
:1021C0000343064C08342360231D1B680343241D6E
:1021D000236001E000BF00BF00BF10BD003C014014
:1021E0000149086070470000143C0140014607485F
:1021F000006800EA010205481438006800EA01039B
:1022000012B10BB1012070470020FCE7143C0140E3
:102210000121014A117070470400002000B59BB0F5
:10222000FEF7B6FCFEF7FAFC12200123002211464D
:1022300000901F48FEF729FE182000231A460121AE
:1022400000901B480830FEF720FE682218490C3128
:102250006846FEF727F81648001F0FC8FEF724FD52
:10226000122001230022114600901248FEF70DFEB5
:10227000182000231A46012100900E480830FEF76E
:1022800004FE41F6BB2001230022022100900948F0
:102290001030FEF7FAFD682206490C316846FEF759
:1022A00001F80448001F0FC8FEF7FEFC1BB000BD7C
:1022B000D00100204802002010B501F0CDFA00F056
:1022C00047FA00F0D1F9024800F016FB10BD0000FB
:1022D000B40100202DE9F04705460E461746984602
:1022E000DDF820904FF0FF34E8B200F0E9F98246C3
:1022F000BAF1000F02D10A20BDE8F087DAF8080031
:10230000FEF735FC0446002C01DB102C01D30A201B
:10231000F2E7214800EB0410B0F90000A84219D1FF
:102320001D4800EB04104068B84213D11A4800EB76
:1023300004104088B0420DD1174800EB04108068AB
:10234000404507D1144800EB0410C068484501D14E
:102350000020D1E7104800EB0410B0F90000401C49
:1023600008B10320C8E728B20B4901EB041108802B
:10237000094800EB04104760074901EB04114E8047
:10238000054800EB0410C0F80880034800EB041077
:10239000C0F80C900020AFE7980000202DE9F35F13
:1023A00088464FF0FF350099C8B200F089F904461D
:1023B00014B90A20BDE8FC9FB8F1010F44D1A06810
:1023C000FEF7D5FB0546002D01DB102D01D30A20B9
:1023D000F0E72D4800EB0510B0F90000401C08B9EB
:1023E0000A20E7E7294800EB8506274800EB05109F
:1023F000408820B1012804D0022806D103E000273C
:1024000005E0012703E0022701E00A20D2E700BF30
:10241000608801F0C1FA1C4800EB0510D0F80C9060
:1024200099F8012099F80010B07800F021FB617B49
:10243000207B01F055FC3A460021A068FFF772FEB0
:10244000A068FFF7CDFE1DE0B8F1000F18D1D4F859
:1024500008B05846FEF78BFB8246BAF1000F02DB4C
:10246000BAF1100F01D3002002E0084800EB8A0007
:1024700006460EB90A209DE7B07800F0EDFA01E0BB
:102480000A2097E7002095E798000020786500086B
:1024900070B506460D46F0B200F012F9044604B9D4
:1024A00070BD608801F078FA072D4ED2DFE805F0A4
:1024B00004111E383F462B0000220121D4E90103FC
:1024C00000F0D2F903220021D4E9010300F0F3F96E
:1024D0003CE001221146D4E9010300F0C5F90322D2
:1024E0000021D4E9010300F0E6F92FE002220121E6
:1024F000D4E9010300F0B8F903220021D4E9010373
:1025000000F0D9F922E000220121D4E9010300F012
:10251000ABF903220121D4E9010300F0CCF915E065
:1025200000221146D4E9010300F09EF90EE00122D9
:102530000021D4E9010300F097F907E0022200210D
:10254000D4E9010300F090F900E000BF00BF00BF34
:10255000A6E770B505460E46E8B200F0B1F80446AD
:1025600004B970BDF2B2D4E9010100F0ECF800BF8B
:10257000F7E710B501F0B4FC10BD00007CB50546CE
:102580002C68D5E90201CDE900010099206801F02D
:10259000CBFE019A02F00F01206802F045F8019A83
:1025A000C2F38111206802F01FF8019AC2F30111F1
:1025B000206802F029F80421206802F01DF80821A3
:1025C000206802F029F840210E4801F099FF80218F
:1025D0000C4801F09DFF06210A4801F0A6FF4FF4C8
:1025E0004171084801F0CAFF0521206801F09DFFF4
:1025F0000621206801F099FF206801F091FF00207A
:102600007CBD0000005000402DE9F04105460E461B
:1026100017462C68B846032E1FD0102E12D0112E4C
:102620001CD194F9040000F01F02012191400D4AD1
:10263000430942F8231000BF40F20531206801F041
:1026400090FF0BE0A2796179207900F011FA40F255
:102650000531206801F092FF00E000BF00BF0020BC
:10266000BDE8F08180E100E010B540F6154001F0D2
:1026700093F9FFF72DFBFFF733F910BD70B5044652
:1026800025684FF0FF360521286801F05BFF18B17F
:10269000286801F0BDFE0646304670BD70B50446A0
:1026A0000E4625683146286801F0B7FE00BF0621B6
:1026B000286801F047FF0028F9D0012070BD000014
:1026C0000146B22908D2054A02EB0110B0F90020F8
:1026D000521C12B9002000E000207047585A000830
:1026E000F0B503461C6A5D6A00200DE001268640B5
:1026F00016403EB187000F26BE40B443860001FA63
:1027000006F63443461CB0B20828EFD3082011E087
:102710000126864016405EB1A0F10806B7000F26DC
:10272000BE40B543A0F10806B60001FA06F63543EF
:10273000461CB0B21028EBD31C625D62F0BD816212
:102740007047816170470AB1816100E08162704722
:1027500010B54FF4805208211148FFF7C1FF4FF424
:102760008053012202210E4800F07EF84FF480537E
:10277000022200210A4800F09EF80422082109489C
:10278000FFF7AEFF042301220221064800F06CF897
:10279000042302220021034800F08DF810BD000040
:1027A00000080240000C02400EB52D48006802905F
:1027B00000210120FFF76CFE00210120FFF7C9FE78
:1027C00000210420FFF764FE00210420FFF7C1FE72
:1027D00000215520FFF75CFE00215520FFF7B9FED0
:1027E00000213420FFF754FE01213420FFF7B1FE11
:1027F00000213A20FFF74CFE01213A20FFF7A9FE05
:102800000021A920FFF744FE0121A920FFF7A1FE26
:1028100000211C20FFF73CFE01211C20FFF799FE40
:1028200000218120FFF734FE01218120FFF791FE76
:1028300000218220FFF72CFE01218220FFF789FE74
:1028400000213620FFF724FE02A80021054B0A468E
:10285000CDE9001005213C2000F092F90EBD0000EA
:10286000545A000811220008F0B504460D461646D9
:102870002168E268002019E0012787401F409FB1CE
:102880004FEA400C032707FA0CF7B943470005FA53
:1028900007F739434FEA400C032707FA0CF7BA430E
:1028A000470006FA07F73A43471CB8B21028E3D3AB
:1028B0002160E260F0BDF0B50C461546012C03D155
:1028C00046681E43466002E046689E434660826852
:1028D00000210DE001268E401E403EB14F00032630
:1028E000BE40B2434E0005FA06F632434E1CB1B26A
:1028F0001029EFD38260F0BD70B504460CB1012001
:1029000000E0002050B900BF502080F31188BFF3D1
:102910004F8FBFF36F8F00BF00BFFEE725682868A9
:1029200001F080FD4FF48071204601F089FC002009
:1029300070BD000010B5044640F6064001F02CF8CA
:1029400041F20D1001F028F84FF4605206211448AE
:10295000FFF7C6FE4FF46053002202211048FFF734
:1029600083FF4FF46053032200210D48FFF7A3FFBC
:102970004FF48043012211460948FFF775FF4FF4D9
:102980008043022200210648FFF795FF4FF4804163
:102990000348FFF7D6FE0349204601F045F810BD75
:1029A00000180240980100201CB5012080F3108817
:1029B00000BF00F0BDFD00F0C7F80748012100236B
:1029C000CA02CDE9001005A1074802F0B1FD02F0EE
:1029D0004FF900BFFEE70000000000207374617231
:1029E000745F7461736B0000C13C0008F0B50B307C
:1029F000154D20F007010024144A0FE003688B42B4
:102A00000BD38B4205D95E1A43184768C3E90067A8
:102A100000E04368136002C004E0021D1068002853
:102A2000ECD12046002802D1286808B10020F0BD72
:102A3000064A07481060074A121A22F00702C0E946
:102A4000002401202860D7E7140300201003002091
:102A500024D1002020D5002000F01F020121914048
:102A6000024A431142F823107047000080E100E061
:102A70002DE9F04103460D46164600240027A046E6
:102A80002A48006800F4E060B0F5E06F03D100BFB1
:102A90004FF0040830E02548006800F4E060B0F52D
:102AA000C06F03D101274FF0030825E01F480068DD
:102AB00000F4E060B0F5A06F02D10227B8461BE039
:102AC0001A48006800F4E060B0F5806F03D1032776
:102AD0004FF0010810E01548006800F4E060B0F520
:102AE000407F03D104274FF0000805E04FF4A060B9
:102AF00000F020F80227B846C7F1040005FA00F4F8
:102B0000C8F104010F20C8403040044324010848A4
:102B1000C45403F01F01012088405911890001F1BC
:102B2000E021C1F80001BDE8F08100000CED00E0FB
:102B300000E400E002490143024A116070470000CE
:102B40000000FA050CED00E01CB5FFF733FA012098
:102B5000009000231A4606210190FDF77DFF012019
:102B6000009000231A4606210190FDF7F3FEFFF7BF
:102B7000A3FBFFF719FEFFF751FBFFF7FAFC1CBDA3
:102B80002DE9F84306460F4614461D46DDE908893F
:102B900039463046FFF77CFC43462A4621463046FC
:102BA000CDF80090FFF796FB01213046FFF7F6FBCA
:102BB000BDE8F8832DE9F04105460E461C4807683C
:102BC0001C480068001D01F037FD50B91948006825
:102BD00090F82C1001208840174909688143164855
:102BE0000160681C38B936B112480168091D1348E4
:102BF00001F078FD1AE07C190E4800684460BC4280
:102C000007D20C480168091D0D48006801F050FD0D
:102C10000CE008480168091D0A48006801F048FDF9
:102C200009480068844201D207480460BDE8F08189
:102C30002400002010000020280000207004002044
:102C400018000020140000204000002010B50446A9
:102C500001F054FD23480068401C224908602248C6
:102C6000006840B9204804600846006801280DD17A
:102C700000F012FA0AE01D48006838B91A480068E6
:102C8000C06AE16A884201D81748046018480068A1
:102C9000401C1749086094F82C1001208840154901
:102CA0000968084313490860E16A01EB8101124A8F
:102CB00002EB8100211D01F015FD01F049FD0B48DB
:102CC000006868B108480068C06AE16A884207D2B3
:102CD0004FF0805009490860BFF34F8FBFF36F8FEB
:102CE00010BD000020000020100000202C0000205B
:102CF0003C000020280000205803002004ED00E0E4
:102D000010B501F0FBFC10480068D0B90F4801F085
:102D1000BFFC0F4801F0BCFC0C480E4908600C4891
:102D20000D490860002210210A2002F01BF9064913
:102D300008600846006820B108A10348006801F057
:102D400093FE01F005FD10BD540000208404002016
:102D5000980400204C00002050000020546D725157
:102D60000000000010B516E001F0C8FC0C48C06877
:102D7000C468201D01F060FC0A480068401E094933
:102D8000086009480068401E0749086001F0E0FC3F
:102D9000204600F05FF8044800680028E4D110BD28
:102DA0005C040020200000201C00002070B50446B8
:102DB0000D46206C70B1216CE0680144E160D4E9FB
:102DC0000210884201D32168E1602846226CE16844
:102DD000FDF768FA70BD2DE9F04104460F4615462F
:102DE0004FF00008A66B206C48B9206800282CD151
:102DF000A06802F08FFC80460020A06025E07DB92D
:102E00003946226C6068FDF74DFA216C6068084411
:102E10006060D4E90101884217D32068606014E043
:102E20003946226CE068FDF73DFA216CE068411AF2
:102E3000E1602168E068884203D2216CA068411AF1
:102E4000E160022D01D106B1761E701CA0634046E0
:102E5000BDE8F08110B50446206B01F097FC2046D8
:102E600001F094FC10BD0000002101220C4B1B68F6
:102E7000012B00D901210B4A1268D26A0AB1002045
:102E80000DE0094A1268012A01D9002007E009B1C2
:102E9000002004E0054A1268054B1B68D01A7047F1
:102EA00028000020100000205803002040000020CF
:102EB000240000200146084A126812680AB901225B
:102EC00000E000220A600A6822B9034A1268D26848
:102ED000106800E0002070474C00002030B54FF42F
:102EE0004843174800F007042CB1C01D20F007002C
:102EF000134C041B1B1B0246124C22600024114D74
:102F00006C60D018083820F007000F4C20600024B7
:102F10000D4D2D686C600C4D2D682C601146441AC7
:102F20004C60094C24680C60084D4C682C60084DBE
:102F30004C682C604FF00044064D2C6030BD000002
:102F4000AC04002060000020680000207000002019
:102F50006C0000207C00002000BFFFF703FF01F0A1
:102F60007FFBFFF781FF0446642C20D301F0EAFECB
:102F70000F4800680F490968884201D3012000E02A
:102F8000002050B900BF502080F31188BFF34F8F4D
:102F9000BFF36F8F00BF00BFFEE7FFF765FF04467A
:102FA000642C02D3204601F077FC02F065FCD4E7E4
:102FB00040000020240000202DE9F04106460D4687
:102FC00017469846069C0DB9246000E02760E6632A
:102FD00025640121204601F0EFFF0020A064BDE838
:102FE000F0812DE9FF5F81460E469246DDE90E7BBA
:102FF000109CAAF10100216B01EB800828F0070862
:1030000008F0070008B9012000E0002050B900BF17
:10301000502080F31188BFF34F8FBFF36F8F00BF35
:1030200000BFFEE786B1002507E0715D04F13400C2
:103030004155705D00B902E06D1C082DF5D300BF4D
:1030400000213B20015502E0002084F834000A2FC3
:1030500000D30927E762E76300202064201D01F008
:1030600024FB04F1180001F020FB2461C7F10A00E1
:10307000A06164620020606484F8480049464046CC
:10308000039A00F0D3FB2060BBF1000F01D0CBF816
:103090000040BDE8FF9F000010B5002407E004EBEE
:1030A00084010F4A02EB810001F0F2FA641C0A2C41
:1030B000F5D30C4801F0ECFA0B4801F0E9FA0B48A3
:1030C00001F0E6FA0A4801F0E3FA0A4801F0E0FAF2
:1030D00004480949086004480849086010BD000018
:1030E000580300202004002034040020480400205D
:1030F0005C04002070040020140000201800002050
:1031000010B50146164800E0006803688B42FBD307
:103110000246436813448B4204D143684C682344FD
:10312000436001460A464B6813440468A34211D128
:103130000C4C03682468A34208D04B680468646898
:1031400023444B6003681B680B6005E0054B1B685C
:103150000B6001E003680B60884200D0016010BD85
:1031600060000020680000202DE9F04104460D4673
:1031700016461F464FF0000865602461B5420CD822
:10318000F01BA169884202D34FF0010811E0211D14
:103190000948006801F08CFA0BE0BE4204D2BD423F
:1031A00002D34FF0010804E0211D0448006801F03B
:1031B0007FFA4046BDE8F081500000204C0000201E
:1031C00070B5054601F09AFAA86B08B9012400E031
:1031D000002401F0BDFA204670BD70B5054601F02F
:1031E0008DFAA86BE96B884201D1012400E000242C
:1031F00001F0AEFA204670BDF1B50098846C00264F
:1032000054B900BF502080F31188BFF34F8FBFF334
:103210006F8F00BF00BFFEE7A06BE16B884201D259
:10322000012000E0002050B900BF502080F3118839
:10323000BFF34F8FBFF36F8F00BF00BFFEE7A06BE0
:10324000E16B88421BD294F9455000226946204622
:10325000FFF7C1FD0646681C60B9606A08B9012025
:1032600000E0002050B904F1240002F0B7FA28B1C0
:10327000012603E0681C40B284F8450000BF3046D8
:10328000F8BD0000F8B505460F461A480068C0684A
:10329000C468201D01F0D0F994F8240000F0040067
:1032A000E8B1A06941192B463A462046FFF75CFF7A
:1032B000D8B1002003462A4601460090204602F07D
:1032C00087FB064656B900BF502080F31188BFF334
:1032D0004F8FBFF36F8F00BF00BFFEE705E094F88C
:1032E000240020F0010084F824002046216A884749
:1032F000F8BD00004C000020F0B587B0A0E00398B6
:10330000002811DA04AE56B900BF502080F31188AE
:10331000BFF34F8FBFF36F8F00BF00BFFEE7D6E94B
:103320000020B168904700BF03980028E6DB059CA9
:10333000606908B9012000E0002010B9201D01F0EB
:103340007BF902A800F0DEF8054603980A2875D23A
:10335000DFE800F009050739416306083A4200BF7B
:1033600000BF00BF00BF94F8240040F0010084F8C3
:1033700024000498A269811803462A462046FFF7D4
:10338000F3FEF8B12046216A884794F8240000F043
:103390000400B8B1002000900498A16942180023ED
:1033A0001946204602F014FB074657B900BF5020CB
:1033B00080F31188BFF34F8FBFF36F8F00BF00BF43
:1033C000FEE700BF3BE000BF94F8240020F00100BE
:1033D00084F8240033E000BF94F8240040F001009A
:1033E00084F824000498A061A06908B1012000E0DD
:1033F000002050B900BF502080F31188BFF34F8FD9
:10340000BFF36F8F00BF00BFFEE7A06941192B46D5
:103410002A462046FFF7A8FE11E094F8240000F0A9
:10342000020018B9204601F0B1F905E094F8240033
:1034300020F0010084F8240001E0FFE700BF00BF96
:10344000002203A90448006801F078FF00287FF4F7
:1034500056AF07B0F0BD000054000020F8B5054697
:103460000C4601F06FFC684600F04CF806460098E8
:1034700020BB44B9B54206D802F0FEF931462846D1
:10348000FFF700FF1CE03CB10E480068006808B977
:10349000012000E000200446A91B22460A480068DB
:1034A00001F0F8FA02F0E8F950B94FF080500749FE
:1034B0000860BFF34F8FBFF36F8F01E002F0DCF9BC
:1034C000F8BD0000500000205400002004ED00E092
:1034D0000A490968096809B9012100E0002121B100
:1034E0004FF0FF31064A116006E004490968C968D7
:1034F000C868034A4168116070470000140000204A
:103500004000002070B5044602F052F80546074816
:103510000068854204D200F017F80120206001E025
:103520000020206001480560284670BD5C00002036
:1035300010B5FDF7FBF8FDF771F84FF44070FFF799
:10354000F9FA00F0A5FC10BD2DE9F84334E0254858
:103550000068C068056823480068C068C468201D0A
:1035600001F06AF82046216A884794F8240000F0A8
:10357000040008B3A0694619AE4207D96660246109
:10358000211D1848006801F093F815E0002003465B
:103590002A4601460090204602F01AFA074657B91B
:1035A00000BF502080F31188BFF34F8FBFF36F8FA0
:1035B00000BF00BFFEE700BF0A480068006808B906
:1035C000012000E000200028C1D00648D0F800808B
:1035D00005480068034908600348C0F80080BDE85A
:1035E000F88300004C000020500000200E480068C6
:1035F000401C08B9012000E0002050B900BF502055
:1036000080F31188BFF34F8FBFF36F8F00BF00BFF0
:10361000FEE700BF502080F31188BFF34F8FBFF348
:103620006F8F00BF00BFFEE78000002008B500BF1D
:103630006846FFF73FFC044620460099FFF70EFF5F
:10364000FFF75AFEF4E770B5044601F057F894F915
:10365000455019E0A06C30B12046FFF7CDFD88B190
:1036600001F0C4FA0EE0606A08B9012000E0002011
:1036700038B904F1240002F0B1F818B101F0B6FA3B
:1036800000E003E0681E45B2002DE3DC00BFFF2030
:1036900084F8450001F05CF801F030F894F94450EA
:1036A00010E0206908B9012000E0002048B904F1C9
:1036B000100002F093F808B101F098FA681E45B2C4
:1036C00000E001E0002DECDC00BFFF2084F84400A6
:1036D00001F03EF870BD00002DE9F04104464FF0C6
:1036E000000801F02FFB4B48006808B9FFF7F6FB14
:1036F000494800682040002870D1D4B1083404F053
:103700000700B0B104F00700C0F10800044404F061
:10371000070008B9012000E0002050B900BF502088
:1037200080F31188BFF34F8FBFF36F8F00BF00BFCF
:10373000FEE7002C52D03948006884424ED8384EFB
:103740003046056801E02E462D686868A04202D226
:1037500028680028F7D12F48006885423ED030689D
:1037600000F10808286830606868001B102819D923
:103770002F1907F0070008B9012000E0002050B918
:1037800000BF502080F31188BFF34F8FBFF36F8FBE
:1037900000BF00BFFEE76868001B78606C603846B9
:1037A000FFF7AEFC1D4968680968081A1B490860E4
:1037B000084600681B490968884203D21748006818
:1037C000184908601449686809680843686000205F
:1037D000286015480068401C1349086002F04CF846
:1037E000B8F1000F01D100F03CFF08F0070008B964
:1037F000012000E0002050B900BF502080F3118864
:10380000BFF34F8FBFF36F8F00BF00BFFEE740468F
:10381000BDE8F081680000207C0000206C000020E2
:10382000600000207000002074000020001F4FF096
:1038300080730360001F21F001030360001F054B2C
:10384000036014380260001F6FF002030360203829
:1038500070470000ED35000810B540F6024000F05A
:103860009BF840F6034000F097F841F2140000F096
:1038700093F810BD2DE9F04F8CB0064600200A9059
:103880003EA090E8004CC068CDE905BECDF810A080
:1038900007900FF2EC0ADAE9000ACDE9020A0FF20A
:1038A000E00ADAE9000ACDE9000A38480068C0F306
:1038B00081000B900B9820B1012804D0022828D158
:1038C00003E0334927E0334925E03048001F006812
:1038D00000F03F072D48001F0068C0F3881C2B48EC
:1038E000001F0068C0F30140401C4FEA4009274810
:1038F000001F006800F48008B8F5800F01D1254B47
:1039000000E0234BB3FBF7F000FB0CF0B0FBF9F148
:1039100001E01F4900BF00BF1C480068C0F303144A
:1039200004A8055D21FA05F218480068C0F3822456
:1039300002A8055D22FA05F0099014480068C0F35A
:1039400042341DF8045022FA05F0089036B1012ED9
:1039500006D0022E06D0032E0AD106E00A9108E016
:103960000A9206E009980A9003E008980A9000E09D
:1039700000BF00BF0A980CB0BDE8F08F0000000047
:10398000000000000102030406070809083802408D
:103990000024F40040787D01074A02EB9011D1F831
:1039A000001800F01F0301229A401143024B03EB61
:1039B0009012C2F80018704700300240074A02EB2C
:1039C0009011D1F8001800F01F0301229A40914392
:1039D000024B03EB9012C2F800187047003002400F
:1039E000074A02EB9011D1F8001800F01F030122E2
:1039F0009A401143024B03EB9012C2F80018704733
:103A0000003002406FF08071884205D10549096895
:103A10000140044A116004E0024909680143014A77
:103A2000116070478C3802402DE9F04188B007469C
:103A30000E467078082802DC002003900AE07078B7
:103A4000102803DC4FF40060039003E0082008B066
:103A5000BDE8F08175683848874202D03748874210
:103A600002D14FF0020801E04FF003084046FFF793
:103A700001FF0446B5EB540F02D30020079025E068
:103A8000B5EB940F02D3082007901FE0B5EBD40FDD
:103A900002D31020079019E0B5EB141F02D31820B1
:103AA000079013E0B5EB541F02D3202007900DE0E0
:103AB000B5EB941F02D32820079007E0B5EBD41F85
:103AC00002D33020079001E038200790307800F0D2
:103AD000030030B1012807D0022808D003280CD1F8
:103AE00008E00020069008E00120069005E0022092
:103AF000069002E00320069000BF00BF307800F07F
:103B0000040010B10020059001E080200590002005
:103B100002904FF4827001904FF400700490384688
:103B200000F00EF801A9384600F022F8384600F0FF
:103B30000CF800208BE7000000380040003C0040FB
:103B4000016821F4005101607047016841F04001B3
:103B5000016070470146C86880B27047C160704715
:103B600002469068084008B1012070470020FCE739
:103B700002460020106800F441500B6818434B685F
:103B800018438B681843CB6818430B6918434B697B
:103B900018438B6918431060D36923F40063D36121
:103BA00070470000F0B585B004460D4617461E4626
:103BB0000020009001940295049867F3000004909F
:103BC000049866F341000490002003906A4603497C
:103BD000034800F027F805B0F0BD00009801002070
:103BE000A0010020F0B585B004460D4617461E46DC
:103BF0000094002001900295049867F3000004905F
:103C0000049866F341000490002003906A4603493B
:103C1000034800F007F805B0F0BD0000980100204F
:103C2000A00100202DE9F047044689461546FF26ED
:103C3000287C00F0010050B1D4E90101FEF781FDBC
:103C40000520FDF7FFFDD4E90101FEF778FD99F8A5
:103C50000100082829DC2F68D5F80480D5F808A0D1
:103C60001DE00FB117F8016B00BF02212068FFF7BC
:103C700077FF0028F9D031462068FFF76FFF00BFBB
:103C800001212068FFF76CFF0028F9D02068FFF7BA
:103C900061FFC6B2B8F1000F01D008F8016BBAF1AC
:103CA0000000AAF1010ADCD100BF287CC0F340006B
:103CB00018B1D4E90101FEF744FD3046BDE8F087B4
:103CC00010B5044600F01AFDFDF7BEFC034800687D
:103CD00000F006FF00F03CFD10BD000000000020D9
:103CE00070B504460B46CD1701EB9575AD10A1EBF1
:103CF0008505AE000F25B540E843CD1701EB95755E
:103D0000AD10A1EB8505AD0004FA05F2CD1701EB6E
:103D10009575AD1035B1012D0ED0022D18D0032DA3
:103D20002ED121E0184B1B680340174D2B602B460A
:103D30001B6813432B6024E0134B1B1D1B680340BF
:103D4000114D2D1D2B602B461B6813432B6018E073
:103D50000D4B08331B6803400B4D08352B602B4679
:103D60001B6813432B600CE0074B0C331B680340AC
:103D7000054D0C352B602B461B6813432B6000E070
:103D800000BF00BF70BD00000838014000200021C6
:103D90003A4A126842F48032384B1A6000BF401C25
:103DA000364A126802F4003119B94FF6FF72904298
:103DB000F5D1324A126802F400320AB900BFFEE7B8
:103DC0002E4A4032126842F080522C4B40331A6027
:103DD0002B4A126842F44042294B1A60274A0832A3
:103DE0001268264B08331A601A46126842F40042E1
:103DF0001A601A46126842F4A0521A60214A1B1F28
:103E00001A601A1F126842F080721B1F1A6000BFEE
:103E10001A4A126802F00072002AF9D0184A126891
:103E200042F48032164B1A6000BF154A526802F401
:103E30008032002AF9D0124A126842F40032104B44
:103E40001A6000BF0E4A526802F40032002AF9D00C
:103E50000A4A0832126822F00302084B08331A603B
:103E60001A46126842F002021A6000BF034A083282
:103E7000126802F00802002AF8D0704700380240A9
:103E8000007000401964400910B5FFF77FFF10BDB6
:103E900010B5124800684FF47A71B0FBF1F4601E5F
:103EA000B0F1807F01D301200FE0601E4FF0E021D0
:103EB00048610F214FF0FF30FCF780FB00204FF0EE
:103EC000E021886107200861002008B100BFFEE7FB
:103ED0000021481EFCF772FB10BD00000C00002002
:103EE0001FB541F20200FFF757FD4FF08070FFF75A
:103EF00089FD002203211E20FEF7BAFD144800F0C0
:103F000043F8C720ADF800000020ADF80200ADF87E
:103F10000400012002900020ADF806008DF80C008E
:103F200069460B4800F0F8F8094800F013F8002142
:103F3000074800F050F90121054800F03DF9012142
:103F4000034800F035F9024800F0E0F81FBD00001A
:103F500000080040016841F080010160704702469E
:103F6000002031B1012906D0022906D0032908D149
:103F700005E0506B06E0906B04E0D06B02E0106C43
:103F800000E000BF00BF704710B504465C49601AEE
:103F90008C426FD019DC5B49A4EB01008C424ED0FF
:103FA00009DCB4F1804F2ED057482044A0B3B0F5BF
:103FB000806F72D13AE0B0F5806F49D0B0F5006FF4
:103FC0004FD0B0F5406FF4D17BE0B0F5923F5BD0BD
:103FD00009DCB0F5806F73D0B0F5644F0AD0B0F54E
:103FE000684F5AD147E0B0F5943F57D0B0F5963FAF
:103FF00053D15CE04FF41060FFF7F2FC4FF4106017
:10400000FFF7DCFC79E04FF40060FFF7E9FC4FF4C8
:104010000060FFF7D3FC70E0FFE740F60100FFF718
:10402000DFFC40F60100FFF7C9FC66E040F6020045
:10403000FFF7D6FC40F60200FFF7C0FC5DE040F65B
:104040000300FFF7CDFC40F60300FFF7B7FC54E098
:1040500040F60400FFF7C4FC40F60400FFF7AEFC96
:104060004BE040F60500FFF7BBFC40F60500FFF70C
:10407000A5FC42E02EE040F60110FFF7B1FC40F64F
:104080000110FFF79BFC38E04FF41160FFF7A8FC2C
:104090004FF41160FFF792FC2FE02DE040F6111075
:1040A000FFF79EFC40F61110FFF788FC25E040F674
:1040B0001210FFF795FC40F61210FFF77FFC1CE092
:1040C00011E040F60600FFF78BFC40F60600FFF714
:1040D00075FC12E040F60700FFF782FC40F607008F
:1040E000FFF76CFC09E040F60800FFF779FC40F6AA
:1040F0000800FFF763FC00E000BF00BF10BD000038
:10410000001C0040000C004000FCFFBF016841F0B3
:1041100001010160704700000A8882621D4A9042D6
:104120000ED0B0F1804F0BD01B4A904208D01B4AF2
:10413000904205D01A4A904202D01A4A90420BD1BE
:10414000026822F07002026002684B881A43026023
:1041500002688B881A4302608A68C262124A9042DF
:104160000AD0124A904207D0026822F440720260DC
:104170000268CB881A430260064A904202D0094A7C
:10418000904201D10A7B0263426942F0010242611E
:10419000704700000000014000040040000800409B
:1041A000000C0040000401400010004000140040DA
:1041B000C2680A43C2607047CA4302617047024640
:1041C000D06800EA01031069084010B10BB101206A
:1041D00070470020FCE721B9026842F00402026047
:1041E00005E0012903D1026822F004020260704751
:1041F00010B500240F4800680E48406800210E48A2
:10420000FDF72AFB00210C48FDF72FFEC0F1FF004F
:1042100084B22246094901F1FF00FCF743F8FF226E
:1042200000210548FDF719FE00210348FDF724FB96
:10423000E0B210BD0050004000600240DECC002023
:104240002DE9F04104460E4600272069002832D1AE
:1042500006F4807068B3E168C1F38F2101F10C00AE
:10426000FEF7C4FB05460DB1012000E0002050B967
:1042700000BF502080F31188BFF34F8FBFF36F8FC3
:1042800000BF00BFFEE705F10C002860E268C2F342
:104290008F212868FCF71FF80020A880E88028728A
:1042A000256160684FF4807210214368204698476A
:1042B00001E000202061606940BB06F4806030B3FB
:1042C000E168C1F38F2101F10C00FEF78FFB054679
:1042D0000DB1012000E0002050B900BF502080F354
:1042E0001188BFF34F8FBFF36F8F00BF00BFFEE792
:1042F00005F10C002860E268C2F38F212868FBF703
:10430000EAFF0020A880E8802872656101E00020B3
:1043100060616068006820B1606801682046884775
:1043200007463846BDE8F0812DE9F04704460D46C2
:104330000027B846B94600263349601A8C4235D06A
:104340000CDC32482044E8B1B0F5806F1FD0B0F5E6
:10435000006F21D0B0F5406F32D122E0B0F5806F10
:1043600029D0B0F5184F03D0B0F51C4F28D104E088
:104370000320FFF77FFA074623E00320FFF77AFACE
:1043800007461EE00220FFF775FA074619E00220F3
:10439000FFF770FA074614E00220FFF76BFA0746B2
:1043A0000FE00220FFF766FA07460AE00220FFF757
:1043B00061FA074605E00220FFF75CFA074600E0D5
:1043C00000BF00BFE06800F4004070B1780000EB6F
:1043D0005500B0FBF5F64FF6F07006EA0008C6F39C
:1043E000420948EA0900A0600CE007EB5500B0FB69
:1043F000F5F64FF6F07006EA000806F00F0948EAF5
:104400000900A060BDE8F0870078004000BCFFBF55
:1044100001464868C0F308007047C1F308024260D3
:104420007047000010B504463349601A8C424DD0E5
:104430000CDC32482044E0B1B0F5806F22D0B0F5FA
:10444000006F31D0B0F5406F52D136E0B0F5806FDB
:1044500045D0B0F5184F03D0B0F51C4F48D11AE045
:1044600040F60410FFF7BCFA40F60410FFF7A6FA76
:104470003FE040F61100FFF7B3FA40F61100FFF7F6
:104480009DFA36E040F61200FFF7AAFA40F6120055
:10449000FFF794FA2DE040F60510FFF7A1FA40F679
:1044A0000510FFF78BFA24E040F61300FFF798FAA7
:1044B00040F61300FFF782FA1BE040F61400FFF706
:1044C0008FFA40F61400FFF779FA12E040F61E006A
:1044D000FFF786FA40F61E00FFF770FA09E040F693
:1044E0001F00FFF77DFA40F61F00FFF767FA00E0B4
:1044F00000BF00BF10BD00000078004000BCFFBF3F
:104500000A460021416921F0400111434161704791
:104510000A460021416921F0800111434161704741
:10452000C16841F40051C160704710B500EB9112B1
:10453000126801F01F040123A3409A4300EB91137A
:104540001A6010BD10B5024602EB9110006801F030
:104550001F040123A340184008B1012010BD002012
:10456000FCE710B500EB9112126801F01F04012363
:10457000A3409A4300EB91131A6010BD10B500EBF5
:104580009112126801F01F040123A3401A4300EBAB
:1045900091131A6010BD10B500EB91521268C1F36F
:1045A00004440123A3409A4300EB91531A6010BDC9
:1045B00070B5024600230024C1F38910105801F0A1
:1045C0001F060125B54000EA050302EB9150006883
:1045D000C1F304460125B54000EA050414B10BB14E
:1045E000012070BD0020FCE7C26822F4C062C260F6
:1045F000C2680A43C26070470A460021C16821F0C0
:1046000004011143C1607047026922F44052026103
:1046100002690A43026170470A460021C16821F01D
:1046200008011143C1607047C26822F48052C26021
:10463000C2680A43C260704701460A69D1E9013085
:104640009860D1E9010358605068884201D18868B8
:104650005060002008611068401E106010687047AC
:10466000704700BF502080F31188BFF34F8FBFF316
:104670006F8F00BF00BFFEE700BF502080F311889E
:10468000BFF34F8FBFF36F8F00BF00BFFEE77047D0
:1046900000F1080141604FF0FF31816000F1080135
:1046A000C160016100210160704700210161704714
:1046B00010B502460B685C1C0CB9106907E002F1EA
:1046C000080000E04068446824689C42FAD94468C5
:1046D0004C604C68A160886041600A611468641C89
:1046E000146010BD42684A6093688B60936859609B
:1046F0009160086103685B1C0360704700BF502035
:1047000080F31188BFF34F8FBFF36F8F00BF0E4848
:104710000068401C0C49086008460068012812D156
:104720000A480068C0B208B9012000E0002050B972
:1047300000BF502080F31188BFF34F8FBFF36F8FFE
:1047400000BF00BFFEE770478000002004ED00E0DE
:104750000D48006850B900BF502080F31188BFF3A6
:104760004F8FBFF36F8F00BF00BFFEE706480068A2
:10477000401E054908600846006820B9002080F303
:10478000118800BF00BF70478000002070B506464A
:104790003546002E44D0083D2C4622496068096801
:1047A000084008B1012000E0002050B900BF5020AF
:1047B00080F31188BFF34F8FBFF36F8F00BF00BF2F
:1047C000FEE7206808B9012000E0002050B900BFD2
:1047D000502080F31188BFF34F8FBFF36F8F00BF5E
:1047E00000BFFEE70F49606809680840C0B1206853
:1047F000B0B90C49606809688843606000F0A2FAAB
:104800000949606809680844074908602046FEF7BE
:1048100077FC06480068401C0449086001F02CF849
:1048200070BD00007C0000206C000020780000209B
:10483000154800684FF47A71B0FBF1F01349086035
:10484000084600686FF07F41B1FBF0F01049086046
:104850000D480068B0FBF0F02D21B1FBF0F00D49E0
:10486000086000204FF0E021086188610648006878
:104870004FF47A71B0FBF1F0401E4FF0E021486137
:1048800007200861704700000C0000208400002011
:10489000880000208C0000202DE9F041044651489A
:1048A0000068844201D94F4804684FF0E020006955
:1048B00020F001004FF0E021086108468169601E88
:1048C000494A126802FB001548480068854202D92F
:1048D000464800682D1A72B6BFF34F8FBFF36F8F33
:1048E000FDF7CCFA80B94FF0E02080694FF0E0216D
:1048F00048610846006940F0010008613A480068D4
:10490000401E486162B66BE04FF0E0204561002038
:104910004FF0E02188610846006940F0010008611D
:10492000A0464046FBF75FFEB8F1000F04D0BFF38E
:104930004F8F30BFBFF36F8F2046FBF753FE62B639
:10494000BFF34F8FBFF36F8F72B6BFF34F8FBFF3BD
:104950006F8F06204FF0E02108610846006900F4DF
:104960008030B8B120490968491E4FF0E0229269B1
:10497000AA1A881A1D490968884203D31A49096886
:10498000884202D918490968481E4FF0E021486161
:10499000661E12E01448006860434FF0E021896908
:1049A000471A11480068B7FBF0F6701C0E490968F9
:1049B0004843C01B4FF0E021486100204FF0E02148
:1049C00088610846006940F001000861304600F047
:1049D00099F905480068401E4FF0E021486162B631
:1049E000BDE8F08188000020840000208C000020B9
:1049F00070B5FBF741FC0446102C16D304F1E020FF
:104A000090F8F05315480078854201DB012000E062
:104A1000002050B900BF502080F31188BFF34F8FA2
:104A2000BFF36F8F00BF00BFFEE70D48006800F4C2
:104A3000E0600C490968884201D8012000E00020AC
:104A400050B900BF502080F31188BFF34F8FBFF3E0
:104A50006F8F00BF00BFFEE770BD00009000002018
:104A60000CED00E094000020024600200BE0084B13
:104A700053F8303033B9064B43F8301003EBC00322
:104A80005A6002E0401C0828F1D300BF70470000C4
:104A9000180300202DE9F04105460E4617462C4626
:104AA000FFF72CFE94F94400401C10B9002084F854
:104AB000440094F94500401C10B9002084F84500DA
:104AC000FFF746FEA06B28B93A46314604F12400B0
:104AD00000F0AEF82046FEF7B6FDBDE8F08100001C
:104AE00070B50546FFF70AFE15B93048006800E0CA
:104AF00028460446201DFFF79FFD78B9E06A00EBC9
:104B000080002B4951F8200040B994F82C10012066
:104B1000884028490968814326480160A06A18B185
:104B200004F11800FFF788FD23480068401C224963
:104B300008601E480068844209D1211D1F48FFF704
:104B4000D1FD1F480068401C1D49086009E01D4850
:104B50000068401E1B4908602046FEF77BF9FEF7FF
:104B6000B7FCFFF7F5FD18480068E8B10F4800688A
:104B7000844219D11548006808B9012000E00020DE
:104B800050B900BF502080F31188BFF34F8FBFF39F
:104B90006F8F00BF00BFFEE74FF080500C490860E8
:104BA000BFF34F8FBFF36F8F70BD00001000002068
:104BB00058030020280000203C0000205C04002056
:104BC0001C000020200000202C00002048000020B5
:104BD00004ED00E003490968016003490968416088
:104BE0007047000038000020240000200120014907
:104BF000086070473400002070B504460D4654B973
:104C000000BF502080F31188BFF34F8FBFF36F8F29
:104C100000BF00BFFEE70548016818312046FFF7D6
:104C200047FD01212846FDF7C5FF70BD100000209B
:104C300070B505460E46144655B900BF502080F3A6
:104C40001188BFF34F8FBFF36F8F00BF00BFFEE728
:104C50000648016818312846FFF744FD0CB14FF0B3
:104C6000FF3621463046FDF7A5FF70BD100000203D
:104C70001CB51D4800210B464FF40062CDE9001021
:104C80001AA11C4800F054FC0446012C02D100F08B
:104C900075FE0446012C15D100BF502080F3118809
:104CA000BFF34F8FBFF36F8F00BF4FF0FF3012493C
:104CB000086001201149086000201149086000F0D7
:104CC0009DF810E0601C08B1012000E0002050B900
:104CD00000BF502080F31188BFF34F8FBFF36F8F59
:104CE00000BF00BFFEE71CBD4400002049444C4506
:104CF00000000000592F0008400000202C00002078
:104D0000240000200D49096801440D4A12689142AF
:104D100001D8012100E0002151B900BF502181F3E9
:104D20001188BFF34F8FBFF36F8F00BF00BFFEE747
:104D3000024909680144014A1160704724000020BB
:104D40004000002002480068401C0149086070478C
:104D50004800002010B52448006818B101202349FC
:104D6000086040E000202149086021480068006890
:104D70001F490968096B884205D81D48016834310C
:104D80000068FFF779FC1B480068B0FA80F0C0F1BA
:104D90001F0101EB8100184A52F8200008B10120E0
:104DA00000E0002050B900BF502080F31188BFF30D
:104DB0004F8FBFF36F8F00BF00BFFEE701EB810293
:104DC0000D4B03EB820042685268426000F108021A
:104DD0004368934202D14268526842604268D26896
:104DE000034B1A6000BF10BD4800002034000020B3
:104DF0001000002028000020580300201CB5524855
:104E000000685249884201D0012000E0002050B9DA
:104E100000BF502080F31188BFF34F8FBFF36F8F17
:104E200000BF00BFFEE7484800684849491E884265
:104E300001D0012000E0002050B900BF502080F3D5
:104E40001188BFF34F8FBFF36F8F00BF00BFFEE726
:104E50003F49084600780190FF200A461070084636
:104E6000007800909DF8000000F0F0009DF8002010
:104E7000904201D1012000E0002050B900BF502035
:104E800080F31188BFF34F8FBFF36F8F00BF00BF58
:104E9000FEE79DF8000000F050002E4A1070072039
:104EA0002D4A106009E02C480068401E2A4A106014
:104EB0009DF800004006000E00909DF8000000F0F4
:104EC00080008028EFD024480068C0F10700042843
:104ED00001D1012000E0002050B900BF502080F334
:104EE0001188BFF34F8FBFF36F8F00BF00BFFEE786
:104EF000194800680002184A10601046008800F443
:104F0000E0601060124A019810700F48203000686D
:104F100040F470000C49203108600846006840F0F9
:104F200070400860FFF784FC00200C490860FBF724
:104F30006BF90B48006840F0404009490860FBF7F6
:104F40004FF900201CBD000000ED00E071C20F41D0
:104F500000E400E090000020940000208000002089
:104F600034EF00E02DE9F84305460E4617460DB133
:104F7000012000E0002050B900BF502080F31188CC
:104F8000BFF34F8FBFF36F8F00BF00BFFEE705FB7E
:104F900006F808F14C00FEF79FFB04464CB1A14611
:104FA00009F14C093B464A46314628460094FEF733
:104FB00003F82046BDE8F88370B505460E462C463A
:104FC00054B900BF502080F31188BFF34F8FBFF357
:104FD0006F8F00BF00BFFEE7FFF790FBD4E90F1211
:104FE000206801FB0200A0600020A06320686060D0
:104FF000E06B401E226C216800FB0211E160FF2083
:1050000084F8440084F845009EB9206908B901205D
:1050100000E00020A8B904F1100000F0DFFB80B12F
:105020004FF0805009490860BFF34F8FBFF36F8F77
:1050300007E004F11000FFF72BFB04F12400FFF759
:1050400027FBFFF785FB012070BD000004ED00E0A9
:105050002DE9FF4782B0064688461D464FF00009FD
:10506000344654B900BF502080F31188BFF34F8FEE
:10507000BFF36F8F00BF00BFFEE7B8F1000F01D193
:10508000206C08B9012000E0002050B900BF50207A
:1050900080F31188BFF34F8FBFF36F8F00BF00BF46
:1050A000FEE7022D02D1E06B012801D1012000E0D2
:1050B000002050B900BF502080F31188BFF34F8FFC
:1050C000BFF36F8F00BF00BFFEE700F061FA08B9C1
:1050D000049808B9012000E0002050B900BF50201A
:1050E00080F31188BFF34F8FBFF36F8F00BF00BFF6
:1050F000FEE700BFFFF702FBA06BE16B884201D324
:10510000022D3ED1D4F838A02A4641462046FDF76C
:1051100062FE0746A06C88B1022D02D1BAF1000FE1
:1051200029D12046FEF768F828B34FF080503D495A
:105130000860BFF34F8FBFF36F8F1CE0606A08B940
:10514000012000E0002068B904F1240000F046FBD3
:1051500088B14FF0805033490860BFF34F8FBFF3E1
:105160006F8F08E03FB14FF080502E490860BFF3C9
:105170004F8FBFF36F8FFFF7EBFA012006B0BDE84A
:10518000F087049818B9FFF7E3FA0020F6E7B9F1C1
:10519000000F04D16846FFF71DFD4FF00109FFF72E
:1051A000D7FAFFF7CFFDFFF7A9FA94F94400401CA6
:1051B00010B9002084F8440094F94500401C10B94F
:1051C000002084F84500FFF7C3FA04A9684600F000
:1051D00069F9F8B92046FEF700F8A8B104F110000B
:1051E0000499FFF709FD2046FEF72DFA00F044FB75
:1051F00000287FF47FAF4FF080500A490860BFF36A
:105200004F8FBFF36F8F75E72046FEF71CFA00F053
:1052100033FB6FE72046FEF716FA00F02DFB002067
:10522000ACE7000004ED00E02DE9F84F80468A4627
:1052300015461E46444654B900BF502080F31188DD
:10524000BFF34F8FBFF36F8F00BF00BFFEE7BAF110
:10525000000F01D1206C08B9012000E0002050B9F6
:1052600000BF502080F31188BFF34F8FBFF36F8FC3
:1052700000BF00BFFEE7022E02D1E06B012801D182
:10528000012000E0002050B900BF502080F31188B9
:10529000BFF34F8FBFF36F8F00BF00BFFEE7FFF775
:1052A000A7FB00BF5021EFF3118081F31188BFF3FA
:1052B0004F8FBFF36F8F00BF0746A06BE16B884233
:1052C00001D3022E30D194F945B0A06B0090324644
:1052D00051462046FDF77FFD0BF10100E0B9A06CBF
:1052E00058B1022E01D10098D8B92046FDF784FFAD
:1052F000B8B1B5B10120286013E0606A08B9012097
:1053000000E0002068B904F1240000F067FA40B121
:105310003DB10120286004E00BF1010040B284F8A7
:1053200045004FF0010901E04FF0000900BF87F38D
:10533000118800BF4846BDE8F88F00002DE9F7410D
:1053400083B005460E464FF000082C4654B900BF06
:10535000502080F31188BFF34F8FBFF36F8F00BFD2
:1053600000BFFEE70EB9206C08B9012000E0002064
:1053700050B900BF502080F31188BFF34F8FBFF3A7
:105380006F8F00BF00BFFEE700F002F908B9059873
:1053900008B9012000E0002050B900BF502080F380
:1053A0001188BFF34F8FBFF36F8F00BF00BFFEE7C1
:1053B00000BFFFF7A3F9A76BF7B131462046FDF711
:1053C000F5FC781EA063206908B9012000E00020E8
:1053D00060B904F1100000F001FA38B14FF08050CC
:1053E0002F490860BFF34F8FBFF36F8FFFF7B0F9FE
:1053F000012006B0BDE8F081059818B9FFF7A8F9BB
:105400000020F6E7B8F1000F04D101A8FFF7E2FB96
:105410004FF00108FFF79CF9FFF794FCFFF76EF9D6
:1054200094F94400401C10B9002084F8440094F919
:105430004500401C10B9002084F84500FFF788F9AA
:1054400005A901A800F02EF8F0B92046FDF7B8FE36
:10545000A0B104F124000599FFF7CEFB2046FEF72A
:10546000F2F800F009FA0028A3D14FF080500C495F
:105470000860BFF34F8FBFF36F8F9AE72046FEF7A8
:10548000E2F800F0F9F994E72046FEF7DCF800F0C6
:10549000F3F92046FDF794FE00288AD00020A8E703
:1054A00004ED00E070B505460C4655B900BF50202C
:1054B00080F31188BFF34F8FBFF36F8F00BF00BF22
:1054C000FEE754B900BF502080F31188BFF34F8F1F
:1054D000BFF36F8F00BF00BFFEE7FFF70FF9124861
:1054E00002686868131A2068401C08B9002617E093
:1054F0000E4928680968884204D06868904201D83B
:1055000001260DE02068984207D92068C01A206063
:105510002846FFF75FFB002602E0002020600126FE
:10552000FFF716F9304670BD240000203800002037
:105530002DE9FF4F85B0804689461746DDE912AB5D
:10554000B800FEF7C9F8064656B14C20FEF7C4F87D
:1055500004460CB1266304E03046FFF717F900E07B
:1055600000247CB10020CDE900ABCDE902403A46F1
:1055700049464046089BFDF734FD2046FDF766FB93
:10558000012501E04FF0FF35284609B0BDE8F08F56
:105590000549096809B9012005E00449096809B904
:1055A000022000E0002070472C000020480000206E
:1055B0000149086870470000240000202DE9F041EF
:1055C0004FF000084848006800287DD1474800682F
:1055D000451C4648056015BB45480068006808B989
:1055E000012000E0002050B900BF502080F3118856
:1055F000BFF34F8FBFF36F8F00BF00BFFEE73C4884
:1056000007683C4800683A4908603A4807603A48E9
:105610000068401C38490860FDF75AFF00BF374852
:10562000006885423CD300BF31480068006808B973
:10563000012000E0002020B14FF0FF302F4908602A
:105640002DE02B480068C068C4686668B54202D285
:105650002A48066023E0201DFEF7EEFFA06A18B17D
:1056600004F11800FEF7E8FF94F82C1001208840A0
:1056700023490968084322490860E16A01EB810176
:10568000204A02EB8100211DFFF72CF81E49E06A39
:105690000968C96A8842C7D34FF00108C4E700BF50
:1056A00019480068C06A00EB8000164951F82000D4
:1056B000012801D94FF001081448006808B9FEF725
:1056C000E6FF1348006800E003E008B14FF001086E
:1056D00006E00E480068401C0C490860FEF7D7FF42
:1056E0004046BDE8F0810000480000202400002072
:1056F0001400002018000020380000204000002086
:105700002800002058030020100000203000002056
:105710003400002070B505462C460026002D55D0DB
:105720002B480068844201D1012000E0002050B9DC
:1057300000BF502080F31188BFF34F8FBFF36F8FEE
:1057400000BF00BFFEE7206C50B900BF502080F3BF
:105750001188BFF34F8FBFF36F8F00BF00BFFEE70D
:10576000206C401E2064E16BE06A88422ED0206CE1
:1057700060BB201DFEF760FF78B9E06A00EB800097
:10578000144951F8200040B994F82C1001208840A9
:1057900011490968814310480160E06BE062E06AEA
:1057A000C0F10A00A06194F82C10012088400A4939
:1057B0000968084308490860E16A01EB8101054A6C
:1057C00002EB8100211DFEF78DFF0126304670BDE2
:1057D00010000020580300202800002070B5064665
:1057E000F068C46854B900BF502080F31188BFF33B
:1057F0004F8FBFF36F8F00BF00BFFEE704F11800AB
:10580000FEF71AFF16480068B8B9201DFEF714FF0E
:1058100094F82C1001208840124909680843114966
:105820000860E16A01EB81010F4A02EB8100211D52
:10583000FEF758FFFDF74CFE04E004F118010B4899
:10584000FEF750FF0A49E06A0968C96A884204D92C
:10585000012501200749086000E00025284670BDA9
:1058600048000020280000205803002048040020A1
:10587000100000203400002070B5002400263648B7
:10588000006850B900BF502080F31188BFF34F8FDC
:10589000BFF36F8F00BF00BFFEE7FEF72FFF2E485C
:1058A0000068401E2C4908600846006800284FD157
:1058B0002A48006800284BD024E02948C068C46802
:1058C00004F11800FEF7B8FE201DFEF7B5FE94F8AF
:1058D0002C100120884023490968084321490860A9
:1058E000E16A01EB8101204A02EB8100211DFEF7F4
:1058F000F9FE1E49E06A0968C96A884202D301209C
:105900001B4908601648006808B9012000E0002023
:105910000028D2D00CB1FDF7DBFD1648056865B153
:1059200000BFFFF74BFE10B10120114908606D1E4A
:10593000002DF6D100200F4908600D48006838B1ED
:10594000012630070C490860BFF34F8FBFF36F8FFC
:10595000FEF7FEFE304670BD48000020200000200B
:1059600048040020280000205803002010000020D8
:10597000340000203000002004ED00E01CB50024BD
:10598000FDF7BEF90D48006850B10D480221002313
:10599000CA02CDE900100BA10C48FFF7C9FD04466F
:1059A00054B900BF502080F31188BFF34F8FBFF36D
:1059B0006F8F00BF00BFFEE720461CBD54000020D3
:1059C00058000020546D7220537663002D36000875
:1059D0002DE9FF4704460D4616461F46DDF8308088
:1059E0004FF0000954B900BF502080F31188BFF375
:1059F0004F8FBFF36F8F00BF00BFFEE714480068F2
:105A000010B3009501960294062D15DAFFF7C0FD3C
:105A1000022808D10023424669460D480068FFF776
:105A200017FB814610E000231A46694608480068C3
:105A3000FFF70EFB814607E000233A46694604481B
:105A40000068FFF7F1FB8146484604B0BDE8F087E7
:105A50005400002005000000FFFF000000000000CF
:105A600000000000000000000000040C00100240D4
:105A700004000000040200000000040C00100240BA
:105A800008000000040300000000040C00100240A5
:105A900010000000040400000000040C001002408C
:105AA00020000000040500000000040C001002406B
:105AB0004000000004060000FFFF0000000000009E
:105AC00000000000000000000000080C0020024060
:105AD00000010000080800000000020C000802405D
